:030000000211A347
:0C11A300787FE4F6D8FD7581800211EA27
:1010260041000D00440095000000006030002500DE
:1010360000000000000000000000000000000000AA
:10104600000000000000000000000000000000009A
:10105600000000000000000000000000000000602A
:1010660030005500000000000000000000000000F5
:10107600000000000000000000000000000000006A
:10108600000000000000000000000000000000005A
:1010960000000020302100000000000000000000D9
:1010A600000000000000000000000000000000003A
:1010B600000000000000000000000000000000002A
:1010C6000000000000002030510000000000000079
:1010D600000000000000000000000000000000000A
:1010E60000000000000000000000000000000000FA
:0910F600000000000000000000F1
:1008F300758911E4F58775985075D7E875D6FF7536
:100903008E14438E01C2B5C2B4C2CDC2A0D295D259
:10091300A1C205C200C201C202C203C204120F3146
:10092300D29920050E30930BD200C205E4F5A8F549
:100933008F80EF309303020A8E3005030209E975B5
:100943008F30D2AFE4900099F0A3F0900099E0FCCF
:10095300A3E0FDC39418EC9400504DED25E0FFECAB
:1009630033FE74252FF58274003EF583E4F0A3046F
:10097300F074552FF58274003EF583E4F0A304F080
:10098300AF05EF25E02421F87600087601EF25E096
:100993002451F8760008760190009AE004F070ABD9
:1009A300900099E004F080A3D2B5D2B4C2CDC2A026
:1009B300D295D2A1C201C202C203C204D205D2009F
:1009C300C206C207E4900021F0A3F0A3F0A3F075E0
:1009D3008C01758A01758D01758B01D28ED28CD2F3
:1009E30088D28A75A88F309303020936D20090000B
:1009F30020E58CF090001FE58DF0900002E0FD9063
:100A03000020E0D39D4041900019E0FAA3E0FB9061
:100A13000021E475F001120E02FEE5F025E0FFEE81
:100A230033FE74252FF58274003EF583EAF0A3EBC1
:100A3300F090001DE0FFC3900022E09F900021E0B2
:100A430094004004E4F0A3F090001FE0D39D40968F
:100A5300900019E0FEA3E0FF900023E475F001127B
:100A63000E02E5F025E02421F8A60608A60790006B
:100A73001DE0FFC3900024E09F900023E09400500A
:100A8300030209E9E4F0A3F00209E92005030209DE
:100A930023209303020923C20090001DE064186021
:100AA30003020C1590008B120F0000000000900051
:100AB3008F120F0000000000E4900099F0A3F09063
:100AC300008BE0F8A3E0F9A3E0FAA3E0FB90009A1F
:100AD300E025E0FF900099E033FE74252FF5827442
:100AE300003EF583E0FEA3E0FFE4FCFDEB2FFFEA0D
:100AF3003EFEED39FDEC38FC90008B120EF49000B5
:100B03009AE025E0FF900099E033FE74252FF582EB
:100B130074003EF583E0FEA3E0FFD39410EE942728
:100B23005009C3EF9470EE94175002D2CD90008F0A
:100B3300E0F8A3E0F9A3E0FAA3E0FBC0009000997A
:100B4300A3E025E02421F8E6FE08E6FFE4FCFDD05F
:100B530000EB2FFFEA3EFEED39FDEC38FC90008FF1
:100B6300120EF4900099A3E025E02421F8E6FE0894
:100B7300E6FFD39410EE94275009C3EF9470EE94DC
:100B8300175002D2A090009AE004F07006900099EA
:100B9300E004F0900099E07004A3E064186003029D
:100BA3000AC2E47B08FAF9F890008BE0FCA3E0FDAD
:100BB300A3E0FEA3E0FF120E54900085EEF0A3EF36
:100BC300F0E47B08FAF9F890008FE0FCA3E0FDA3C2
:100BD300E0FEA3E0FF120E54900087EEF0A3EFF0C7
:100BE300D3900086E09430900085E09475400AD25B
:100BF30001C2A8C28CC2A9C2B5D3900088E09430C8
:100C0300900087E09475400AD202C2AAC28EC2AB9A
:100C1300C2B4300605300102C29530070530020226
:100C2300C2A1300003020A8E30061220010F30B633
:100C33000CD201D295C2A8C28CC2A9C2B530071288
:100C430020020F30B70CD202D2A1C2AAC28EC2AB0D
:100C5300C2B412005E3001CA3002C7D200C205C25C
:0A0C630001C202E4F5A8F58F80B885
:03000B000212B22C
:1012B200C0E0C0F0C083C082C0D075D000C000C002
:1012C20006C007C28D200024900021E475F00112AF
:1012D2000E02FEE5F025E0FFEE33FE74552FF58297
:1012E20074003EF58374FFF0A374DCF090001DE0FF
:1012F200FFC3900022E09F900021E094004004E4AC
:10130200F0A3F0D007D006D000D0D0D082D083D0C6
:04131200F0D0E03205
:03001B00021316B7
:10131600C0E0C0F0C083C082C0D075D000C000C09D
:1013260007C28F200016900023E475F001120E020A
:10133600E5F025E02451F876FF0876DC90001DE004
:10134600FFC3900024E09F900023E094004004E453
:10135600F0A3F0D007D000D0D0D082D083D0F0D088
:02136600E03273
:0300130002122FA7
:10122F00C0E0C0F0C083C082C0D075D000C000C085
:10123F0006C007C2AA900016E58DF0A3E58BF090CB
:10124F000016E0FEA3E0FF900023E475F0013000EC
:10125F0011120E02E5F025E02421F8A60608A607D4
:10126F008011120E02E5F025E02451F8A60608A61B
:10127F0007D20490001DE0FFC3900024E09F900070
:10128F0023E094004004E4F0A3F0758D01758B0109
:10129F00D2AAD007D006D000D0D0D082D083D0F041
:0312AF00D0E0325A
:03000300021100E7
:10110000C0E0C0F0C083C082C0D075D000C000C0B5
:1011100004C005C006C007C2A890001BE58CF0A360
:10112000E58AF090001BE0FCA3E0FD900021E4754F
:10113000F00130001D120E02FEE5F025E0FFEE3357
:10114000FE74252FF58274003EF583ECF0A3EDF0DC
:10115000801D120E02FEE5F025E0FFEE33FE745511
:101160002FF58274003EF583ECF0A3EDF0D20390EE
:10117000001DE0FFC3900022E09F900021E094005A
:101180004004E4F0A3F0758C01758A01D2A8D00761
:10119000D006D005D004D000D0D0D082D083D0F0FB
:0311A000D0E0326A
:0300530002001E8A
:09001E0020B605D206538FEF3223
:03005B0002002779
:0900270020B705D207538FDF3228
:080030008F993099FDC299225D
:100F3100E4FF3090057408FF8004EF54F7FFEF30B1
:100F410091054404FF800354FBFFEF3092054402F6
:100F5100FF800354FDFFEF30A5054401FF800354DA
:100F6100FEFF900002744FF090001D7418F0900085
:100F710019744EF0A37420F0EF24FDB40C0040036B
:100F810002101B900F9275F003A4C58325F0C58351
:100F91007302101002101B021005020FE4020FFA77
:100FA10002101B020FEF020FD7020FE2020FC10264
:100FB1000FCC020FB6900095120F003FA000002247
:100FC100900095120F003FA3D70A22900095120FAF
:100FD100003FAA3D7122900095120F003FB1EB85B1
:100FE100228037900095120F003FBC28F622900016
:100FF10095120F003FC28F5C22900095120F003FA7
:10100100C51EB822900095120F003FCE147B22908E
:101011000095120F003FD5C28F22900095120F004C
:041021003FB70A3D8E
:0110250022A8
:10005E003001030205192003030203A7C203900017
:10006E0021E0FAA3E0FBEA7050EB14602014603438
:10007E002402704590000EE4F0A37415F0A3E4F092
:10008E00A37416F0A3E4F0A37417F0805990000E39
:10009E00E4F0A37416F0A3E4F0A37417F0E4A3F055
:1000AE00A3F0804290000EE4F0A37417F0E4A3F0E6
:1000BE00A3F0A3F0A304F0802D900021E0FCA3E0B8
:1000CE00FD24FDFEEC34FF90000EF0A3CEF0ED24E7
:1000DE00FEFEEC34FFA3F0A3CEF0EB24FFFEEA34D9
:1000EE00FFA3F0A3CEF0900010E0FEA3E025E0FF0A
:1000FE00EE33FE74552FF58274003EF583E0FCA3BB
:10010E00E0FD900012E0FEA3E025E0FFEE33FE746A
:10011E00552FF58274003EF583E0FEA3E02DFDEE33
:10012E003CFC90000EE0FEA3E025E0FFEE33FE74F3
:10013E00552FF58274003EF583E0FEA3E02DFFEE11
:10014E003CFE900093F0A3EFF0900085E0FCA3E05E
:10015E00FDC39FEC9E5042E4120D7FC004C005C04B
:10016E0006C007900093E0FCA3E0FDE4120D7FD0E3
:10017E0003D002D001D000120C70900095E0F8A3CD
:10018E00E0F9A3E0FAA3E0FB120D0D6002500AD2D3
:10019E0001C2A8C28CC2A9C2B5900012E0FEA3E0B3
:1001AE0025E0FFEE33FE74252FF58274003EF583B5
:1001BE00E0FCA3E0FDE4120D7FC004C005C006C044
:1001CE0007900012E0FEA3E025E0FFEE33FE74552B
:1001DE002FF58274003EF583E0FCA3E0FDE4120DE2
:1001EE007FD003D002D001D000120C70900095E0A9
:1001FE00F8A3E0F9A3E0FAA3E0FB120D0D600540B1
:10020E000302051190000EE0FEA3E025E0FFEE33A1
:10021E00FE74252FF58274003EF583E0FCA3E0FD0D
:10022E00E4120D7FC004C005C006C00790000EE0AA
:10023E00FEA3E025E0FFEE33FE74552FF582740029
:10024E003EF583E0FCA3E0FDE4120D7FD003D00267
:10025E00D001D000120C70C004C005C006C00790BB
:10026E000010E0FEA3E025E0FFEE33FE74252FF52F
:10027E008274003EF583E0FCA3E0FDE4120D7FC026
:10028E0004C005C006C007900010E0FEA3E025E004
:10029E00FFEE33FE74552FF58274003EF583E0FCBD
:1002AE00A3E0FDE4120D7FD003D002D001D00012E6
:1002BE000C70A804A905AA06AB07D007D006D00576
:1002CE00D004120D0D60025003020511900010E0D3
:1002DE00FEA3E025E0FFEE33FE74252FF5827400B9
:1002EE003EF583E0FCA3E0FDE4120D7FC004C005E3
:1002FE00C006C007900010E0FEA3E025E0FFEE333D
:10030E00FE74552FF58274003EF583E0FCA3E0FDEC
:10031E00E4120D7FD003D002D001D000120C707BFE
:10032E00297A5C798F783F120D0D60054003020526
:10033E001190000EE0FEA3E025E0FFEE33FE7425E3
:10034E002FF58274003EF583E0FCA3E0FDE4120D70
:10035E007FC004C005C006C00790000EE0FEA3E0FB
:10036E0025E0FFEE33FE74552FF58274003EF583C3
:10037E00E0FCA3E0FDE4120D7FD003D002D001D04B
:10038E0000120C707B297A5C798F783F120D0D600C
:10039E0005400302051102050790001BE58CF0A332
:1003AE00E58AF090001BE0FCA3E0FD900021E0FA4E
:1003BE00A3E0FB25E0FFEA33FE74552FF5827400AF
:1003CE003EF583ECF0A3EDF0EA7050EB14602014D0
:1003DE0060342402704590000EE4F0A37415F0A36F
:1003EE00E4F0A37416F0A3E4F0A37417F080619008
:1003FE00000EE4F0A37416F0A3E4F0A37417F0E477
:10040E00A3F0A3F0804A90000EE4F0A37417F0E47A
:10041E00A3F0A3F0A3F0A304F08035900021E0FC3C
:10042E00A3E0FD24FDFEEC34FF90000EF0A3CEF011
:10043E00ED24FEFEEC34FFA3F0A3CEF0900021E0FD
:10044E00FEA3E024FFFFEE34FF900012F0A3EFF0C6
:10045E00900010E0FEA3E025E0FFEE33FE74552F72
:10046E00F58274003EF583E0FCA3E0FD900012E0FF
:10047E00FEA3E025E0FFEE33FE74552FF5827400E7
:10048E003EF583E0FEA3E02DFDEE3CFC900021E066
:10049E00FEA3E025E0FFEE33FE74552FF5827400C7
:1004AE003EF583E0FEA3E02DFFEE3CFE900093F0C0
:1004BE00A3EFF0900085E0FCA3E0FDC39FEC9E50FF
:1004CE0042E4120D7FC004C005C006C00790009321
:1004DE00E0FCA3E0FDE4120D7FD003D002D001D0EA
:1004EE0000120C70900095E0F8A3E0F9A3E0FAA3D7
:1004FE00E0FB120D0D6002500AD201C2A8C28CC2DE
:10050E00A9C2B5300605300102C2953002030208B9
:10051E00F22004030207B7C204900023E0FAA3E01E
:10052E00FBEA7050EB146020146034240270459086
:10053E000003E4F0A37415F0A3E4F0A37416F0A383
:10054E00E4F0A37417F08059900003E4F0A374163E
:10055E00F0A3E4F0A37417F0E4A3F0A3F0804290AC
:10056E000003E4F0A37417F0E4A3F0A3F0A3F0A348
:10057E0004F0802D900023E0FCA3E0FD24FDFEECB2
:10058E0034FF900003F0A3CEF0ED24FEFEEC34FF1A
:10059E00A3F0A3CEF0EB24FFFEEA34FFA3F0A3CE2C
:1005AE00F0900005A3E025E02451F8E6FE08E6FFF2
:1005BE00A3A3E025E02451F8E6FC08E62FFFEC3E6D
:1005CE00FE900003A3E025E02451F8E6FC08E62F98
:1005DE00FFEE3CFE900089F0A3EFF0900087E0FC68
:1005EE00A3E0FDC39FEC9E5042E4120D7FC004C0F9
:1005FE0005C006C007900089E0FCA3E0FDE4120DE3
:10060E007FD003D002D001D000120C70900095E084
:10061E00F8A3E0F9A3E0FAA3E0FB120D0D6002507F
:10062E000AD202C2AAC28EC2ABC2B4900007A3E025
:10063E0025E02421F8E6FC08E6FDE4120D7FC00457
:10064E00C005C006C007900007A3E025E02451F8BE
:10065E00E6FC08E6FDE4120D7FD003D002D001D0F7
:10066E0000120C70900095E0F8A3E0F9A3E0FAA355
:10067E00E0FB120D0D600540030208EA900003A393
:10068E00E025E02421F8E6FC08E6FDE4120D7FC02B
:10069E0004C005C006C007900003A3E025E0245166
:1006AE00F8E6FC08E6FDE4120D7FD003D002D0017F
:1006BE00D000120C70C004C005C006C00790000523
:1006CE00A3E025E02421F8E6FC08E6FDE4120D7F08
:1006DE00C004C005C006C007900005A3E025E024B5
:1006EE0051F8E6FC08E6FDE4120D7FD003D002D0EF
:1006FE0001D000120C70A804A905AA06AB07D007FA
:10070E00D006D005D004120D0D600250030208EA87
:10071E00900005A3E025E02421F8E6FC08E6FDE4C0
:10072E00120D7FC004C005C006C007900005A3E0EF
:10073E0025E02451F8E6FC08E6FDE4120D7FD00317
:10074E00D002D001D000120C707B297A5C798F78A0
:10075E003F120D0D600540030208EA900003A3E06E
:10076E0025E02421F8E6FC08E6FDE4120D7FC00426
:10077E00C005C006C007900003A3E025E02451F891
:10078E00E6FC08E6FDE4120D7FD003D002D001D0C6
:10079E0000120C707B297A5C798F783F120D0D60F8
:1007AE000540030208EA0208E0900016E58DF0A36A
:1007BE00E58BF0900016E0FEA3E0FF900023E0FC36
:1007CE00A3E0FDF925E02451F8A60608A607EC7073
:1007DE0050ED14602014603424027045900003E440
:1007EE00F0A37415F0A3E4F0A37416F0A3E4F0A341
:1007FE007417F08061900003E4F0A37416F0A3E484
:10080E00F0A37417F0E4A3F0A3F0804A900003E481
:10081E00F0A37417F0E4A3F0A3F0A3F0A304F08008
:10082E0035900023E0FCA3E0FD24FDFEEC34FF90A8
:10083E000003F0A3CEF0ED24FEFEEC34FFA3F0A3F4
:10084E00CEF0900023E0FEA3E024FFFFEE34FF90F5
:10085E000007F0A3EFF0900005A3E025E02451F887
:10086E00E6FE08E6FFA3A3E025E02451F8E6FC0827
:10087E00E62FFFEC3EFEE925E02451F8E6FC08E603
:10088E002FFFEE3CFE900089F0A3EFF0900087E082
:10089E00FCA3E0FDC39FEC9E5042E4120D7FC0040A
:1008AE00C005C006C007900089E0FCA3E0FDE4127D
:1008BE000D7FD003D002D001D000120C70900095A5
:1008CE00E0F8A3E0F9A3E0FAA3E0FB120D0D60023D
:1008DE00500AD202C2AAC28EC2ABC2B430070530D1
:0508EE000202C2A1227C
:100C6D00020DF7EC5D046005E859047003020DED0B
:100C7D00120DB8580460F6EC4860F2EC7004FDFEFD
:100C8D00FF22C860DB2481C85009C398600250065A
:100C9D00020DF49850CAF582E9294B4A7005AB82D2
:100CAD00020DE375F0007C1A7880C3EF9BEE9AED90
:100CBD0099400DC3EF9BFFEE9AFEED99FDE842F0D2
:100CCD00DC23ACF0D0E0FFD0E0FED0E0FDAB822025
:100CDD00E7101BEB60BAEC2CFCEF33FFEE33FEEDAF
:100CED0033FD020DCFE803F830E705C0F075F000D5
:100CFD00EF2FFFEE33FEED33FD40B830E7C280AA93
:100D0D0074F8CC6480CCC86480C8F582046043C399
:100D1D00EB9FF5F0EA9E42F0E99D42F0E89C45F02C
:100D2D0060305018E5825FFFE582F42B5582FB5051
:100D3D00210ABA001D09B90019088016E5825BFB6E
:100D4D00E582F42F5582FF50090EBE00050DBD0042
:100D5D00010CC3EB9FF5F0EA9E42F0E99D42F0E8ED
:0D0D6D009C45F06007CC4820E701B3EC2264
:100D7A0075F020800E75F010800575F0087D007EF4
:100D8A00007F003392D530D503120EE6EC334010C3
:100D9A00EF33FFEE33FEED33FDEC33FCD5F0ED22FD
:0E0DAA00E5F0247EA2D513CC92E7CDCEFF2239
:100DB800E9D2E7C933E833F892D5EDD2E7CD33EC81
:070DC80033FC5002B2D522FA
:100DCF00EC30E7100FBF000C0EBE00080DBD000485
:100DDF000BEB6014A2D5EB13FCED92E7FD2274FF31
:100DEF00FCFDFEFF22E480F8A2D574FF13FC7D808A
:030DFF00E480EF9E
:1011AF000208F3E493A3F8E493A34003F68001F25B
:1011BF0008DFF48029E493A3F85407240CC8C33341
:1011CF00C4540F4420C8834004F456800146F6DF10
:1011DF00E4800B0102040810204080901026E47E6A
:1011EF00019360BCA3FF543F30E509541FFEE49305
:1011FF00A360010ECF54C025E060A840B8E493A3CC
:10120F00FAE493A3F8E493A3C8C582C8CAC583CAF6
:10121F00F0A3C8C582C8CAC583CADFE9DEE780BEAE
:0110FF0000F0
:100E0200A3F8E0C5F025F0F0E582158270021583A3
:060E1200E0C838F0E82200
:100E180075F008758200EF2FFFEE33FECD33CDCC91
:100E280033CCC58233C5829BED9AEC99E582984014
:100E38000CF582EE9BFEED9AFDEC99FC0FD5F0D6F1
:100E4800E4CEFBE4CDFAE4CCF9A88222B800C1B91B
:100E58000059BA002DEC8BF084CFCECDFCE5F0CB59
:100E6800F97818EF2FFFEE33FEED33FDEC33FCEB92
:100E780033FB10D703994004EB99FB0FD8E5E4F94D
:100E8800FA227818EF2FFFEE33FEED33FDEC33FC3A
:100E9800C933C910D7059BE99A4007EC9BFCE99A2E
:100EA800F90FD8E0E4C9FAE4CCFB2275F010EF2F73
:100EB800FFEE33FEED33FDCC33CCC833C810D70773
:100EC8009BEC9AE899400AED9BFDEC9AFCE899F8AE
:0E0ED8000FD5F0DAE4CDFBE4CCFAE4C8F92241
:0E0EE600C3E49FFFE49EFEE49DFDE49CFC221D
:0C0EF400ECF0A3EDF0A3EEF0A3EFF02271
:100F0000A8828583F0D083D082120F17120F171298
:100F10000F17120F17E473E493A3C583C5F0C583BD
:100F2000C8C582C8F0A3C583C5F0C583C8C582C83B
:010F3000229E
:00000001FF
