:020000040800F2
:10000000C055002045010008690100086B01000887
:100010006F0100087301000877010008000000006C
:100020000000000000000000000000007B0100084C
:100030007D010008000000007F0100088101000828
:100040005F0100085F0100085F0100085F01000810
:100050005F0100085F0100085F0100085F01000800
:100060005F0100085F0100085F0100085F010008F0
:100070005F0100085F0100085F0100085F010008E0
:100080005F0100085F0100085F0100085F010008D0
:100090005F0100085F0100085F010008950100088A
:1000A0005F0100085F0100085F0100085F010008B0
:1000B0008B010008930100085F0100085F01000840
:1000C0005F0100085F0100085F0100085F01000890
:1000D0005F0100085F0100085F0100085F01000880
:1000E000830100085F0100085F0100085F0100084C
:1000F0005F0100085F0100085F0100085F01000860
:100100005F0100085F0100085F0100085F0100084F
:100110005F0100085F0100085F0100085F0100083F
:100120005F0100085F0100085F0100085F0100082F
:10013000DFF80CD00CF076F9004800479D0100086C
:10014000C05500200648804706480047FEE7FEE706
:10015000FEE7FEE7FEE7FEE7FEE7FEE7FEE7FEE777
:10016000195B000831010008704700BFFEE700BFBF
:10017000FEE700BFFEE700BFFEE77047704770472D
:10018000704710B507F090FD10BD10B507F099FD50
:1001900010BD704710B508F0F2FB10BD08F090FAE2
:1001A00007F0AAFE07F04EFE07F06CFF0BF0FDFD16
:1001B000012000F0E8F9022000F0E5F9032000F04A
:1001C000E2F9042000F0DFF9052000F0DCF901F08D
:1001D00069FE0120234908602349C1F8A40123498D
:1001E000086023490860234908602349C1F8880151
:1001F00036E00BF082FD214800780C282BD2DFE896
:1002000000F027060C0F121518091B1E212400F000
:1002100037F824E002F00AF921E000F0C0FB1EE00C
:1002200000F0F0FE1BE001F023F918E001F0EBFB19
:1002300015E004F06DFE12E003F07CF90FE004F02D
:10024000EFF80CE004F042FB09E005F0EFF806E0FF
:1002500003F058FD03E000200849087000BF00BF0C
:10026000C7E70000A0012242000022429C01224276
:10027000BC8122428801244200002342B1000020B8
:100280002DE9F04FBFB0C82105A80BF0DEFD002519
:1002900000260020049081466DE10BF02EFDF7480A
:1002A000007809284ED2DFE800F04D050E1720290E
:1002B000323B4400F24800883E901122F14937A8B1
:1002C0000BF0AAFD42E0F04800883E901122EF4971
:1002D00037A80BF0A1FD39E0ED4800883E901122CF
:1002E000EC4937A80BF098FD30E0EB4800883E90D1
:1002F0001122EA4937A80BF08FFD27E0E848008873
:100300003E901122E74937A80BF086FD1EE0E64833
:1003100000883E901122E54937A80BF07DFD15E0DD
:10032000E34800883E901122E24937A80BF074FDA3
:100330000CE0E14800883E901122E04937A80BF01C
:100340006BFD03E0DEA00CF07FF800BF00BFE848C3
:10035000007810F0010F14D0E548007820F001007B
:10036000E3490870C548007807F03FFC3146721C2D
:10037000D6B205AA22F81100642E02DB01200490F7
:1003800000260498012887D1D9480078C0F380005E
:10039000002870D0D648007820F00400D4490870B6
:1003A0004FF0000900250BE005A931F815000BF00E
:1003B000D5FE074649460BF053FD8146681CC5B281
:1003C000642DF1DBCB4948460BF0D8FD8146484609
:1003D0000BF0F6FE82460022C74B0BF00FFE0746DD
:1003E0000BF001FF8146C54948460BF091FDC44919
:1003F00001900BF08DFDC34902900BF0BFFD0390FF
:100400000BF0DEFE82460022BB4B0BF0F7FD0746E9
:100410000BF0BDFE80B23D90BDF8F400BDF8F810C1
:1004200088427DDDBDF8F410BDF8F820881A0BF085
:100430008CFE0746B2490BF0A1FD04469DF8DC0096
:10044000012804D0022817D003286ED136E0DDF849
:10045000E10021460BF05CFD8246DDF8DD100BF07B
:10046000FFFC8046A6490BF053FD07460BF07BFED0
:1004700080B23C905DE07EE0DDF8E50021460BF0C7
:1004800047FD214602900BF043FD8346DDF8E10075
:1004900021460BF03DFD594603900BF0E1FC8246EE
:1004A000DDF8DD100BF0DCFC804695490BF030FDEB
:1004B00007460BF058FE80B23C903AE0DDF8E900C8
:1004C00021460BF025FD214601900BF021FD8346CE
:1004D00021460BF01DFD8246DDF8E50021460BF0BC
:1004E00017FD214600900BF013FD8346DDF8E10077
:1004F00021460BF00DFD594601900BF0B1FC514621
:1005000002900BF0ADFC0390DDF8DD100BF0A8FCC1
:1005100080467B490BF0FCFC07460BF024FE01E013
:1005200008E002E080B23C9003E077A00BF08CFF83
:1005300000BF01E000203C900820804908700020A6
:100540004870452088704D480078C8709DF8F800C4
:1005500008719DF8F90048719DF8F40088719DF8C4
:10056000F500C8719DF8F00008729DF8F10048721E
:10057000002008F071FF7248007801283FF48DAE2A
:100580003FB0BDE8F08F2DE9F04FB7B00546C82168
:1005900004A80BF05AFC0026B146002400BF1CE062
:1005A0005348007820F001005149087000BF5048BE
:1005B000007810F0010FFAD0284607F016FB04A9C6
:1005C00021F8160031F816000BF0C8FD0746494621
:1005D0000BF046FC8146701CC6B2642EE0DB454938
:1005E00048460BF0CBFC814648460BF0E9FD074638
:1005F0000022414B0BF002FD82460BF0F4FD8146D8
:100600003E4948460BF084FC3D4901900BF080FCCC
:1006100083463C490BF0B2FC82460BF0D1FD074605
:100620000022354B0BF0EAFCCDE902010BF0AFFDE7
:1006300084B22246294643A00BF006FF092D1BD2A7
:10064000DFE805F09105080B0E1114178E000C4819
:1006500004808CE00C48048089E00D48048086E02A
:100660000D48048083E00E48048080E00E4804803A
:100670007DE00F4804807AE075E00000B4000020BF
:10068000B6000020C8050020B8000020D9050020D1
:10069000BA000020EA050020BC000020FB05002075
:1006A000BE0000200C060020C00000201D06002017
:1006B000C20000202E060020C40000203F060020BB
:1006C0000D0A4572726F723A546865204144206386
:1006D00068616E6E656C2069732066616C7365215C
:1006E000212146756E5F41646A7573740D0A0000BE
:1006F000B20000200000C8420000E03F000020419E
:1007000000007A4400FF7F470D0A4572726F723A0B
:1007100054686520506172616D657465725F4E4208
:100720002069732066616C736521212146756E5FB7
:1007300041646A7573740D0A00000000E8420020ED
:10074000B10000200D0A20566F6C746167655F5A16
:1007500065726F25753D25756D76200D0A000000C8
:10076000FB48048003E0FBA00BF06EFE00BF00BF5F
:1007700037B0BDE8F08F2DE9F04F8BB006460F463D
:1007800038460BF0EBFC8046FE490BF0F7FB05907A
:10079000092E46D2DFE806F045050D151D252D353D
:1007A0003D0042F20F741122F74906A80BF034FB0A
:1007B0003BE042F20F741122F44906A80BF02CFB27
:1007C00033E04CF250341122F14906A80BF024FB1F
:1007D0002BE04CF250341122EE4906A80BF01CFB22
:1007E00023E044F620641122EB4906A80BF014FB29
:1007F0001BE042F20F741122E84906A80BF00CFB33
:1008000013E040F2E7341122E54906A80BF004FB9F
:100810000BE040F2E7341122E24906A80BF0FCFAA3
:1008200003E0E1A00BF010FE00BF00BF9DF8180030
:10083000012804D0022815D0032867D133E0DDF861
:100840001D0005990BF064FB8246DDF819100BF0D2
:1008500007FB8146CB490BF05BFB80460BF083FC2A
:1008600085B257E0DDF8210005990BF051FB0390AC
:1008700005990BF04DFB8346DDF81D0005990BF043
:1008800047FB594604900BF0EBFA8246DDF819104D
:100890000BF0E6FA8146BB490BF03AFB80460BF0C1
:1008A00062FC85B236E0DDF8250005990BF030FBDF
:1008B000029005990BF02CFB834605990BF028FB61
:1008C0000390DDF8210005990BF022FB01900599BA
:1008D0000BF01EFB8346DDF81D0005990BF018FB9D
:1008E000594602900BF0BCFA824603990BF0B8FA15
:1008F0008146DDF819100BF0B3FAA24904900BF011
:1009000007FB80460BF02FFC85B203E0B4A00BF090
:100910009BFD00BF00BFA54200DD254628460BB069
:10092000BDE8F08F01460020072935D2DFE801F04D
:1009300034040C141C242C00B64A1268012A01D17C
:10094000012000E0002028E0B34A1268012A01D10A
:10095000012000E0002020E0B04A1268012A01D105
:10096000012000E0002018E0AD4A1268012A01D100
:10097000012000E0002010E0AA4A1268012A01D1FB
:10098000012000E0002008E0A74A1268012A01D1F6
:10099000012000E0002000E000BF00BF70472DE90B
:1009A000F04F8FB014210AA80BF04FFA142105A8BC
:1009B0000BF04BFA0025002600240027A146A24692
:1009C00000BF9A49002008F047FD002098490880A0
:1009D0009849088098490880984908809848807804
:1009E000401C00F0FF089748007820F010001030FD
:1009F000944908708EE20BF080F90120FFF792FF16
:100A000001287CD100268F480078C0F3001008B37D
:100A100000208D4908808B48007820F0100089491B
:100A20000870B8F1000F19DDA8F1010000F0FF080F
:100A3000B8F1000F0FDD03208449087000204870D2
:100A40004D2088703120C870084680F8048000204E
:100A500008F002FD02E000207D4908707948007826
:100A600010F0010FC6D07748007820F001007549DA
:100A70000870012007F0B9F80AA921F8150031F82B
:100A800015000BF06BFB834649460BF0E9F98146F4
:100A9000022007F0AAF805A921F8150031F8150081
:100AA0000BF05CFB834651460BF0DAF98246681C7A
:100AB000C5B20A2D9EDB781C87B2664948460BF00A
:100AC0005DFA814648460BF07BFB0022624BCDE984
:100AD00000010BF093FACDE902010BF084FB814693
:100AE0005C4948460BF014FA264903900BF010FAC3
:100AF00083465A490BF042FA8146484600E01BE122
:100B00000BF05EFB0022544BCDE900010BF076FAAE
:100B1000CDE902010BF067FB8146514800880BF0DC
:100B20001DFB834649460BF07BFB0FD24C480088E7
:100B30000BF014FB494603900BF0E7F983460BF0EA
:100B400012FB80B20490012004998BE08FE000003A
:100B5000C40000200D0A4572726F723A5468652015
:100B60004144206368616E6E656C20697320666124
:100B70006C736521212146756E5F5A65726F0D0A8F
:100B80000000000000007A44C8050020D9050020BC
:100B9000EA050020FB0500200C0600201D060020B1
:100BA0002E0600203F0600200D0A4572726F723A31
:100BB000546865204144206368616E6E656C20490D
:100BC000442069732066616C73652121214164436F
:100BD0006F6E76657256616C75650D0A00000000D7
:100BE0000D0A4572726F723A5468652050617261E5
:100BF0006D657465725F4E422069732066616C7327
:100C0000652121214164436F6E76657256616C7572
:100C1000650D0A000C0123421001234214012342F6
:100C20002801244234012242380122425E00002081
:100C3000D0000020D2000020DE000020E0000020D4
:100C400050060020B2000020C8000020E84200202A
:100C5000B1000020000020410000E03F00FF7F477E
:100C6000B6000020FFF787FDFD49088002E0002064
:100C7000FB490880FA480088FA4921F81400FA492B
:100C800050460BF07BF9824650460BF099FA002251
:100C9000F64BCDE900010BF0B1F9CDE902010BF003
:100CA000A2FA8246F04950460BF032F9F04903901F
:100CB0000BF02EF98346EF490BF060F9824650465F
:100CC0000BF07EFA0022E94BCDE900010BF096F91A
:100CD000CDE902010BF087FA8246E74800880BF065
:100CE0003DFA834651460BF09BFA13D2E248008846
:100CF0000BF034FA514603900BF007F983460BF0E2
:100D000032FA80B2049002200499FFF734FDDB49E7
:100D1000088002E00020D9490880D8480088D849D6
:100D200021F81400601C84B2B4F5967F00DB002427
:100D30000025A946AA46EDE0D248007810F0010F40
:100D400072D0D048007820F00100CE490870012010
:100D500006F04BFF0AA921F8160031F816000BF037
:100D6000FDF9834649460BF07BF88146022006F0E8
:100D70003CFF05A921F8160031F816000BF0EEF93A
:100D8000834651460BF06CF88246701CC6B20A2EA0
:100D90004ADBB54948460BF0F1F8814648460BF06E
:100DA0000FFA0022B14BCDE900010BF027F9CDE994
:100DB00002010BF018FA8146AB4948460BF0A8F83F
:100DC000AB4903900BF0A4F88346AA490BF0D6F880
:100DD000814648460BF0F4F90022A44BCDE900010E
:100DE0000BF00CF9CDE902010BF0FDF98146A648A4
:100DF00000880BF0B3F9834649460BF011FA14D280
:100E0000A14800880BF0AAF9494603900BF07DF841
:100E100083460BF0A8F980B2049001200499FFF7F3
:100E2000AAFC8F49088003E053E000208C49088029
:100E30008D4950460BF0A2F8824650460BF0C0F99F
:100E400000228A4BCDE900010BF0D8F8CDE9020170
:100E50000BF0C9F98246844950460BF059F8844991
:100E600003900BF055F8834682490BF087F88246D1
:100E700050460BF0A5F900227C4BCDE900010BF0A8
:100E8000BDF8CDE902010BF0AEF982467A48008840
:100E90000BF064F9834651460BF0C2F913D2764841
:100EA00000880BF05BF9514603900BF02EF8834657
:100EB0000BF059F980B2049002200499FFF75BFC13
:100EC0006E49088002E000206C4908800026B14687
:100ED000B2466C480078C0F3C00048B16948007859
:100EE00020F00800674908706849002008F0B4FA4B
:100EF00067488078401C00F0FF08002065490880A2
:100F00006048007820F0100010305E49087000251D
:100F1000002400276048007802283FF46CAD394671
:100F20005EA00BF091FAB7F5967F01DB4FF4967750
:100F30004FF00009CA46042415E04A4931F814006C
:100F40000BF00CF9834649460AF08AFF81464C496A
:100F500031F814000BF002F9834651460AF080FF85
:100F60008246601C84B2BC42E7DB381F0BF0EDF810
:100F70000146039048460BF001F883460BF0F3F866
:100F800048490880381F0BF0E0F8014603905046AE
:100F90000AF0F4FF83460BF0E6F843490880084660
:100FA00002884048018841A00BF04EFA43490020D6
:100FB00008F052FA0020384908700FB0BDE8F08FF1
:100FC00070B50246012319E0002012E032F81050FB
:100FD00002EB40067688B54209DD32F8104002EB9C
:100FE00040056D8822F8105002EB40056C80451CCE
:100FF000A8B2CD1A8542E9DC5D1CABB24D1E9D4204
:10100000E2DC70BD2DE9F04F95B001201490142161
:101010000EA80AF01AFF142109A80AF016FF0025ED
:10102000AA4600270020069080460590049007906D
:101030008346002408E00020214921F814002149BA
:1010400021F81400601CC4B2062CF4DB00201390BD
:1010500031201D490871002008F0FEF900E200006F
:10106000D000002018010020000020410000E03FD7
:1010700000007A4400FF7F47B8000020D200002023
:1010800070030020B2000020B6000020990000206C
:1010900050060020C8000020B10000200D0A257570
:1010A0000D0A0000DE000020E00000200D0A4C3D8B
:1010B00025752C523D25750D0A0000008900002081
:1010C00064060020700600206200002039E10AF06A
:1010D00014FEFC48007810F0010FF7D0F9480078B2
:1010E00020F00100F7490870012006F07EFD0EA9EE
:1010F00021F8150031F815000BF030F80390059930
:101100000AF0AEFE0590022006F06FFD09A921F855
:10111000150031F815000BF021F8039004990AF03E
:101120009FFE0490681CC5B20A2DCFDBE6490598E6
:101130000AF024FF059005980BF042F80022E34BDB
:10114000CDE900010AF05AFFCDE902010BF04BF89E
:101150000590DD4905980AF0DBFEDD4902900AF0B2
:10116000D7FEDC4903900AF009FF059005980BF0C3
:1011700027F80022D54BCDE900010AF03FFFCDE969
:1011800002010BF030F80590D34800880AF0E6FF22
:10119000039005990BF044F813D2CF4800880AF069
:1011A000DDFF029005990AF0B0FE03900AF0DBFF24
:1011B00080B2089001200899FFF7DDFAC74908803E
:1011C00002E00020C5490880C4480088C44921F8CD
:1011D0001A00BD4904980AF0D1FE049004980AF060
:1011E000EFFF0022B94BCDE900010AF007FFCDE97E
:1011F00002010AF0F8FF0490B34904980AF088FE4F
:10120000B34902900AF084FEB24903900AF0B6FE98
:10121000049004980AF0D4FF0022AC4BCDE9000101
:101220000AF0ECFECDE902010AF0DDFF0490AD48C2
:1012300000880AF093FF039004990AF0F1FF13D29B
:10124000A84800880AF08AFF029004990AF05DFE1F
:1012500003900AF088FF80B2089002200899FFF7F7
:101260008AFAA149088002E000209F4908809E4830
:1012700000889E4921F81A009849098807988842F1
:1012800007DA9648008807900020994908600320F3
:10129000069095480088834507DA9348B0F800B077
:1012A000002093490860032006900798584432288C
:1012B0002DDD069890B10521079890FBF1F0874944
:1012C0000988884206DC05209BFBF0F086490988E6
:1012D00088421CDD00200790834618E07F48008884
:1012E000814909880844142801DA002014901398D1
:1012F000012807D17E480068B0F57A6F07D9002031
:10130000149004E000207A490860012013900698A8
:10131000401EC0B206900698052801DD0020069008
:101320000AF101001FFA80FABAF1640F01DB4FF0F5
:10133000000A642F01DA781C87B20025002005908E
:101340000490149801283FF4C2AE39466448FFF770
:1013500037FE39466548FFF733FE07EB470040008C
:101360000A2190FBF1F0C4B207EBC70090FBF1F04B
:1013700000F0FF094C4503D100200790834634E07C
:1013800000200590049026460DE0554931F81600DE
:101390000AF0E4FE0590554931F816000AF0DEFE29
:1013A0000490701CC6B24E45EFDBA9EB0400C6B238
:1013B00030460AF0D3FE0146029005980AF0DEFDA1
:1013C00003900AF0D0FE80B2079030460AF0C6FEC5
:1013D0000146029004980AF0D1FD03900AF0C3FE82
:1013E0001FFA80FB0020059004904249079821F8DD
:1013F0001800414820F818B008F1010000F0FF087B
:101400003E480078804510DA08F131003C49087107
:10141000002008F021F80120149000200790834656
:1014200003200690002013901AE00020149000245E
:101430000BE0314830F814302E4830F814202146A3
:1014400030A00BF001F8601CC4B22C480078844234
:10145000EFDB3149002007F0FFFF00202F49087023
:101460002E48007803283FF431AE15B0BDE8F08F68
:101470002DE9F04F8FB014210AA80AF0E6FC1421E0
:1014800005A80AF0E2FC0025002600240027A1465A
:10149000A24600BF2249002007F0DEFF00200F49CE
:1014A0000880114908801F4908801F488078401C27
:1014B00000F0FF080348007820F0100010300149C8
:1014C000087037E2B2000020000020410000E03F39
:1014D00000007A4400FF7F47B6000020D0000020C3
:1014E00018010020B8000020D20000207003002066
:1014F000CC0000206406002070060020DC000020E4
:10150000620000200D0A2575204C3D25752C523DAA
:1015100025750D0A0000000089000020B1000020A0
:1015200071000020E2000020500600200AF0E5FBD8
:101530000120FFF7F7F901287ED10026FE48007848
:10154000C0F3001008B30020FC490880FA48007876
:1015500020F01000F8490870B8F1000F19DDA8F16B
:10156000010000F0FF08B8F1000F0FDD0320F4497F
:101570000870002048704D2088703120C8700846DF
:1015800080F80480002007F067FF02E00020ED49AA
:101590000870E948007810F0010F92D0E648007812
:1015A00020F00100E4490870012006F01EFB0AA9A2
:1015B00021F8150031F815000AF0D0FD83464946A0
:1015C0000AF04EFC8146022006F00FFB05A921F827
:1015D000150031F815000AF0C1FD834651460AF0A6
:1015E0003FFC8246681CC5B20A2D7CDB781C87B2A2
:1015F000D54948460AF0C2FC814648460AF0E0FD5B
:101600000022D24BCDE900010AF0F8FCCDE902013D
:101610000AF0E9FD8146CC4948460AF079FCCC49FC
:1016200003900AF075FC8346CA490AF0A7FC81467C
:1016300048460AF0C5FD00E08EE00022C34BCDE92C
:1016400000010AF0DBFCCDE902010AF0CCFD814685
:10165000C14800880AF082FD834649460AF0E0FD51
:1016600013D2BD4800880AF079FD494603900AF07C
:101670004CFC83460AF077FD80B204900120049967
:10168000FFF779F8B549088002E00020B3490880E7
:10169000B2480088B24921F81400AB4950460AF01C
:1016A0006DFC824650460AF08BFD0022A74BCDE927
:1016B00000010AF0A3FCCDE902010AF094FD824684
:1016C000A14950460AF024FCA14903900AF020FCED
:1016D0008346A0490AF052FC824650460AF070FD4B
:1016E00000229A4B00E025E1CDE900010AF086FCDA
:1016F000CDE902010AF077FD82469A4800880AF097
:101700002DFD834651460AF08BFD13D29548008883
:101710000AF024FD514603900AF0F7FB83460AF0D5
:1017200022FD80B2049002200499FFF724F88E492C
:10173000088002E000208C4908808B4800888B4993
:1017400021F81400601C84B2B4F5967F00DB0024FD
:101750000025A946AA46EDE07748007810F0010F71
:1017600072D07548007820F001007349087001209C
:1017700006F03BFA0AA921F8160031F816000AF023
:10178000EDFC834649460AF06BFB8146022006F0D9
:101790002CFA05A921F8160031F816000AF0DEFC33
:1017A000834651460AF05CFB8246701CC6B20A2E84
:1017B0004ADB654948460AF0E1FB814648460AF0A3
:1017C000FFFC0022614BCDE900010AF017FCCDE9D6
:1017D00002010AF008FD81465B4948460AF098FB81
:1017E0005B4903900AF094FB83465A490AF0C6FB12
:1017F000814648460AF0E4FC0022544BCDE9000142
:101800000AF0FCFBCDE902010AF0EDFC81465248EA
:1018100000880AF0A3FC834649460AF001FD14D271
:101820004D4800880AF09AFC494603900AF06DFB87
:1018300083460AF098FC80B2049001200499FEF7D8
:101840009AFF4649088003E053E00020434908809E
:101850003D4950460AF092FB824650460AF0B0FCE1
:1018600000223A4BCDE900010AF0C8FBCDE90201A4
:101870000AF0B9FC8246344950460AF049FB344923
:1018800003900AF045FB834632490AF077FB824613
:1018900050460AF095FC00222C4BCDE900010AF0DD
:1018A000ADFBCDE902010AF09EFC82462D4800887E
:1018B0000AF054FC834651460AF0B2FC13D2294880
:1018C00000880AF04BFC514603900AF01EFB834649
:1018D0000AF049FC80B2049002200499FEF74BFF05
:1018E0002149088002E000201F4908800026B146F7
:1018F000B24611480078C0F3C00048B10E480078E5
:1019000020F008000C4908701949002007F0A4FDD8
:1019100018488078401C00F0FF0800200749088024
:101920000548007820F010001030034908700025A9
:101930000024002703481FE0B2000020C800002058
:10194000E8420020B1000020000020410000E03FFC
:1019500000007A4400FF7F47B6000020D00000203E
:1019600018010020B8000020D200002070030020E1
:101970009900002050060020007804283FF4D6ADDE
:101980003946AFF6E8000AF05FFDB7F5967F01DB58
:101990004FF496774FF00009CA46042415E0FE493B
:1019A00031F814000AF0DAFB834649460AF058FA87
:1019B0008146FA4931F814000AF0D0FB83465146BB
:1019C0000AF04EFA8246601C84B2BC42E7DB381F44
:1019D0000AF0BBFB0146039048460AF0CFFA834663
:1019E0000AF0C1FBEE49088008460188EDA00AF024
:1019F0002BFDF349002007F02FFD0020F14908706E
:101A00000FB0BDE8F08F2DE9F04F8BB0142105A881
:101A10000AF01BFA0027BA4600240025A34600BF9F
:101A2000E949002007F018FD0020E8490880E8494E
:101A30000880E8488078401C00F0FF08E6480078FD
:101A400020F010001030E449087044E10AF055F924
:101A50000220FEF767FF01287DD14FF0000ADE4823
:101A60000078C0F3001008B30020DC490880DA4891
:101A7000007820F01000D8490870B8F1000F19DD87
:101A8000A8F1010000F0FF08B8F1000F0FDD0320FE
:101A9000D3490870002048704D2088703120C870EC
:101AA000084680F80480002007F0D6FC02E0002001
:101AB000C4490870C848007810F0010FC5D0C64866
:101AC000007820F00100C4490870052006F08DF868
:101AD00005A921F8170031F817000AF03FFB594615
:101AE00003900AF0BDF98346781CC7B20A2FACDB1D
:101AF000681C85B2BB4958460AF040FA83465846EE
:101B00000AF05EFB0022B84BCDE900010AF076FA3C
:101B1000CDE902010AF067FB8346B24958460AF054
:101B2000F7F9B24902900AF0F3F9B14903900AF0CB
:101B300025FA834658460AF043FB0022AA4BCDE91A
:101B400000010AF05BFACDE902010AF04CFB834682
:101B5000A848008800E02BE00AF000FB59460390FB
:101B60000AF05EFB13D2A34800880AF0F7FA594640
:101B700002900AF0CAF903900AF0F5FA80B20490D4
:101B800005200499FEF7F7FD9049088002E0002047
:101B90008E4908808D4800887F4921F81400601C18
:101BA00084B2B4F5967F00DB00240027BB4692E0A8
:101BB0008948007810F0010F6CD08748007820F039
:101BC000010085490870052006F00FF805A921F8E5
:101BD0001A0031F817000AF0C1FA594603900AF0CA
:101BE0003FF983460AF1010000F0FF0ABAF10A0F3B
:101BF00050DB7C4958460AF0C1F9834658460AF042
:101C0000DFFA0022784BCDE900010AF0F7F9CDE9BF
:101C100002010AF0E8FA8346724958460AF078F958
:101C2000724902900AF074F9714903900AF0A6F91A
:101C3000834658460AF0C4FA00226B4BCDE90001F6
:101C40000AF0DCF9CDE902010AF0CDFA83466948D1
:101C500000880AF083FA594603900AF0E1FA13D299
:101C6000644800880AF07AFA594602900AF04DF961
:101C700003900AF078FA80B2049005200499FEF7E8
:101C80007AFD5249088002E00020504908804FF058
:101C9000000AD34650480078C0F3C00048B14E480F
:101CA000007820F008004C4908705349002007F0E4
:101CB000D3FB48488078401C00F0FF0800204749CB
:101CC00008804548007820F0100010304249087024
:101CD0000027002400253B48007805283FF4B6AED5
:101CE0002946AFF648400AF0AFFBB5F5967F01DB19
:101CF0004FF4967529462848FFF762F9002407E05B
:101D0000254830F814103DA00AF09EFB601C84B2F8
:101D1000AC42F5DB4FF0000BB5F58C7F19DD3224BA
:101D20000BE01D4931F814000AF018FA59460390E7
:101D30000AF096F88346601C84B2FA2CF1DB344931
:101D400058460AF01BF903900AF00DFA2049088062
:101D50001EE014240BE0104931F814000AF0FEF9DB
:101D6000594603900AF07CF88346601C84B2A5F1C2
:101D70001400A042EFDC14380AF0E7F901460290A3
:101D800058460AF0FBF803900AF0EDF91049088074
:101D90001048007A02283DE018010020700300205E
:101DA000E20000200D0A4D6F746F725F537461740E
:101DB00069635765696768743D25750D0A00000001
:101DC00089000020B100002067000020D40000201E
:101DD000E400002050060020B2000020C8000020CF
:101DE000E8420020000020410000E03F00007A446B
:101DF00000FF7F47BE000020990000200D0A414CE3
:101E00004C5765696768743D25750D0A0000000030
:101E10000000484318D1FE49088800EBD0714E10ED
:101E2000FB49088800EBD0714910A0EB410101F09B
:101E3000FF09B9F1000F26DD701C4FF6FF7101EAB2
:101E40004000F34908801EE0F248007A05281AD1C4
:101E5000EF480088052190FBF1F086B2EC4800883D
:101E600090FBF1F201FB120000F0FF09B9F1030F42
:101E700004DA06EB8600E649088004E0701C00EBFB
:101E80008000E3490880E2480188E3A00AF0DCFA18
:101E9000E849002007F0E0FA0020E74908700BB09D
:101EA000BDE8F08FF0B587B000244FF07E57E34DCA
:101EB000E34EE448C0F80140E348E249C1F80500B8
:101EC0000846C0F80950C0F80D60012008701520C0
:101ED00006F0ACF911221521DA4806F01CFB162099
:101EE00006F0A4F911221621D64806F014FB17209B
:101EF00006F09CF911221721D24806F00CFBD348BA
:101F0000D049C1F80500182006F090F911221821D7
:101F1000CC4806F000FBCE48CA49C1F8050019209C
:101F200006F084F911221921C64806F0F4FA1122AC
:101F3000152101A806F0FCFA112201A9C14809F0F7
:101F40006BFF1122162101A806F0F2FA112201A955
:101F5000C04809F061FF1122172101A806F0E8FA34
:101F6000112201A9BC4809F057FF1122182101A82C
:101F700006F0DEFA112201A9B84809F04DFF11223E
:101F8000192101A806F0D4FA112201A9B44809F0D8
:101F900043FF11221A2101A806F0CAFA112201A951
:101FA000B04809F039FF11221B2101A806F0C0FA40
:101FB000112201A9AC4809F02FFF11221C2101A810
:101FC00006F0B6FA112201A9A84809F025FF04225B
:101FD000002101A806F0ACFA9DF8070030388D49C1
:101FE000887008468078032803DB08468078092833
:101FF00002DD0320874988700422012101A806F030
:1020000097FA9DF8070030388249C8700846C078B2
:10201000012801DD0120C8700422022101A806F078
:1020200087FA9DF8070030387A4908710846007928
:10203000012801DD012008710422032101A806F016
:1020400077FA9DF8070030387249487108464079A0
:10205000022803DB08464079092802DD03206D4988
:1020600048710422114601A806F062FA9DF80700A3
:1020700030386849887108468079022803DB0846B1
:102080008079092802DD0520624988710422052132
:1020900001A806F04DFA9DF8070030385D49C87177
:1020A0000846C079022803DB0846C079092802DD0A
:1020B00008205849C8710422062101A806F038FA00
:1020C0009DF807003038534908720846007A012805
:1020D00009D00846007A022805D00846007A05286B
:1020E00001D0012008720422072101A806F020FA7D
:1020F0000020484948729DF80600302807DD9DF809
:102100000600303800EB80004006000E487241485F
:10211000417A9DF80700303808443E494872084625
:10212000407A1E2801DD002048720422082101A8FF
:1021300006F0FEF90020374988729DF80600302825
:1021400007DD9DF80600303800EB80004006000EE9
:1021500088723048817A9DF80700303808442D494C
:1021600088720846807A1E2801DD002088720422C9
:10217000092101A806F0DCF900202649C8729DF863
:102180000600302807DD9DF80600303800EB80009F
:102190004006000EC8721F48C17A9DF8070030380B
:1021A00008441C49C8720846C07A1E2801DD002078
:1021B000C87204220A2101A806F0BAF900201549C4
:1021C00008739DF80600302807DD9DF806003038BA
:1021D00000EB80004006000E08730E48017B9DF85E
:1021E0000700303808440B4908730846007B1E2856
:1021F00001DD0020087304220B2101A806F098F9E4
:1022000000200449A1F80D009DF8040030282FE0BB
:10221000E4000020500600200D0A416C6C4E6F6EE9
:10222000655F5374617469635765696768743D25B8
:10223000750D0A0089000020B1000020F6285C40DE
:102240007B148E40C8050020AB91BA3F7D32CE3F53
:10225000680BC53FD9050020EA050020FB050020DA
:102260000C0600201D0600202E0600203F06002040
:1022700010DD9DF8040032280CDA9DF80600303895
:1022800040F2712148434FF6FF7101EA0010FE4908
:10229000A1F80D009DF80500302812DD9DF805001D
:1022A0003A280EDAF848B0F80D109DF806003038DC
:1022B00000EB4002C2EBC01001EBC000F249A1F8F4
:1022C0000D009DF80600302812DD9DF806003A2822
:1022D0000EDAED48B0F80D109DF80600303800EB2E
:1022E000C00202EB001001EB8000E749A1F80D00ED
:1022F000E548B0F80D109DF80700303800EB80007D
:1023000001EB4000E049A1F80D0042F6EC40A1F8D5
:102310000D000846B0F80D0042F6EC41884203DD9E
:102320000846D949A1F80D0004220C2101A806F0A5
:10233000FFF89DF807003038D349C8730846C07BC2
:10234000032801DD0220C87304220B2101A806F036
:10235000EFF80020CC4908829DF80500302810DDF8
:102360009DF805003A280CDA0846018A9DF8060017
:10237000303800EBC00202EB001001EB8000C249D4
:1023800008829DF8060030280EDD9DF806003A28E8
:102390000ADABD48018A9DF80600303800EB80005B
:1023A00001EB4000B8490882B748B0F80D109DF81D
:1023B000070030380844B449A1F80D000846008AE7
:1023C000B0F5617F02DD4FF46170088204220E21B6
:1023D00001A806F0ADF80020AB4988749DF806000E
:1023E00030280EDD9DF806003A280ADA0846817C7E
:1023F0009DF80600303800EB800001EB4000A24958
:102400008874A148817C9DF80700303808449E49B3
:1024100088740846807C142803DB0846807C5A2890
:1024200002DD14209849887407B0F0BD00B5BFB034
:10243000142139A809F009FD142134A809F005FD7B
:1024400014212FA809F001FD14212AA809F0FDFC90
:10245000142125A809F0F9FC142120A809F0F5FCA5
:1024600014211BA809F0F1FC142116A809F0EDFCB9
:1024700000201590149013901290119010900F90CE
:102480000E90059001F04FB809F037FC7F480078B6
:1024900010F0010F01F02D807C48007820F0010041
:1024A0007A4908707848C07B30BB012005F09DFB5D
:1024B00039AA059922F8110039A9059831F81000B8
:1024C000029009F04BFE0390159909F0C9FC159094
:1024D000022005F08AFB34AA059922F8110034A9DC
:1024E000059831F81000029009F038FE0390149915
:1024F00009F0B6FC14907EE06348C07B012803D04D
:102500006148C07B02284CD1032005F06EFB2FAA46
:10251000059922F811002FA9059831F810000290B2
:1025200009F01CFE0390139909F09AFC1390042003
:1025300005F05BFB2AAA059922F811002AA9059843
:1025400031F81000029009F009FE0390129909F089
:1025500087FC1290052005F048FB25AA059922F872
:10256000110025A9059831F81000029009F0F6FD38
:102570000390119909F074FC1190062005F035FBC9
:1025800020AA059922F8110020A9059831F8100019
:10259000029009F0E3FD0390109909F061FC10909E
:1025A00029E03948C07B032825D1072005F01DFB11
:1025B0001BAA059922F811001BA9059831F81000F3
:1025C000029009F0CBFD03900F9909F049FC0F90A0
:1025D000082005F00AFB16AA059922F8110016A991
:1025E000059831F81000029009F0B8FD03900E999B
:1025F00009F036FC0E900598401CC0B20590059875
:102600000A28C0F276872048C07B00287ED1204966
:10261000159809F0B3FC1590159809F0D1FD00222A
:102620001C4BCDE9000109F0E9FCCDE9020109F0FC
:10263000DAFD15901649159809F06AFC16490290C2
:1026400009F066FC1549039009F098FC159015985F
:1026500009F0B6FD00220F4BCDE9000109F0CEFCD8
:10266000CDE9020109F0BFFD15900D48008809F081
:1026700075FD0390159909F0D3FD26D2084800880E
:1026800009F06CFD02900DE050060020B200002021
:10269000000020410000E03F00007A4400FF7F4737
:1026A000B6000020159909F030FC039009F05BFD9D
:1026B00080B2ADF82800BDF8280001460390012043
:1026C000FEF759F8ADF8180002E00020ADF8180048
:1026D000FE49149809F052FC1490149809F070FD0A
:1026E0000022FB4BCDE9000109F088FCCDE9020195
:1026F00009F079FD1490F549149809F009FCF549A1
:10270000029009F005FCF449039000E0B4E009F000
:1027100035FC1490149809F053FD0022EC4BCDE9E0
:10272000000109F06BFCCDE9020109F05CFD149099
:10273000EA48008809F012FD0390149909F070FD31
:1027400017D2E648008809F009FD0290159909F0B2
:10275000DCFB039009F007FD80B2ADF82A00BDF85C
:102760002A00014603900220FEF705F8ADF81A0092
:1027700002E00020ADF81A001320D94908700020AB
:102780004870432088700220C87001200871487189
:10279000D4480088C117039000EB11600112039820
:1027A000A0EB0120CE498871CE480088C117039064
:1027B00000EB1160000ACA49C871159809F0D3FCF2
:1027C000C7490872159809F0CEFC000AC44948723E
:1027D000BDF81800C117039000EB116001120398B7
:1027E000A0EB0120BE498872BDF81800C117039004
:1027F00000EB1160000ABA49C87202200873B7489A
:102800000088C117039000EB116001120398A0EB40
:102810000120B3494873B1480088C117039000EB09
:102820001160000AAE498873149809F09CFCAC4909
:10283000C873149809F097FC000AA9490874BDF8F8
:102840001A00C117039000EB116001120398A0EB6E
:102850000120A3494874BDF81A00C117039000EB8A
:102860001160000A9E4988740120C874FEF75AF866
:1028700030309B490875FDE39B48C07B012803D09D
:102880009948C07B02287DD19049139809F076FBC6
:102890001390139809F094FC00228D4BCDE90001B0
:1028A00009F0ACFBCDE9020109F09DFC13908749CA
:1028B000139809F02DFB8749029009F029FB8649FE
:1028C000039009F05BFB1390139809F079FC002248
:1028D0007F4BCDE9000109F091FBCDE9020109F040
:1028E00082FC13908148008809F038FC039013990A
:1028F00009F096FC17D27D48008809F02FFC029061
:10290000139909F002FB039009F02DFC80B2ADF899
:102910002C00BDF82C00014603900320FDF72BFF8F
:10292000ADF81C0002E00020ADF81C0067491298C9
:1029300009F024FB1290129809F042FC0022644B2B
:10294000CDE9000109F05AFBCDE9020109F04BFC89
:1029500012905E49129809F0DBFA5E49029009F084
:10296000D7FA5D49039009F009FB1290129809F01B
:1029700027FC0022564BCDE9000109F03FFBCDE9D1
:10298000020100E0F7E109F02EFC1290584800889F
:1029900009F0E4FB0390129909F042FC17D2544865
:1029A000008809F0DBFB0290129909F0AEFA03905F
:1029B00009F0D9FB80B2ADF82E00BDF82E0001461B
:1029C00003900420FDF7D7FEADF81E0002E00020C2
:1029D000ADF81E003D49119809F0D0FA11901198F8
:1029E00009F0EEFB00223A4BCDE9000109F006FBAD
:1029F000CDE9020109F0F7FB11903449119809F073
:102A000087FA3449029009F083FA3349039009F0B8
:102A1000B5FA1190119809F0D3FB00222C4BCDE9A7
:102A2000000109F0EBFACDE9020109F0DCFB11909D
:102A30003048008809F092FB0390119909F0F0FBEF
:102A400017D22C48008809F089FB0290119909F0EF
:102A50005CFA039009F087FB80B2ADF83000BDF856
:102A60003000014603900520FDF785FEADF82000FB
:102A700002E00020ADF820001449109809F07EFA19
:102A80001090109809F09CFB0022114BCDE9000139
:102A900009F0B4FACDE9020109F0A5FB10900B4949
:102AA000109809F035FA0B49029009F031FA0A49F9
:102AB000039009F063FA1090109809F081FB00224E
:102AC000034BCDE9000109F099FA15E0000020411F
:102AD0000000E03F00007A4400FF7F47B80000207C
:102AE000E8420020B600002050060020BA00002076
:102AF000BC000020BE000020CDE9020109F073FBFC
:102B00001090FE48008809F029FB0390109909F005
:102B100087FB17D2F948008809F020FB0290109932
:102B200009F0F3F9039009F01EFB80B2ADF8320012
:102B3000BDF83200014603900620FDF71CFEADF8FB
:102B4000220002E00020ADF822002920EC490870A4
:102B500000204870432088700420C8700520087148
:102B600003204871E7480088C117039000EB11600B
:102B700001120398A0EB0120E1498871E148008827
:102B8000C117039000EB1160000ADD49C87113986A
:102B900009F0E9FADA490872139809F0E4FA000A30
:102BA000D7494872BDF81C00C117039000EB1160B3
:102BB00001120398A0EB0120D1498872BDF81C00D6
:102BC000C117039000EB1160000ACD49C8720420C0
:102BD0000873CD480088C117039000EB1160011203
:102BE0000398A0EB0120C6494873C7480088C11765
:102BF000039000EB1160000AC1498873129809F034
:102C0000B2FABF49C873129809F0ADFA000ABC497C
:102C10000874BDF81E00C117039000EB116001128B
:102C20000398A0EB0120B6494874BDF81E00C117F7
:102C3000039000EB1160000AB14988740520C87444
:102C4000B2480088C117039000EB1160011203988D
:102C5000A0EB0120AA490875AC480088C117039071
:102C600000EB1160000AA6494875119809F07BFA3B
:102C7000A3498875119809F076FA000AA049C87529
:102C8000BDF82000C117039000EB116001120398FA
:102C9000A0EB01209A490876BDF82000C1170390E7
:102CA00000EB1160000A9649487606208876934822
:102CB0000088C117039000EB116001120398A0EB8C
:102CC00001208F49C8768D480088C117039000EB1A
:102CD0001160000A8A490877109809F044FA884977
:102CE0004877109809F03FFA000A85498877BDF8BF
:102CF0002200C117039000EB116001120398A0EBB2
:102D000001207F49C877BDF82200C117039000EB6E
:102D10001160000A7A4981F82000022081F8210020
:102D2000FDF700FE3030764981F82200032081F85B
:102D30002300FDF7F7FD3030714981F824000420AD
:102D400081F82500FDF7EEFD30306D4981F8260051
:102D5000052081F82700FDF7E5FD3030684981F84E
:102D60002800062081F82900FDF7DCFD3030644999
:102D700081F82A00B3E36648C07B0328FAD165498D
:102D8000139809F0FBF81390139809F019FA002230
:102D9000614BCDE9000109F031F9CDE9020109F0FB
:102DA00022FA13905B49139809F0B2F85B4902903C
:102DB00009F0AEF85A49039009F0E0F8139013981F
:102DC00009F0FEF90022544BCDE9000109F016F993
:102DD000CDE9020109F007FA13904A48008809F08A
:102DE000BDF90390139909F01BFA17D245480088E2
:102DF00009F0B4F90290139909F087F8039009F0EB
:102E0000B2F980B2ADF82C00BDF82C000146039059
:102E10000320FDF7B0FCADF81C0002E00020ADF887
:102E20001C003C49129809F0A9F81290129809F078
:102E3000C7F90022384BCDE9000109F0DFF8CDE9F0
:102E4000020109F0D0F912903249129809F060F8A5
:102E50003249029009F05CF83149039009F08EF88C
:102E60001290129809F0ACF900222B4BCDE9000129
:102E700009F0C4F8CDE9020109F0B5F91290224831
:102E8000008809F06BF90390129909F0C9F917D27B
:102E90001D48008809F062F90290129909F035F88E
:102EA000039009F060F980B2ADF82E00BDF82E0055
:102EB000014603900420FDF75EFCADF81E0002E021
:102EC0000020ADF81E001349119809F057F8119031
:102ED000119809F075F900220F4BCDE9000109F0B6
:102EE0008DF8CDE9020109F07EF911900949119898
:102EF00009F00EF80949029014E00000C00000201B
:102F0000E8420020BA000020BC000020BE000020E3
:102F100050060020000020410000E03F00007A44FD
:102F200000FF7F4708F0F4FFFE49039009F026F800
:102F30001190119809F044F90022FB4BCDE90001F2
:102F400009F05CF8CDE9020109F04DF91190F7485C
:102F5000008809F003F90390119909F061F917D27B
:102F6000F248008809F0FAF80290119908F0CDFFB4
:102F7000039009F0F8F880B2ADF83000BDF83000E9
:102F8000014603900520FDF7F6FBADF8200002E0B6
:102F90000020ADF82000E649109808F0EFFF1090EF
:102FA000109809F00DF90022DF4BCDE9000109F07E
:102FB00025F8CDE9020109F016F91090DC491098C6
:102FC00008F0A6FFDB49029008F0A2FFD549039064
:102FD00008F0D4FF1090109809F0F2F80022D24BBC
:102FE000CDE9000109F00AF8CDE9020109F0FBF88A
:102FF0001090D148008809F0B1F80390109909F0B9
:103000000FF917D2CC48008809F0A8F8029010995F
:1030100008F07BFF039009F0A6F880B2ADF832000B
:10302000BDF83200014603900620FDF7A4FBADF881
:10303000220002E00020ADF82200BD490F9808F000
:103040009DFF0F900F9809F0BBF80022B64BCDE919
:10305000000108F0D3FFCDE9020109F0C4F80F9098
:10306000B3490F9808F054FFB249029008F050FF9E
:10307000AC4900E033E2039008F080FF0F900F9816
:1030800009F09EF80022A84BCDE9000108F0B6FF38
:10309000CDE9020109F0A7F80F90A848008809F0CF
:1030A0005DF803900F9909F0BBF817D2A348008888
:1030B00009F054F802900F9908F027FF039009F0E7
:1030C00052F880B2ADF83400BDF8340001460390E8
:1030D0000720FDF750FBADF8240002E00020ADF81A
:1030E000240093490E9808F049FF0E900E9809F0BD
:1030F00067F800228C4BCDE9000108F07FFFCDE995
:10310000020109F070F80E9089490E9808F000FF4E
:103110008849029008F0FCFE8249039008F02EFFD7
:103120000E900E9809F04CF800227F4BCDE900017B
:1031300008F064FFCDE9020109F055F80E908048CF
:10314000008809F00BF803900E9909F069F817D27E
:103150007B48008809F002F802900E9908F0D5FE2D
:10316000039009F000F880B2ADF83600BDF83600E3
:10317000014603900820FDF7FEFAADF8260002E0B4
:103180000020ADF8260037206E49087000204870F6
:10319000432088700620C8700520087103204871FC
:1031A00069480088C117039000EB11600112039871
:1031B000A0EB01206349887163480088C117039020
:1031C00000EB1160000A5F49C871139808F0CBFF4B
:1031D0005C490872139808F0C6FF000A5949487202
:1031E000BDF81C00C117039000EB11600112039899
:1031F000A0EB0120C1B253488172BDF81C00C11779
:10320000039000EB1160000A4E49C8720420087355
:103210004E480088C117039000EB1160011203981B
:10322000A0EB01204749487348480088C117039024
:1032300000EB1160000A43498873129808F093FF6D
:103240004049C873129808F08EFF000A3D4908747F
:10325000BDF81E00C117039000EB11600112039826
:10326000A0EB012037494874BDF81E00C117039038
:1032700000EB1160000A334988740520C8742B489C
:103280000088C117039000EB116001120398A0EBB6
:1032900001202C49087525480088C117039000EBD0
:1032A0001160010A27484175119808F05CFF254913
:1032B0008875119808F057FF000A2249C875BDF8B3
:1032C0002000C117039000EB116001120398A0EBDE
:1032D00001201C490876BDF82000C117039000EBBF
:1032E0001160000A1749487606208876124800883F
:1032F000C117039000EB116001120398A0EB0120AD
:103300001049C8760C480088C117039000EB116083
:10331000000A0C490877109808F025FF09494877FA
:10332000109815E000FF7F470000E03FBE0000203E
:103330000000204100007A44C0000020C2000020AC
:10334000C4000020E8420020BA000020BC00002099
:1033500008F009FF000AFE498877BDF82200C1176E
:10336000039000EB116001120398A0EB0120F849D3
:10337000C877BDF82200C117039000EB1160010A65
:10338000F34880F820100720F14981F82100F14826
:103390000088C117039000EB116001120398A0EBA5
:1033A0000120EB4981F82200EA480088C117039008
:1033B00000EB1160000AE64981F823000F9808F03D
:1033C000D2FEE34981F824000F9808F0CCFE000AF1
:1033D000DF4981F82500BDF82400C117039000EBF8
:1033E000116001120398A0EB0120D94981F8260051
:1033F000BDF82400C117039000EB1160010AD44806
:1034000080F827100820D24981F82800D248008887
:10341000C117039000EB116001120398A0EB01208B
:10342000CB4981F82900CC480088C117039000EBF4
:103430001160000AC64981F82A000E9808F093FE30
:10344000C34981F82B000E9808F08DFE000AC04990
:1034500081F82C00BDF82600C117039000EB116025
:1034600001120398A0EB0120B94981F82D00BDF8A5
:103470002600C117039000EB1160010AB44880F8E0
:103480002E100220B24981F82F00FDF74BFA3030A0
:10349000AF4981F83000032081F83100FDF742FA8E
:1034A0003030AB4981F83200042081F83300FDF759
:1034B00039FA3030A64981F83400052081F835000A
:1034C000FDF730FA3030A24981F83600062081F845
:1034D0003700FDF727FA30309D4981F83800002089
:1034E00005901590149013901290119010900F90D9
:1034F0000E909A480078C0F38000A0B197480078F9
:1035000020F00400954908700498401CC0B2049053
:10351000934909780498884205DB8D49002005F01D
:103520009BFF002004908F48007807283EF4ACAF42
:103530003FB000BD2DE9F04F8DB0142108A808F070
:1035400084FC142103A808F080FC4FF0000AD34645
:103550000024002500268449002005F07DFF8348D3
:103560000088C82806DAC8208049088080490020E1
:1035700005F072FF7F480088C82806DAC8207D4918
:1035800008807B49002005F067FF78490988794A5F
:103590001288114401EB410000EBD071C1F34F01DF
:1035A000754A11801046B0F80090B9F5FA6F01DA4B
:1035B0004FF4FA690320FCF7E6FF0420FCF7E3FF71
:1035C00015E000206D4908806D49088008F095FBE2
:1035D00062480078C0F3C00048B16048007820F02D
:1035E00008005E4908706749002005F035FF022099
:1035F000FDF798F90028E4D000206349086063498A
:10360000C1F8A0016249086013E108F076FB534855
:10361000007810F0010FF7D05048007820F001003A
:103620004E490870032004F0E0FA08A921F81400BC
:1036300031F8140008F092FD0746514608F010FCDE
:103640008246042004F0D1FA03A921F8140031F8CD
:10365000140008F083FD0746594608F001FC834634
:10366000601CC4B20A2CCFDB4A49504608F086FCE5
:103670008246504608F0A4FD0022474BCDE90001E8
:1036800008F0BCFC074608F0AEFD824641495046B2
:1036900008F03EFC8046414908F03AFC07464049A4
:1036A00008F06CFC8246504608F08AFD00223A4B36
:1036B000CDE9000108F0A2FC074608F094FD82461F
:1036C0003848008808F04AFD0746514608F0A8FD32
:1036D00013D23448008808F041FD8046514608F076
:1036E00014FC074608F03FFD80B2029003200299C7
:1036F000FDF741F82149088002E000201F490880B9
:103700002449584608F03AFC8346584608F058FDCC
:103710000022214BCDE9000108F070FC074608F0BB
:1037200062FD83461B49584608F0F2FB80461B4960
:1037300008F0EEFB07461A4908F020FC834658467D
:1037400008F03EFD0022144BCDE900012CE0000002
:10375000E8420020C2000020C4000020B200002087
:10376000C6000020B100002079000020DE0000200B
:10377000A5000020E0000020E8000020D800002084
:10378000DA00002099000020A0012142000022421E
:10379000CC000020000020410000E03F00007A44FF
:1037A00000FF7F47BA00002008F028FC074608F019
:1037B0001AFD8346FE48008808F0D0FC07465946AB
:1037C00008F02EFD13D2FA48008808F0C7FC8046A6
:1037D000594608F09AFB074608F0C5FC80B20290F3
:1037E00004200299FCF7C7FFF249088002E000209C
:1037F000F04908800024A246A346EF4800884845C7
:1038000016DD681CC5B2032D13DB0020EB490870E0
:103810000120EB490860EB49C1F8A001EA490860C2
:10382000EA494FF0000005F017FE0DB0BDE8F08F3B
:103830000025E7480068B0F57A7FFFF4E6AE002087
:10384000E4490860044682468346E149086005E190
:1038500008F053FAE048007810F0010FF7D0DE4886
:10386000007820F00100DC490870032004F0BDF965
:1038700008A921F8140031F8140008F06FFC07467D
:10388000514608F0EDFA8246042004F0AEF903A98F
:1038900021F8140031F8140008F060FC074659467E
:1038A00008F0DEFA8346601CC4B20A2CCFDBCB4999
:1038B000504608F063FB8246504608F081FC002227
:1038C000C74BCDE9000108F099FB074608F08BFCD7
:1038D0008246C249504608F01BFB8046C14908F0A9
:1038E00017FB0746C04908F049FB8246504608F0DE
:1038F00067FC0022BA4BCDE9000108F07FFB0746C8
:1039000008F071FC8246B948008808F027FC074699
:10391000514608F085FC13D2B448008808F01EFC1C
:103920008046514608F0F1FA074608F01CFC80B2C8
:10393000029003200299FCF71EFF9F49088002E0D5
:1039400000209D490880A549584608F017FB83468A
:10395000584608F035FC0022A14BCDE9000108F0E3
:103960004DFB074608F03FFC83469C49584608F04B
:10397000CFFA80469B4908F0CBFA07469A4908F0EF
:10398000FDFA8346584608F01BFC0022944BCDE913
:10399000000108F033FB074608F025FC8346844805
:1039A000008808F0DBFB0746594608F039FC13D2C3
:1039B0007F48008808F0D2FB8046594608F0A5FAF7
:1039C000074608F0D0FB80B2029004200299FCF771
:1039D000D2FE7849088002E0002076490880002461
:1039E000A246A3467448008881490988884217DDA9
:1039F000681CC5B2032D14DB00207049087001203B
:103A00006F4908606F49C1F8A001724908606D49AB
:103A1000C1F89C016D494FF0000005F01DFD04E761
:103A2000002564480088484517DD701CC6B2032E87
:103A300014DB002061490870012061490860614978
:103A4000C1F8A001634908605E49C1F89C01694959
:103A50004FF0000005F000FDE7E600265C48006836
:103A6000B0F57A7FFFF4F4AE0020574908600446B1
:103A700082468346564908602CE108F03EF95648D4
:103A8000007810F0010FF7D05348007820F00100C3
:103A900051490870032004F0A8F808A921F814007F
:103AA00031F8140008F05AFB0746514608F0D8F9DF
:103AB0008246042004F099F803A921F8140031F893
:103AC000140008F04BFB0746594608F0C9F9834635
:103AD000601CC4B20A2CCFDB4049504608F04EFAB5
:103AE0008246504608F06CFB00223D4BCDE90001B8
:103AF00008F084FA074608F076FB824637495046BC
:103B000008F006FA8046374908F002FA07463649B7
:103B100008F034FA8246504608F052FB0022304B3F
:103B2000CDE9000108F06AFA074608F05CFB82461E
:103B30002E48008808F012FB0746514608F070FB3B
:103B400013D22A48008808F009FB8046514608F045
:103B5000DCF9074608F007FB80B2029003200299C7
:103B6000FCF709FE1449088002E000201249088091
:103B70001A49584608F002FA8346584608F020FBD6
:103B80000022174BCDE9000108F038FA074608F08B
:103B90002AFB83461149584608F0BAF98046114974
:103BA00008F0B6F90746104908F0E8F9834623E023
:103BB000BC000020DA000020D8000020B100002066
:103BC000A0012142000022429C0122428D000020DF
:103BD000CC000020A4012242B200002000002041BD
:103BE0000000E03F00007A4400FF7F47BA00002059
:103BF000E800002091000020584608F0E1FA07464E
:103C00000022FE4B08F0FAF9CDE9000108F0EBFACA
:103C10008346FB48008808F0A1FA0746594608F099
:103C2000FFFA13D2F648008808F098FA8046594601
:103C300008F06BF9074608F096FA80B2029004206B
:103C40000299FCF798FDEF49088002E00020ED4959
:103C500008800024A246A346EB480088EB49098867
:103C6000884217DD681CC5B2032D14DB0020E8492B
:103C700008700120E7490860E749C1F8A001E74959
:103C80000860E549C1F89C01E5494FF0000005F0E6
:103C9000E3FBCAE50025DB480088DC490988884247
:103CA00017DD701CC6B2032E14DB0020D849087043
:103CB0000120D8490860D849C1F8A001D749086057
:103CC000D549C1F89C01D7494FF0000005F0C4FB6D
:103CD000ABE50026D4480068B0F57A7FFFF4CDAE9E
:103CE0000120CC4908604FF00000C94908704FF02E
:103CF0000100CE494870CE494FF0000005F0ACFB02
:103D000000BF92E52DE9F04FA3B014211EA808F0E2
:103D10009CF8142119A808F098F8142114A808F0A8
:103D200094F814210FA808F090F814210AA808F0BC
:103D30008CF8002500260027A846A9460024A246A4
:103D4000A3460020069007900590049022E307F018
:103D5000D4FFB648C07B002877D1B648007810F071
:103D6000010FF3D0B348007820F00100B14908708A
:103D7000012003F03AFF1EA921F8140031F81400C5
:103D800008F0ECF92946039008F06AF8054602208D
:103D900003F02BFF19A921F8140031F8140008F0E2
:103DA000DDF93146039008F05BF80646601CC4B2AA
:103DB0000A2CCBDBA049284608F0E0F80546284647
:103DC00008F0FEF900228D4BCDE9000108F016F94C
:103DD000CDE9020108F007FA05469749284608F0A0
:103DE00097F89649029008F093F89549039008F0E7
:103DF000C5F80546284608F0E3F900227F4BCDE9D7
:103E0000000108F0FBF8CDE9020108F0ECF90546E5
:103E10008C48008808F0A2F92946039008F000FABF
:103E200014D28848008808F099F92946029008F0D1
:103E30006CF8039008F097F980B209900120099975
:103E4000FCF799FC8049088010E071E000207E4971
:103E500008807C48008808F081F92946029008F023
:103E600051F8039008F07FF980B20890724930460B
:103E700008F084F80646304608F0A2F900225F4BAD
:103E8000CDE9000108F0BAF8CDE9020108F0ABF97C
:103E900006466949304608F03BF86849029008F048
:103EA00037F86749039008F069F80646304608F08D
:103EB00087F90022514BCDE9000108F09FF8CDE9C8
:103EC000020108F090F906466048008808F046F9BB
:103ED0003146039008F0A4F913D25C48008808F03A
:103EE0003DF93146029008F010F8039008F03BF9D4
:103EF00080B2099002200999FCF73DFC54490880E2
:103F00000FE00020524908805048008808F026F948
:103F10003146029007F0F6FF039008F024F980B2D2
:103F200008900024002500260027A046A14631E283
:103F30003E484078012836D13C48C078012832D12B
:103F40000520FCF7EFFC01280DD1BAF1000F0AD1D2
:103F500082464049086040494FF0000005F07CFA75
:103F60003EA008F071FA0620FCF7DCFC01280DD118
:103F7000BBF1000F0AD183462849086040494FF041
:103F8000000005F069FA3FA008F05EFABAF1010FEF
:103F900009D1BBF1010F06D10120434908604FF060
:103FA0000000224948702348007810F0010FBED06D
:103FB0002048007820F001001E490870032003F01B
:103FC00014FE14A921F8140031F8140008F0C6F802
:103FD0003946039007F044FF0746042003F005FE2E
:103FE0000FA921F8140031F8140008F0B7F8414681
:103FF000039007F035FF80460C4857E00000E03F93
:10400000BC000020DA000020D8000020E8000020DA
:10401000B1000020A001214200002242A40122425E
:104020008D00002091000020CC00002050060020D0
:10403000A9000020B20000200000204100007A44C6
:1040400000FF7F47B6000020D0000020B80000200D
:10405000D2000020A00122429D0000200D0A4572DE
:10406000726F723A4C6566742070756C7365206966
:10407000732066616C736521212154370D0A00009D
:10408000A10000200D0A4572726F723A526967688A
:10409000742070756C73652069732066616C73653C
:1040A00021212154380D0A009C012242C07B0128A5
:1040B0000EDD052003F099FD0AA921F8140031F85E
:1040C000140008F04BF84946039007F0C9FE8146FA
:1040D000601CC4B20A2C7DDBFE49384607F04EFF57
:1040E0000746384608F06CF80022FB4BCDE900018A
:1040F00007F084FFCDE9020108F075F80746F5499D
:10410000384607F005FFF549029007F001FFF44932
:10411000039007F033FF0746384608F051F80022B5
:10412000ED4BCDE9000107F069FFCDE9020108F090
:104130005AF80746EB48008808F010F83946039013
:1041400008F06EF813D2E748008808F007F83946FF
:10415000029007F0DAFE039008F005F880B20990AB
:1041600003200999FCF707FBDF49088002E00020E3
:10417000DD490880D749404607F000FF80464046A9
:1041800008F01EF80022D44BCDE9000107F036FFFD
:10419000CDE9020108F027F88046CE49404607F0F5
:1041A000B7FECE49029007F0B3FECD49039007F069
:1041B000E5FE8046404608F003F80022C64BCDE9F4
:1041C000000107F01BFFCDE9020108F00CF8804662
:1041D000C64800E0DEE0008807F0C0FF41460390DB
:1041E00008F01EF813D2C148008807F0B7FF414617
:1041F000029007F08AFE039007F0B5FF80B20990A5
:1042000004200999FCF7B7FAB949088002E00020B8
:10421000B7490880B748407801284DD1B248008896
:10422000B549098888421FDD0598401CC0B2059039
:10423000059803281ADB0020B04908700120B04916
:104240000860B049C1F8A001AF490860AD49C1F8A4
:104250009C01AE494FF0000005F0FEF80020A54992
:10426000487023B0BDE8F08F00200590A04800887A
:10427000A149098888421DDD0498401CC0B2049001
:104280000498032818DB00209C49087001209C49F1
:1042900008609C49C1F8A0019B4908609949C1F890
:1042A0009C019B494FF0000005F0D6F80020914991
:1042B0004870D6E7002004908E48C07B01285ADD64
:1042C0008449484607F05AFE8146484607F078FF81
:1042D0000022814BCDE9000107F090FECDE90201FB
:1042E00007F081FF81467B49484607F011FE7B4974
:1042F000029007F00DFE7A49039007F03FFE8146D9
:10430000484607F05DFF0022734BCDE9000107F03E
:1043100075FECDE9020107F066FF81467D48008801
:1043200007F01CFF4946039007F07AFF13D2794843
:10433000008807F013FF4946029007F0E6FD03905E
:1043400007F011FF80B2099005200999FCF713FAD4
:10435000714908800FE000206F4908806D4800888F
:1043600007F0FCFE4946029007F0CCFD039007F0F1
:10437000FAFE80B208900024002500260027A046FF
:10438000A146654803885A4802885748018863A0B7
:1043900008F05AF85948007800283FF4D8AC00BF1C
:1043A0005FE718B51346052404EB8004A4B200941B
:1043B0009DF8004001F8014B9DF8014001F8014BC8
:1043C000442401F8014B01F8013B00909DF80040A6
:1043D00001F8014B9DF8014001F8014B0A2401F856
:1043E000014B002219E0564C34F8124000949DF81D
:1043F000004001F8014B9DF8014001F8014B514C80
:1044000034F8124000949DF8004001F8014B9DF8EB
:10441000014001F8014B541CA2B28242E3DB18BDFB
:104420002DE9F04F91B014210CA807F00EFD1421D6
:1044300007A807F00AFD0024A046A1460025002792
:10444000A246A34600200590049000BF3E4905F017
:1044500003F80020244908802549088025488079F0
:10446000401CC6B23948007820F01000103037499F
:10447000087001E207F041FC1E48C07801287DD198
:104480000520FCF74FFA01280ED1B8F1000F0BD12F
:1044900080462F4908602F494FF0000004F0DCFFF0
:1044A000AFF2484007F0D0FF0620FCF73BFA0128A6
:1044B0000ED1B9F1000F0BD181461349086026498E
:1044C0004FF0000004F0C8FFAFF2484007F0BCFF17
:1044D00044E053E0000020410000E03F00007A4447
:1044E00000FF7F47BA000020D8000020BC00002059
:1044F000DA00002050060020E8000020B100002073
:10450000A001214200002242A40122428D0000208D
:1045100091000020BE000020D40000200D0A4C5F56
:104520004272616B653D257520525F4272616B6519
:104530003D2575205765696768743D25750D0A002E
:104540007C060020C00C00207D000020B20000206E
:10455000A00122429D000020A1000020B8F1010F1F
:104560000CD1B9F1010F09D10120FC4908604FF0CD
:104570000000FB49087011B0BDE8F08FF9480078E1
:10458000C0F3001000B30020F7490880F548007818
:1045900020F01000F3490870002E15DD701EC6B221
:1045A000002E0EDD0320F1490870002048704D20D8
:1045B00088703120C87008460671002004F04CFF56
:1045C00002E00020E6490870E648007810F0010F8C
:1045D0007ED0E448007820F00100E2490870032012
:1045E00003F003FB0CA921F8140031F8140007F0C4
:1045F000B5FD5146039007F033FC8246042003F0DA
:10460000F4FA07A921F8140031F8140007F0A6FD08
:104610005946039007F024FC8346601CC4B20A2C60
:1046200056DB781C87B2D249504607F0A7FC824679
:10463000504607F0C5FD0022CE4BCDE9000107F042
:10464000DDFCCDE9020107F0CEFD8246C8495046A7
:1046500007F05EFCC849029007F05AFCC749039076
:1046600007F08CFC8246504607F0AAFD0022C14BA1
:10467000CDE9000107F0C2FCCDE9020107F0B3FD6E
:104680008246BF48008807F069FD5146039007F055
:10469000C7FD2AD2BA48008807F060FD5146029053
:1046A00007F033FC039007F05EFD80B20690032014
:1046B0000699FCF760F8B349088008460088401D59
:1046C0000880084600880A2190FBF1F0AD4900E01F
:1046D000D2E008800846008800EB80004FF6FF71AA
:1046E00001EA4000A749088002E00020A5490880AF
:1046F000B5F5167F04DAA3480088A34921F8150010
:104700009B49584607F03AFC8346584607F058FD47
:104710000022984BCDE9000107F070FCCDE90201C1
:1047200007F061FD83469249584607F0F1FB924934
:10473000029007F0EDFB9149039007F01FFC8346C0
:10474000584607F03DFD00228A4BCDE9000107F0F5
:1047500055FCCDE9020107F046FD83468B480088F1
:1047600007F0FCFC5946039007F05AFD28D2874811
:10477000008807F0F3FC5946029007F0C6FB03904F
:1047800007F0F1FC80B2069004200699FBF7F3FFD6
:104790007F49088008460088401D08800846008838
:1047A0000A2190FBF1F07A4908800846008800EB66
:1047B00080004FF6FF7101EA40007549088002E071
:1047C000002073490880B5F5167F04DA7048008828
:1047D000704921F815006B4800886F4909888842A4
:1047E0001DDD0598401CC0B205900598032818DB14
:1047F00000205B4908700120684908606849C1F8D9
:10480000A001684908606649C1F89C0166494FF0FB
:10481000000004F021FE002064494870ABE600204F
:1048200005905B4800885C49098888421DDD049832
:10483000401CC0B204900498032818DB00204849AB
:1048400008700120554908605549C1F8A001554933
:1048500008605349C1F89C0155494FF0000004F02D
:10486000FBFD00205149487085E600200490681C3B
:1048700085B20024A246A3463948007809283FF4AF
:10488000F9AD4A48007801280DD1444908604449EF
:10489000C1F8A00143490860304908604FF00000AA
:1048A0004249487002E0012040494870B7F5167F40
:1048B00001DB4FF416775A223E493846FFF771FD67
:1048C0003D49002004F0C8FD00BF54E62DE9F04F3B
:1048D0009BB0142116A807F0B8FA142111A807F00C
:1048E000B4FA4FF00009002010900F900027804686
:1048F00083460E90002500260D900C900B900A9098
:10490000099008900790059004902C4904F0A4FDAC
:104910002B4800882B490988084480B208900898E1
:10492000B0F5FA7F02DA4FF4FA700890089800EBBD
:10493000400080B207900020124908801449088086
:104940001A48C079401C00F0FF0A0648007820F0A1
:10495000100010300349087089E200009C012242D7
:10496000B1000020B2000020C8000020E842002072
:10497000000020410000E03F00007A4400FF7F4734
:10498000BA000020D80000207C060020BC000020D7
:10499000DA000020C00C0020E8000020A001214225
:1049A00000002242A40122428D0000205006002077
:1049B00091000020041300208900002081000020C5
:1049C000DE000020E000002007F097F9FB48C078E7
:1049D00001281AD10520FBF7A5FF012807D110985F
:1049E00028B901201090F64908604FF003074FF0F6
:1049F0000600FBF797FF012807D10F9828B901207F
:104A00000F90F04908604FF00308EF480078C0F3BA
:104A1000001008B30020ED490880EB48007820F032
:104A20001000E9490870BAF1000F21DDAAF1010078
:104A300000F0FF0ABAF1000F0FDD0320E44908700F
:104A4000002048704D2088703120C870084680F8DA
:104A500004A0002004F000FD0AE00020DD490870F9
:104A60000120D7490860DC49C1F8A401DB4908608E
:104A7000D548007810F0010F7ED0D348007820F0A0
:104A80000100D1490870032003F0AFF816A921F8FE
:104A9000190031F8190007F061FB0390059907F040
:104AA000DFF90590042003F0A0F811A921F81900FE
:104AB00031F8190007F052FB0390049907F0D0F980
:104AC000049009F1010000F0FF09B9F10A0F53DB6E
:104AD000C349059807F052FA0590059807F070FB56
:104AE0000022C04BCDE9000107F088FACDE90201B0
:104AF00007F079FB0590BA49059807F009FABA4919
:104B0000029007F005FAB949039007F037FA0590CB
:104B1000059807F055FB0022B24BCDE9000107F0E4
:104B20006DFACDE9020107F05EFB0590B048008800
:104B300007F014FB0390059907F072FB2AD2AC48EA
:104B4000008807F00BFB0290059907F0DEF903904F
:104B500007F009FB80B2069003200699FBF70BFED5
:104B6000A449088008460088401D0880084600883F
:104B70000A2190FBF1F000E079E19E4908800846A7
:104B8000008800EB80004FF6FF7101EA4000994970
:104B9000088002E0002097490880B5F5487F18DAC0
:104BA0000A2F16DA934802882846691C8DB292496A
:104BB00021F810208F4909880A98884205DC8D4821
:104BC00000880A904FF0000B03E00BF101001FFA80
:104BD00080FB8349049807F0D1F90490049807F00A
:104BE000EFFA00227F4BCDE9000107F007FACDE98B
:104BF000020107F0F8FA04907949049807F088F95F
:104C00007949029007F084F97849039007F0B6F9E2
:104C10000490049807F0D4FA0022724BCDE9000109
:104C200007F0ECF9CDE9020107F0DDFA04907348D2
:104C3000008807F093FA0390049907F0F1FA28D25C
:104C40006E48008807F08AFA0290049907F05DF92F
:104C5000039007F088FA80B2069004200699FBF7CB
:104C60008AFD6749088008460088401D088008467C
:104C700000880A2190FBF1F061490880084600880D
:104C800000EB80004FF6FF7101EA40005C490880AC
:104C900002E000205A490880B6F5487F19DAB8F1D9
:104CA0000A0F16DA564802883046711C8EB25549F2
:104CB00021F81020524909880998884205DC50489B
:104CC0000088099000200E9003E00E98401C80B2EE
:104CD0000E9047B94FF0000B464801880898814272
:104CE00038DD012736E0012F11D1BBF11E0F05DDA4
:104CF0000120334908604FF004072BE03D4801884C
:104D00000798814226DD02274FF0000B22E0022F98
:104D100008D1BBF10A0F1DDD0120294908604FF0C1
:104D2000040717E0032F04D1BBF10A0F12DD04279B
:104D300010E0042F0ED12F480088C8280ADAB5F5F4
:104D4000487F06DA00222846691C8DB22A4921F8DC
:104D500010200A270A2F02D1012019490860B8F152
:104D6000000F09D100200E90254801880898814243
:104D700066DD4FF0010863E0B8F1010F12D10E9823
:104D80001E2805DD01200F4908604FF0040857E098
:104D90001B4801880798814252DD4FF0020800202D
:104DA0000E904DE0B8F1020F2ED10E980A2847DD83
:104DB0000120044908604FF0040841E0500600203B
:104DC000A0012242A4012242B2000020C80000201B
:104DD000E8420020B1000020000022429C01224253
:104DE000000020410000E03F00007A4400FF7F47C0
:104DF000BA000020D80000207C060020BC00002063
:104E0000DA000020C00C0020B8F1030F05D10E9885
:104E10000A2815DD4FF0040812E0B8F1040F0FD195
:104E2000FD480088C8280BDAB6F5487F06DA00226C
:104E30003046711C8EB2F94921F810204FF00A0853
:104E4000B8F10A0F02D10120F54908600A2F09D1F3
:104E5000B8F10A0F06D10120F24908604FF00000B6
:104E6000F14908704FF00009484605900490EE485B
:104E700000780A283FF4A8AD0020EC494870B542FC
:104E80000BDA2C4605E00020E94921F81400601CEB
:104E900084B2B442F7DB0D960EE0B54201D10D9617
:104EA0000AE0344605E00020DC4921F81400601CCB
:104EB00084B2AC42F7DB0D952946DD48FCF780F85B
:104EC0003146D648FCF77CF8002407E0D84830F893
:104ED0001410D8A007F0B8FA601C84B2AC42F5DB1D
:104EE000002407E0CD4830F81410D7A007F0ACFA42
:104EF000601C84B2AC42F5DB4222D9490D98FFF721
:104F000050FAD849002004F0A7FA1BB0BDE8F08F92
:104F10002DE9F04F8BB0142106A806F096FF00266D
:104F2000B2460024A346002004908046CE49086083
:104F3000CE4904F091FA0020CD490880CD4908807F
:104F4000BA488078401CC7B202E206F0D6FE0220C2
:104F5000FBF7E8FC01287DD14FF0000AC648007835
:104F6000C0F30010F8B1B8F1010F27D10020C349F8
:104F70000880C148007820F01000BF490870002F59
:104F80001CDD781EC7B2002F0EDD0320BC4908705F
:104F9000002048704D2088703120C8700846077185
:104FA000002004F059FA09E00120B6490860B6492A
:104FB000C1F888014FF000009B490870AE480078A6
:104FC00010F0010FC0D0AC48007820F00100AA49D1
:104FD0000870052002F009FE06A921F8160031F834
:104FE000160007F0BBF85946039006F039FF8346D8
:104FF000701CC6B20A2EA7DBA449584606F0BEFFB5
:105000008346584607F0DCF80022A14BCDE90001A9
:1050100006F0F4FFCDE9020107F0E5F883469B496D
:10502000584606F075FF9B49029006F071FF9A49B9
:10503000039006F0A3FF8346584607F0C1F800220C
:10504000934BCDE9000106F0D9FFCDE9020107F04D
:10505000CAF800E094E083469048008807F07EF8A4
:105060005946039007F0DCF813D28C48008807F00B
:1050700075F85946029006F048FF039007F073F860
:1050800080B2059005200599FBF775FB78490880EB
:1050900002E0002076490880B8F1010F0CD1642CA1
:1050A0000ADA734802882046611C8CB27C4921F8D8
:1050B0001020642C00DB00245C48B0F80D006C4923
:1050C000098888420CDD049850B901200490002022
:1050D0006C4908604FF001006B49C1F888014CE051
:1050E000B8F1000F49D10320FBF71CFC012806D0C2
:1050F0004E48B0F80D005E49098888421EDC4B48D6
:10510000B0F80D005A49098888420EDC01205D493B
:1051100008605D49C1F888014FF0000042490870FD
:10512000534800885349088008E04FF0010852486E
:10513000007820F0100010304F4908703B48807C08
:1051400000EB4001C1EBC01047490968B1EBC00F4B
:1051500013D94FF001084848007820F010001030B3
:10516000454908700120474908604749C1F888014E
:105170004C494FF0000004F06FF90026B346E7E019
:105180003D48007810F0010F45D03B48007820F0F2
:10519000010039490870052002F027FD06A921F811
:1051A0001A0031F8160006F0D9FF5946039006F0B0
:1051B00057FE83460AF1010000F0FF0ABAF10A0F18
:1051C00029DB3249584606F0D9FE8346584606F098
:1051D000F7FF00222E4BCDE9000106F00FFFCDE9CD
:1051E000020107F000F883462849584606F090FE71
:1051F0002849029006F08CFE2749039006F0BEFE77
:105200008346584606F0DCFF0022214BCDE9000121
:1052100006F0F4FE48E06FE0DA000020C00C002049
:10522000A40122429C012242B1000020500600202D
:105230007C0600200D0A7531364C6566745F44614A
:1052400074613D25750D0A000D0A75313652696786
:1052500068745F446174613D25750D0A00000000AB
:10526000DE1A002089000020CC0000206C00002005
:10527000D4000020E6000020B2000020C80000207A
:10528000E8420020BC81224200002442000020416C
:105290000000E03F00007A4400FF7F47BE0000208E
:1052A0001801002095000020CDE9020106F09BFFC7
:1052B0008346FE48008806F051FF5946039006F0E9
:1052C000AFFF13D2F948008806F048FF5946029014
:1052D00006F01BFE039006F046FF80B20590052005
:1052E0000599FBF748FAF249088002E00020F049EE
:1052F00008804FF0000AD346EE480078C0F3C000A3
:1053000048B1EC48007820F00800EA490870EA4902
:10531000002004F0A1F8E9488078401CC7B20020C2
:10532000E7490880E348007820F010001030E14998
:105330000870002600240020E2490860049080469E
:105340000120E14908604FF00000E049C1F8880100
:10535000DF48007806283FF4F8ADB8F1010F1AD104
:105360004FF0000B00240BE0DA4931F8140006F08E
:10537000F5FE5946039006F073FD8346601C84B227
:10538000642CF1DBD449584606F0F8FD039006F092
:10539000EAFED2490880C948007A022818D1CF49CC
:1053A000088800EBD0714D10CC49088800EBD07113
:1053B0004910A0EB410101F0FF09B9F1000F26DD12
:1053C000681C4FF6FF7101EA4000C44908801EE0E6
:1053D000BA48007A05281AD1C0480088052190FBF8
:1053E000F1F085B2BD48008890FBF1F201FB12009C
:1053F00000F0FF09B9F1030F04DA05EB8500B749A6
:10540000088004E0681C00EB8000B4490880B348C1
:105410000188B3A007F018F8B849002004F01CF880
:105420000020AB4908700BB0BDE8F08F2DE9F04FBC
:105430009BB0142116A806F008FD142111A806F04F
:1054400004FD4FF00009002010900F900026002767
:1054500083460E90002500240D900C900B900A902E
:1054600009900890079005900490A54903F0F4FF77
:10547000A4480088A4490988084480B20890089884
:10548000B0F5FA7F02DA4FF4FA700890089800EB52
:10549000400080B2079000209C4908809C49088009
:1054A0008648C079401C00F0FF0A8248007820F04E
:1054B000100010307F4908706AE206F01EFC7F4839
:1054C000C07801281AD10520FBF72CFA012807D152
:1054D000109828B9012010908E4908604FF00306FB
:1054E0004FF00600FBF71EFA012807D10F9828B9E4
:1054F00001200F90884908604FF003076D4800783D
:10550000C0F3001008B300206D4908806948007896
:1055100020F0100067490870BAF1000F21DDAAF1F0
:10552000010000F0FF0ABAF1000F0FDD03207B49F4
:105530000870002048704D2088703120C8700846DF
:1055400080F804A0002003F087FF0AE000206049F3
:10555000087001206F4908607149C1F8A4017149C0
:1055600008605448007810F0010FA5D05148007829
:1055700020F001004F490870032002F036FB16A905
:1055800021F8190031F8190006F0E8FD039005999B
:1055900006F066FC0590042002F027FB11A921F813
:1055A000190031F8190006F0D9FD0390049906F0AE
:1055B00057FC049009F1010000F0FF09B9F10A0F4E
:1055C00072DB5949059806F0D9FC0590059806F05C
:1055D000F7FD0022554BCDE9000106F00FFDCDE9A6
:1055E000020106F000FE05904F49059806F090FC78
:1055F0004F49029006F08CFC4E49039006F0BEFC29
:105600000590059806F0DCFD0022484BCDE900012D
:1056100006F0F4FCCDE9020106F0E5FD05904648F0
:10562000008806F09BFD0390059906F0F9FD28D24D
:105630004148008806F092FD0290059906F065FC4D
:10564000039006F090FD80B2069003200699FBF7C8
:1056500092F82E49088008460088401D08800846B8
:1056600000880A2190FBF1F028490880084600884C
:1056700000EB80004FF6FF7101EA400023490880EB
:1056800002E0002021490880B5F5487F65DA0A2E3E
:1056900063DA1E4802882846691C8DB2274921F822
:1056A00010201A4909884BE072E10000BE0000207A
:1056B000D4000020B20000209900002050060020F5
:1056C000C8000020CC000020BC81224200002442FF
:1056D000B1000020180100200000C842E6000020B0
:1056E0000D0A416C6C46756C6C5F53746174696330
:1056F0005765696768743D25750D0A00AD00002087
:1057000085000020DE000020E0000020D8000020FE
:10571000DA000020A0012242A4012242E842002037
:10572000000022429C012242000020410000E03F94
:1057300000007A4400FF7F47BA0000207C0600206A
:105740000A98884205DCAD4800880A904FF0000BAB
:1057500003E00BF101001FFA80FBA949049806F051
:105760000DFC0490049806F02BFD0022A54BCDE91A
:10577000000106F043FCCDE9020106F034FD04907F
:105780009F49049806F0C4FB9F49029006F0C0FBB5
:105790009E49039006F0F2FB0490049806F010FD79
:1057A0000022984BCDE9000106F028FCCDE902016A
:1057B00006F019FD04909648008806F0CFFC03908F
:1057C000049906F02DFD28D29148008806F0C6FC09
:1057D0000290049906F099FB039006F0C4FC80B295
:1057E000069004200699FAF7C6FF8A490880084601
:1057F0000088401D0880084600880A2190FBF1F0CF
:10580000844908800846008800EB80004FF6FF714D
:1058100001EA40007F49088002E000207D490880BD
:10582000B4F5487F18DA0A2F16DA7A48028820463B
:10583000611C8CB2784921F81020764909880998B2
:10584000884205DC73480088099000200E9003E030
:105850000E98401C80B20E9046B94FF0000B67487E
:1058600001880898814238DD012636E0012E11D1E9
:10587000BBF11E0F05DD0120684908604FF00406EA
:105880002BE05E4801880798814226DD02264FF012
:10589000000B22E0022E08D1BBF10A0F1DDD012012
:1058A0005E4908604FF0040617E0032E04D1BBF1F7
:1058B0000A0F12DD042610E0042E0ED14F48008896
:1058C000C8280ADAB5F5487F06DA00222846691C9E
:1058D0008DB2534921F810200A260A2E02D1012048
:1058E0004E49086047B900200E904A480188089840
:1058F000814238DD012736E0012F11D10E981E2894
:1059000005DD0120474908604FF004072BE04148BE
:1059100001880798814226DD022700200E9022E0B0
:10592000022F08D10E980A281DDD01203D4908608C
:105930004FF0040717E0032F04D10E980A2812DD58
:10594000042710E0042F0ED132480088C8280ADA54
:10595000B4F5487F06DA00222046611C8CB22E493D
:1059600021F810200A270A2F02D101202D490860B2
:105970000A2E08D10A2F06D101202B4908604FF0CA
:1059800000002A4908704FF000094846059004902D
:10599000264800780B283FF490AD00202449487039
:1059A000A5420DDAA84607E000201D4921F818009D
:1059B00008F101001FFA80F8A045F5DB0D9410E016
:1059C000A54201D10D940CE0A04607E00020124949
:1059D00021F8180008F101001FFA80F8A845F5DB4E
:1059E0000D954A2213490D98FEF7DBFC1249002061
:1059F00003F032FD1BB0BDE8F08F0000D80000209E
:105A0000000020410000E03F00007A4400FF7F4793
:105A1000BC000020DA000020C00C0020A0012242BF
:105A20007C060020A40122429C012242B1000020F9
:105A30005006002090270020890000200CB500208F
:105A4000019000906B48006840F48030694908601C
:105A500000BF6848006800F4003000900198401CC6
:105A60000190009818B90198B0F5A06FF1D1614884
:105A7000006810F4003F02D00120009001E00020F7
:105A800000900098012842D15B48006840F0100067
:105A9000594908600846006820F00300086008467D
:105AA000006840F002000860524840685149486070
:105AB0000846406848600846406840F48060486096
:105AC0000846406820F47C1048600846406840F46E
:105AD000E81048600846006840F08070086000BF29
