:020000040801F1
:10000000A86D002045010108690101086B01010884
:10001000750101087F01010883010108000000004B
:100020000000000000000000000000008D01010839
:100030008F010108000000009101010893010108EF
:100040005F0101085F0101085F0101085F0101080C
:100050005F0101085F0101085F0101085F010108FC
:100060005F0101085F0101085F0101085F010108EC
:100070005F0101085F0101085F0101085F010108DC
:100080005F0101085F0101085F0101085F010108CC
:100090005F0101085F0101085F010108B501010866
:1000A0005F0101085F0101085F0101085F010108AC
:1000B0009D010108A5010108AD0101085F010108CA
:1000C0005F0101085F0101085F0101085F0101088C
:1000D0005F0101085F0101085F0101085F0101087C
:1000E000950101085F0101085F0101085F01010836
:1000F0005F0101085F0101085F0101085F0101085C
:100100005F0101085F0101085F0101085F0101084B
:100110005F0101085F0101085F0101085F0101083B
:100120005F0101085F0101085F0101085F0101082B
:10013000DFF80CD00EF07CFC004800471D020108DF
:10014000A86D00200648804706480047FEE7FEE706
:10015000FEE7FEE7FEE7FEE7FEE7FEE7FEE7FEE777
:10016000E73E010831010108704702E013A00EF0DC
:100170009DFCFBE702E019A00EF098FCFBE700BF36
:10018000FEE702E01DA00EF091FCFBE77047704710
:100190007047704710B506F07AFA10BD10B506F03A
:1001A00083FA10BD10B506F07DFB10BD10B506F04A
:1001B00073FE10BD10B507F028FC10BD0D0A457286
:1001C000726F723A486172644661756C745F48611F
:1001D0006E646C6572210D0A000000000D0A457204
:1001E000726F723A4D656D4D616E6167655F486112
:1001F0006E646C6572210D0A000000000D0A4572E4
:10020000726F723A55736167654661756C745F48C9
:10021000616E646C6572210D0A00000062B607F021
:1002200071FA00F099F806F085FE06F028FC06F059
:1002300047FF02F0E8FA0CF007FD01203D49086095
:100240003D49C1F8A4013B49091F08603B490860CA
:10025000091D08603A49086000203A4908603A4997
:1002600008800846407820F0020048700846407830
:1002700020F0010048700846007820F080008030AF
:1002800008700846007820F04000087000202F49D0
:10029000087006F074FC06F019FC03F088FC03F00B
:1002A0007EFD00202A4908602648807820F0020060
:1002B000801C2449887000F04FF801E004F025FC10
:1002C0002348006842F6E0618842F7D30121052007
:1002D00000F0F2FA0121062000F0EEFA28E00CF01E
:1002E00072FC1C4800780D281DD2DFE800F01907C9
:1002F0000D10131C1C0A1C1C1C1C160000F05BF9C2
:1003000015E002F045FB12E000F061FE0FE001F0A5
:1003100094F90CE001F0AAFC09E003F063F806E0B0
:1003200002F04DFD03E000200A49087000BF00BF45
:10033000D5E70000A0012242000022428C012442A5
:10034000880123427C0000208000002082000020E1
:10035000A00000207800002010B545F2555004F0B0
:10036000CBFB062004F0CBFB4FF49C7004F0CAFBDF
:1003700004F0CBFB04F0CEFB10BDF8B506460C46EE
:1003800015460820FE490870002048704E208870ED
:100390004820C87000949DF8000008719DF8010085
:1003A000487100959DF8000088719DF80100C871A2
:1003B000F448008800909DF8000008729DF8010044
:1003C0004872304608F0FAF9F8BD2DE9F04F8FB0C9
:1003D00082468B4658460EF0AAF90890BAF1090FEA
:1003E0003FD00CDCBAF1050F13D0BAF1060F18D0CC
:1003F000BAF1070F1DD0BAF1080F4AD121E0BAF1C6
:100400002B0F26D0BAF12C0F33D0BAF12D0F40D1DB
:1004100037E042F20F741122DB4909A80DF0F6FE15
:100420003BE042F20F741122D84909A80DF0EEFE0C
:1004300033E04CF250341122D54909A80DF0E6FE04
:100440002BE04CF250341122D24909A80DF0DEFE07
:1004500023E044F620641122CF4909A80DF0D6FE0E
:100460001BE042F20F741122CC4909A80DF0CEFE18
:1004700013E040F2E7341122C94909A80DF0C6FE85
:100480000BE040F2E7341122C64909A80DF0BEFE88
:1004900003E0C5A00EF00AFB00BF00BF9DF82400DA
:1004A000012804D002281AD0032878D13DE0DDF8D5
:1004B000290008990DF03AFF0690DDF825100DF09F
:1004C000DDFE07900EF065F907460022C44B0DF0E3
:1004D0009DFF05460EF044F91FFA80F963E0DDF850
:1004E0002D0008990DF022FF039008990DF01EFFD2
:1004F0000590DDF8290008990DF018FF0490059982
:100500000DF0BCFE0690DDF825100DF0B7FE07904B
:100510000EF03FF907460022B14B0DF077FF05467C
:100520000EF01EF91FFA80F93DE0DDF83100089960
:100530000DF0FCFE029008990DF0F8FE8046089937
:100540000DF0F4FE0490DDF82D0008990DF0EEFE9C
:10055000019008990DF0EAFE8046DDF8290008991F
:100560000DF0E4FE414602900DF088FE03900499E0
:100570000DF084FE0590DDF825100DF07FFE074696
:100580000EF007F90022964BCDE906010DF03EFF73
:1005900005460EF0E5F81FFA80F904E0FFE791A0A8
:1005A0000EF084FA00BF00BFA14500DDA146484619
:1005B0000FB0BDE8F08F2DE9F04389B0002473E15E
:1005C0000CF001FB9448007809283DD008DC052890
:1005D0000DD0062814D007281BD008284FD121E0C1
:1005E0002B2828D02C2838D02D2848D13EE08B4805
:1005F000008808901122644901A80DF007FE42E02E
:100600008748008808901122604901A80DF0FEFD7E
:1006100039E084480088089011225D4901A80DF056
:10062000F5FD30E08048008808901122594901A862
:100630000DF0ECFD27E07D48008808901122564916
:1006400001A80DF0E3FD1EE0794800880890112212
:10065000524901A80DF0DAFD15E0764800880890AF
:1006600011224F4901A80DF0D1FD0CE0724800881D
:10067000089011224B4901A80DF0C8FD03E06FA0BE
:100680000EF014FA00BF00BF78480078C0F3800075
:10069000002894D07548007820F004007349087051
:1006A0005D48007806F06CFB05460EF040F8044605
:1006B00020460EF06EF807466D4A6E4B0DF04DFF6A
:1006C00005460EF04DF880B20790BDF81C00BDF84D
:1006D0002010884212DDBDF81C10BDF82020881AB9
:1006E0000EF01CF8814648460EF026F885B22946E1
:1006F00049480078FFF769FE069001E00020069067
:1007000008201F4908700020487043208870424824
:100710000078C8709DF8200008719DF8210048718C
:100720009DF81C0088719DF81D00C8719DF8180087
:1007300008729DF8190048724C4800780121B1EB0D
:10074000D01F1CD10E49022008F038F847484078E5
:1007500000F0010090B1454840780121B1EBD01F75
:1007600006D10848407820F00200801C05494870F6
:100770000448407820F0800080307DE094E08AE0FA
:10078000A857002080000020D8150020E91500207F
:10079000FA1500200B1600201C1600202D16002034
:1007A0003E1600204F1600200D0A4572726F723AF5
:1007B000546865204144206368616E6E656C204911
:1007C000442069732066616C736521212141644373
:1007D0006F6E76657256616C75650D0A00000000DB
:1007E0000000E03F0D0A4572726F723A546865204E
:1007F000506172616D657465725F4E42206973204D
:1008000066616C73652121214164436F6E76657268
:1008100056616C75650D0A00870000208800002075
:100820008A0000208C0000208E0000209000002014
:100830009200002094000020960000200D0A4572CE
:10084000726F723A546865204144206368616E6E2D
:10085000656C2069732066616C7365212121467582
:100860006E5F41646A7573740D0A00007C0000209D
:10087000B3B7EE871388C33FFE49487008464078F7
:1008800020F0400040304870BDF818200021084694
:10089000FFF773FD08E0F848407800F0010018B158
:1008A000F649002007F08AFFF548007801283FF458
:1008B00087AE09B0BDE8F0832DE9F05F8246894636
:1008C0004FF0000B0024504606F05AFA05460DF092
:1008D0002EFF834658460DF05CFF0746E94AEA4B77
:1008E0000DF03BFE05460DF03BFF84B2224651461B
:1008F000E6A00EF0DBF8BAF1090F5DD00CDCBAF11E
:10090000050F13D0BAF1060F1ED0BAF1070F29D088
:10091000BAF1080F7BD133E0BAF12B0F3ED0BAF118
:100920002C0F57D0BAF12D0F71D161E0B9F1010F41
:1009300001D1DD48048021460520FFF746FD32281D
:1009400001DAD948048066E0B9F1010F01D1D74836
:10095000048021460620FFF738FD322801DAD3480B
:10096000048058E0B9F1010F01D1D148048021463B
:100970000720FFF72AFD322801DACD4804804AE03B
:10098000B9F1010F01D1CB48048021460820FFF7BF
:100990001CFD322801DAC74804803CE0B9F1010FA0
:1009A00001D1C548048021462B20FFF70EFD3228D7
:1009B00001DAC14804802EE0B9F1010F01D1BF482E
:1009C000048021460920FFF700FD322801DABB48E8
:1009D000048020E0B9F1010F01D1B948048021461B
:1009E0002C20FFF7F2FC322801DAB548048012E02F
:1009F000B9F1010F01D1B348048021462D20FFF742
:100A0000E4FC322801DAAF48048004E0FFE7AEA03E
:100A10000EF04CF800BF00BFBDE8F09F70B5054672
:100A2000B548007800EB4000032101EB80009349BA
:100A3000087000204870442088705720C870AE4865
:100A40000078087100243AE2AC4830F8140042F211
:100A5000107190FBF1F004EB4401052202EB8101DF
:100A6000864A505404EB4400052101EB80001146F6
:100A7000085C00280FDD04EB4400052101EB800039
:100A80001146085C303004EB4401052202EB810181
:100A90007A4A505407E0202004EB4401052202EB7F
:100AA0008101764A5054954830F8140042F2107192
:100AB00090FBF1F201FB12004FF47A7190FBF1F020
:100AC00004EB4401062202EB81016C4A505404EB12
:100AD0004400062101EB80001146085C80B904EB5C
:100AE0004400052101EB80001146085C202807D155
:100AF00004EB4401062202EB8101604A50540EE0EF
:100B000004EB4400062101EB80005C49085C3030B6
:100B100004EB4401062202EB8101584A5054774805
:100B200030F814004FF47A7190FBF1F201FB1200DF
:100B3000642190FBF1F004EB4401072202EB8101F8
:100B40004E4A505404EB4400072101EB800011464B
:100B5000085C80B904EB4400062101EB80001146DB
:100B6000085C202807D104EB4401072202EB810135
:100B7000424A50540EE004EB4400072101EB800090
:100B80003E49085C303004EB4401072202EB81014E
:100B90003A4A5054594830F81400642190FBF1F25D
:100BA00001FB12000A2190FBF1F004EB4401082242
:100BB00002EB8101314A505404EB4400082101EB5F
:100BC00080001146085C80B904EB4400072101EB6A
:100BD00080001146085C202807D104EB440108225C
:100BE00002EB8101254A50540EE004EB4400082139
:100BF00001EB80002149085C303004EB44010822FD
:100C000002EB81011D4A50543C4830F814000A217F
:100C100090FBF1F201FB1200303004EB4401092299
:100C200002EB8101154A5054202004EB44010A22B2
:100C300002EB8101114A5054314830F8140042F25D
:100C4000107190FBF1F004EB44010B2202EB8101E7
:100C50000A4A505404EB44000B2101EB800011467A
:100C6000085C002858DD04EB44000B2101EB8000F8
:100C7000114647E0800000207C000020A85700209B
:100C800078000020B3B7EE871388C33F0D0A2056C3
:100C90006F6C746167655F5A65726F25753D257568
:100CA0006D76200D0A000000880000208A000020D8
:100CB0008C0000208E000020900000209200002078
:100CC00094000020960000200D0A4572726F723A5F
:100CD000546865204144206368616E6E656C2069CC
:100CE000732066616C736521212146756E5F5A65BC
:100CF000726F0D0A00000000B8000020241B0020C5
:100D0000301B0020085C303004EB44010B2202EB66
:100D10008101F74A505407E0202004EB44010B22E4
:100D200002EB8101F24A5054F24830F8140042F2CA
:100D3000107190FBF1F201FB12004FF47A7190FBFD
:100D4000F1F004EB44010C2202EB8101E84A50541B
:100D500004EB44000C2101EB80001146085C80B9D3
:100D600004EB44000B2101EB80001146085C2028B5
:100D700007D104EB44010C2202EB8101DC4A505400
:100D80000EE004EB44000C2101EB8000D849085C24
:100D9000303004EB44010C2202EB8101D44A505460
:100DA000D44830F814004FF47A7190FBF1F201FB53
:100DB0001200642190FBF1F004EB44010D2202EBE0
:100DC0008101CB4A505404EB44000D2101EB80001B
:100DD0001146085C80B904EB44000C2101EB800053
:100DE0001146085C202807D104EB44010D2202EBD8
:100DF0008101BF4A50540EE004EB44000D2101EB89
:100E00008000BB49085C303004EB44010D2202EB4A
:100E10008101B74A5054B74830F81400642190FB60
:100E2000F1F201FB12000A2190FBF1F004EB440106
:100E30000E2202EB8101AE4A505404EB44000E2115
:100E400001EB80001146085C80B904EB44000D21E1
:100E500001EB80001146085C202807D104EB440117
:100E60000E2202EB8101A24A50540EE004EB440032
:100E70000E2101EB80009E49085C303004EB4401F8
:100E80000E2202EB81019A4A50549A4830F814001D
:100E90000A2190FBF1F201FB1200303004EB440117
:100EA0000F2202EB8101924A5054202004EB4401AE
:100EB000102202EB81018E4A5054601CC4B28E484D
:100EC00000788442FFF6C0AD8949284607F076FCD9
:100ED00070BD30B5014600248848007A022814D13C
:100EE000084601EBD075C5F34F0201EBD0756D10CC
:100EF000A1EB4505EBB2002B05DD501C4FF6FF754D
:100F000005EA40041AE00C4618E07C48007A0528FF
:100F100013D191FBF0F082B2052091FBF0F500FBBC
:100F20001510C3B2032B03DA02EB820084B205E092
:100F3000501C00EB800084B200E00C46204630BD1F
:100F4000014600200A2936D006DC052909D00629E9
:100F50000FD0092938D126E015291CD0252933D1F5
:100F600010E0674A1268012A01D1012000E0002048
:100F70002BE0634A121D1268012A01D1012000E012
:100F8000002022E05E4A08321268012A01D10120C5
:100F900000E0002019E05B4A1268012A01D101201B
:100FA00000E0002011E0584A1268012A01D1012016
:100FB00000E0002009E0544A121D1268012A01D104
:100FC000012000E0002000E000BF00BF70472DE9D5
:100FD000F04F85B0002400260027A046A146A24677
:100FE00000BF4A4800780121B1EBD01F04D1484925
:100FF000022007F0E3FB08E04448407800F00100DD
:1010000018B14349002007F0D9FB0020414908806E
:101010004149088041490880414908803748807823
:10102000401CC5B23948007820F010001030374914
:10103000087008464078C0F3800028B10846407820
:1010400020F00200801C4870D1E10BF0BCFD0520AF
:10105000FFF776FF01286AD12C480078C0F3001012
:10106000002868D000202F4908802848007820F008
:10107000100026490870002D5DDD681EC5B2002DE8
:1010800056DD03201A490870002048704D208870F2
:101090003120C870084605711C4800780121B1EB69
:1010A000D01F1BD11249022007F088FB1748407857
:1010B00000F00100D0B31C48407820F08000803060
:1010C000194948700846407820F0400048702A4688
:1010D0004FF6FF710020FFF750F92CE00B484078E5
:1010E00000F0010010B30249002007F067FB22E086
:1010F000A8570020301B0020B800002060160020F8
:101100000C01234228012442340122427C000020A9
:10111000F3000020AC000020AE000020BA00002048
:10112000BC0000209A0000208000002003E08CE03A
:101130000020FD490870FD480078C0F340000028F9
:1011400073D0FA48007820F00200F8490870701C4B
:1011500086B2052005F05AFE83460DF0E8FA0746F0
:1011600038460DF016FBF24AF24BCDE900010DF0C6
:10117000F4F9CDE902010DF04FFB0746EE48008877
:101180000DF0D5FA834639460DF062FB13D2EA48DA
:1011900000880DF0CCFA394603900DF0C4F8834670
:1011A0000DF0CAFA80B2049005200499FFF70DF9FA
:1011B000E249088002E00020E0490880DF4800881A
:1011C000DF4921F81400062005F020FE83460DF0CB
:1011D000AEFA804640460DF0DCFAD54AD54BCDE953
:1011E00000010DF0BAF9CDE902010DF015FB8046C2
:1011F000D44800880DF09BFA834641460DF028FB49
:1012000014D2D04800880DF092FA414603900DF0B8
:101210008AF883460DF090FA80B204900620049973
:10122000FFF7D3F8C849088003E00DE00020C64965
:101230000880C5480088C54921F81400601C84B2A4
:10124000B4F5967F00DB0024D1E0B8480078C0F305
:10125000C000002878D0B548007820F00800B349D5
:101260000870052005F046FD83460DF060FA8146C2
:1012700048460DF08EFAAE4AAE4BCDE900010DF0B6
:101280006CF9CDE902010DF0C7FA8146AA48008841
:101290000DF04DFA834649460DF0DAFA19D2A64808
:1012A00000880DF044FA494603900DF03CF883465F
:1012B0000DF042FA80B2049005200499FFF785F8FA
:1012C0009E49088008460088FFF703FE9B49088076
:1012D00002E0002099490880062005F00BFD8346B6
:1012E0000DF025FA824650460DF053FA904A914B84
:1012F000CDE900010DF031F9CDE902010DF08CFAD4
:101300008246904800880DF012FA834651460DF04F
:101310009FFA1AD28B4800880DF009FA51460390C3
:101320000DF001F883460DF007FA80B20490062014
:101330000499FFF74AF88449088008460088FFF7B7
:10134000C8FD8149088003E038E000207E4908801C
:10135000764800780121B1EBD01F30D17348407836
:1013600000F0010050B371484078B1EBD01F06D1B6
:101370007748407820F00200801C75494870744816
:10138000407820F0800080307149487008464078ED
:1013900020F04000403048700846007820F080007F
:1013A000803008700846007820F0400008706648D9
:1013B0000288624801880020FEF7DFFF08E05B48F2
:1013C000407800F0010018B16249002007F0F6F9FA
:1013D00061488078401CC5B20020604908805348AD
:1013E000007820F0100010305049087000264E4858
:1013F000007802283FF429AE4C48407820F00200E3
:101400004A4948700846407820F004004870314648
:1014100053A00DF04BFBB6F5967F01DB4FF49676AB
:101420000027B846042415E0454931F814000DF0B2
:101430007EF9834639460CF021FF0746434931F8CF
:1014400014000DF074F9834641460CF017FF8046F6
:10145000601C84B2B442E7DB301F0DF05FF9014637
:10146000039038460CF094FF83460DF065F93E4931
:101470000880301F0DF052F90146039040460CF0F1
:1014800087FF83460DF058F93849088036480088B0
:10149000FFF71FFD3449088034480088FFF719FD25
:1014A0003249088030480088314908802F48008838
:1014B000304908802D4802882B4801882EA00DF065
:1014C000F5FA1A4800780121B1EBD01F7ED12E49E0
:1014D000022007F073F91548807800F0010040B150
:1014E0001248807820F00100104988700220FFF730
:1014F00095FA0E48407800F00100A0B10B48407802
:1015000000F0010078B1094840780121B1EBD01F0B
:1015100006D10F48407820F00200801C0C4948702A
:101520000B48407832E060E0780000207C0000202A
:10153000B3B7EE871388C33F88000020AC000020BB
:10154000741600208A000020AE000020CC18002075
:10155000800000202F010020601600209A0000204B
:101560000D0A25750D0A0000BA000020BC000020FD
:10157000241B0020301B00200D0A4C3D25752C52E9
:101580003D25750D0A0000001F01002020F001001C
:10159000401CFB4948700846407820F080008030AD
:1015A00048700846407820F04000403048700846B7
:1015B000007820F08000803008700846007820F025
:1015C00040000870EF480288EF4800E004E001881E
:1015D0000020FEF7D2FE08E0EC48407800F0010061
:1015E00018B1EB49002007F0E9F80C20E949087030
:1015F00005B0BDE8F08F70B50246012319E0002068
:1016000012E032F8105002EB40067688B54209DD50
:1016100032F8104002EB40056D8822F8105002EBC2
:1016200040056C80451CA8B2CD1A8542E9DC5D1CE2
:10163000ABB24D1E9D42E2DC70BD2DE9F04F8BB088
:10164000012009904FF0000B002700200690002594
:101650000590049080468146002408E00020CE4991
:1016600021F81400CD4921F81400601CC4B2062CE6
:10167000F4DB002008903120C9490871C348407844
:1016800000F0010010B1002007F098F8BF48007882
:101690000121B1EBD01F03D1C149022007F08EF820
:1016A000BA484078C0F3800030B1B848407820F0A4
:1016B0000200801CB5494870D0E2A6E10BF083FA25
:1016C000B2480078C0F34000002871D0AF480078DD
:1016D00020F00200AD490870052005F097FB03904B
:1016E0000DF025F8059005980DF053F8AD4AAE4B76
:1016F000CDE900010CF031FFCDE902010DF08CF8CD
:101700000590AA4800880DF012F8039005990DF095
:101710009FF813D2A54800880DF009F802900599AA
:101720000CF001FE03900DF007F880B20790052041
:101730000799FEF74AFE9E49088002E000209C4976
:1017400008809B4800889B4921F81B00062005F073
:101750005DFB03900CF0EBFF049004980DF019F87A
:10176000904A914BCDE900010CF0F7FECDE9020162
:101770000DF052F80490904800880CF0D8FF0390C8
:1017800004990DF065F814D28B4800880CF0CFFF57
:10179000029004990CF0C7FD03900CF0CDFF80B2CD
:1017A000079006200799FEF710FE8449088003E0A1
:1017B00066E000208149088080480088804921F83F
:1017C0001B007B480088804507DA7948B0F8008024
:1017D00000207C49086003200690784800888145F5
:1017E00007DA7648B0F800900020764908600320B8
:1017F000069008EB090032282CDD069888B10520F8
:1018000098FBF0F06A490988884206DC052099FBBC
:10181000F0F06A49098888421CDD4FF00008C14693
:1018200018E063480088654909880844142801DAEB
:10183000002009900898012807D162480068B0F597
:101840007A6F07D90020099004E000205D49086004
:10185000012008900698401EC0B206900698052800
:1018600001DD002006900BF101001FFA80FBBBF1A7
:10187000640F01DB4FF0000B642F01DA781C87B294
:1018800042480078C0F3C000002878D03F48007874
:1018900020F008003D490870052005F02BFA039060
:1018A0000CF045FF059005980CF073FF3D4A3E4B48
:1018B000CDE900010CF051FECDE902010CF0ACFFC6
:1018C00005903A4800880CF032FF039005990CF01F
:1018D000BFFF19D2354800880CF029FF0290059906
:1018E0000CF021FD03900CF027FF80B2079005203B
:1018F0000799FEF76AFD2E49088008460088FFF721
:10190000E8FA2B49088002E00020294908800620D7
:1019100005F0F0F903900CF00AFF049004980CF025
:1019200038FF204A204BCDE900010CF016FECDE92E
:1019300002010CF071FF04901F4800880CF0F7FEC4
:10194000039004990CF084FF3ED21B4800880CF0F1
:10195000EEFE029004990CF0E6FC03900CF0ECFE15
:1019600080B2079006200799FEF72FFD13490880E3
:1019700008460088FFF7ADFA1049088027E044E0E8
:1019800080000020BC000020BA0000207C00002065
:101990001F01002078000020241B0020301B0020A5
:1019A000F8000020B3B7EE871388C33F88000020FB
:1019B000AC000020741600208A000020AE00002039
:1019C000CC1800209C0000200020FE490880FE4822
:1019D00000780121B1EBD01F17D1FB48407800F00F
:1019E000010090B1F948407820F080008030F7493C
:1019F00048700846407820F040004870F14802885E
:101A0000F34801880020FEF7B8FC099801283FF44C
:101A100055AE3946EF48FFF7EEFD3946EE48FFF781
:101A2000EAFD07EB470040000A2190FBF1F0C4B249
:101A300007EBC70090FBF1F000F0FF0A544504D11A
:101A40004FF000084FF0000944E00020059004909A
:101A5000264615E0DF4931F816000CF068FE0390C9
:101A600005990CF00BFC0590DB4931F816000CF0E1
:101A70005EFE039004990CF001FC0490701CC6B249
:101A80005645E7DBAAEB0400C6B230460CF04FFE29
:101A90000146029005980CF07BFC03900CF04CFE84
:101AA0001FFA80F830460CF042FE0146029004987E
:101AB0000CF06EFC03900CF03FFE1FFA80F94046DC
:101AC000FFF707FA80464846FFF703FA81460020F1
:101AD00005900490C14820F81580C14820F8159061
:101AE000B94800780121B1EBD01F19D1B648407830
:101AF00000F00100A0B1B548407820F080008030AF
:101B0000B24948700846407820F040004870B44818
:101B100030F81520B14830F815100020FEF72DFCE4
:101B2000681CC5B2AF480078854219DA05F131006A
:101B3000AD490871A44800780121B1EBD01F03D151
:101B4000A949022006F03AFE012009904FF0000852
:101B50004FF00009032006900020089000277DE048
:101B60009948407820F0020097494870084640782C
:101B700020F0040048700020099000240BE09848F1
:101B800030F81430954830F81420214697A00CF016
:101B90008DFF601CC4B2934800788442EFDB8A4812
:101BA00000780121B1EBD01F4CD19549022006F0FD
:101BB00005FE8548807800F0010040B182488078B9
:101BC00020F00100804988700220FEF727FF7E4840
:101BD000407800F00100A0B37B4840780121B1EBD0
:101BE000D01F06D17948407820F00200801C774948
:101BF00048707648407820F00100401C73494870D6
:101C00000846407820F080008030487008464078D0
:101C100020F04000403048700846007820F08000F6
:101C2000803008700846007820F040000870681E78
:101C30006B4B33F81020694B33F810100020FEF77F
:101C40009CFB08E06048407800F0010018B16C4946
:101C5000002006F0B3FD0C206A490870694800783E
:101C600003283FF42AAD0BB0BDE8F08F2DE9F04F0B
:101C70008FB014210AA80CF0E2FA142105A80CF088
:101C8000DEFA002500260024A046A146A24600BF99
:101C90005D49002006F092FD00204D490880494929
:101CA00008805A4908805A488078401CC7B2464884
:101CB000007820F01000103043490870C9E10AF0A4
:101CC00082FF0520FFF73CF9012879D100263E4824
:101CD0000078C0F3001000B300204E4908803A4855
:101CE000007820F0100038490870002F15DD781EAC
:101CF000C7B2002F0EDD032047490870002048704E
:101D00004D2088703120C87008460771002006F009
:101D100055FD02E000203B4908702B48007800F098
:101D200001000028CAD02848007820F00100264988
:101D30000870052004F040FC0AA921F8150031F8CC
:101D400015000CF0F4FC834649460CF097FA8146E6
:101D5000062004F031FC05A921F8150031F8150022
:101D60000CF0E5FC834651460CF088FA8246681C6C
:101D7000C5B20A2DA2DB08F101001FFA80F827493D
:101D800048460CF005FB814648460CF002FD244A0B
:101D9000244BCDE900010CF0E0FBCDE902010CF091
:101DA0003BFD8146204800880CF0C1FC8346494633
:101DB0000CF04EFD4AD21C4800880CF0B8FC35E00F
:101DC0008EE00000AE0000207C000020800000209B
:101DD000AC00002074160020CC180020241B00202A
:101DE000301B0020B8000020F80000200D0A2575E7
:101DF000204C3D25752C523D25750D0A0000000034
:101E00001F0100207800002007010020BE000020F4
:101E1000601600209A000020A857002000002041F2
:101E2000B3B7EE871388C33F88000020494603906C
:101E30000CF079FA83460CF07FFC80B20490052008
:101E40000499FEF7C2FAF949088002E00020F74938
:101E50000880F6480088F64921F81400F5495046F4
:101E60000CF096FA824650460CF093FCF24AF34B83
:101E7000CDE900010CF071FBCDE902010CF0CCFCC6
:101E80008246EF4800880CF052FC834651460CF025
:101E9000DFFC13D2EA4800880CF049FC514603905D
:101EA0000CF041FA83460CF047FC80B20490062007
:101EB0000499FEF78AFAE349088002E00020E1492C
:101EC0000880E0480088E04921F81400601C84B2D2
:101ED000B4F5967F00DB00240025A946AA46B8E0A9
:101EE000DA48007800F0010000287DD0D74800785B
:101EF00020F00100D5490870052004F05DFB0AA917
:101F000021F8160031F816000CF011FC8346494602
:101F10000CF0B4F98146062004F04EFB05A921F827
:101F2000160031F816000CF002FC834651460CF006
:101F3000A5F98246701CC6B20A2E6ADBBD49484626
:101F40000CF026FA814648460CF023FCBA4ABB4BFB
:101F5000CDE900010CF001FBCDE902010CF05CFCC5
:101F60008146BB4800880CF0E2FB834649460CF0F2
:101F70006FFC13D2B64800880CF0D9FB4946039099
:101F80000CF0D1F983460CF0D7FB80B20490052009
:101F90000499FEF71AFAA549088002E00020A34937
:101FA0000880A44950460CF0F3F9824650460CF0E4
:101FB000F0FBA14AA14BCDE900010CF0CEFACDE92E
:101FC00002010CF029FC82469D4800880CF0AFFB12
:101FD000834651460CF03CFC15D2994800880CF021
:101FE000A6FB5146039000E013E00CF09CF98346F9
:101FF0000CF0A2FB80B2049006200499FEF7E5F9EC
:102000009049088002E000208E4908800026B146F1
:10201000B2468E480078C0F3C00048B18B480078C3
:1020200020F00800894908708A49002006F0C6FBA4
:1020300089488078401CC7B20020884908808348BE
:10204000007820F01000103080490870002500242E
:10205000A0468348007804283FF431AEB8F5967F57
:1020600001DB4FF496784FF00009CA46042415E0CE
:102070006F4931F814000CF05AFB834649460CF0C6
:10208000FDF88146704931F814000CF050FB83468E
:1020900051460CF0F3F88246601C84B24445E7DBFD
:1020A000A8F104000CF03AFB0146039048460CF0FE
:1020B0006FF983460CF040FB6A4908806A490020AA
:1020C00006F07CFB0020664908700FB0BDE8F08F79
:1020D000F8B5002764220021644805F049FA6348F6
:1020E0000578012D01DB0F2D75DD0F205F4908708C
:1020F000084605780A20487000208870C8700B20B8
:1021000008710020487188710C20C8710020087285
:1021100048720D2088720020C87208730E20487320
:1021200000208873C8730F200874002048748874D6
:102130001020C8740020087548751120887500208B
:10214000C87508761220487600208876C876132055
:1021500008770020487788771420C877002081F816
:10216000200081F82100152081F82200002081F84C
:10217000230081F82400162081F82500002081F832
:10218000260081F82700172081F82800002081F818
:10219000290081F82A00182081F82B00002081F8FE
:1021A0002C0081F82D0000245FE104EB4400401C6A
:1021B0002E490E5C04EB4400801C085C8DF8000086
:1021C00004EB4400C01C085C8DF80100A6F10A0075
:1021D0000F2871D200E04CE1DFE800F0081C4F5FEF
:1021E00074889CB4C4D4E4F9F2F1F000BDF80000A6
:1021F000032803DBBDF80000092806DD032016498B
:1022000088701A498870012703E0BDF80000124960
:10221000887027E1BDF80000012829DD01200E4962
:10222000C87012494871012726E00000AC00002068
:102230007416002000002041B3B7EE871388C33F17
:102240008A000020AE000020CC1800207C00002076
:10225000880000202F010020601600209A00002036
:1022600078000020BE0000201F0100209C590020A3
:10227000BDF80000FD49C870F4E0BDF80000012879
:1022800006DD0120F9490871F9490872012703E0C8
:10229000BDF80000F5490871E4E0BDF8000003282E
:1022A00003DBBDF80000092807DD0320EF49487172
:1022B000EF49C872012704E0D3E0BDF80000EB4904
:1022C0004871CFE0BDF80000032803DBBDF8000033
:1022D000092806DD0520E5498871E549887301274D
:1022E00003E0BDF80000E1498871BBE0BDF80000E3
:1022F000032803DBBDF80000092806DD0820DB49C0
:10230000C871DB494874012703E0BDF80000D749D4
:10231000C871A7E0BDF80000012807D0BDF8000093
:10232000022803D0BDF80000052804D1BDF8000044
:10233000CE49087205E00120CC490872CC490875E5
:1023400001278FE0BDF800001E2806DD0020C749E8
:102350004872C749C875012703E0BDF80000C349AA
:1023600048727FE0BDF800001E2806DD0020BF494E
:102370008872BF498876012703E0BDF80000BB4999
:1023800088726FE0BDF800001E2806DD0020B74906
:10239000C872B7494877012703E0BDF80000B34988
:1023A000C8725FE0BDF800001E280BDD0020AF49B9
:1023B0000873AF4981F82000012707E03CE024E0E2
:1023C00012E004E0BDF80000A84908734AE042F6B4
:1023D000EC40A649A1F80D00EC20A54981F82300A6
:1023E0002C2081F824003DE0BDF80000032807DD23
:1023F00002209E49C8739E4981F82600012703E008
:10240000BDF800009949C8732CE0BDF80000B0F594
:10241000617F0CDD4FF4167094490882582094496E
:1024200081F82900022081F82A00012703E0BDF885
:1024300000008E49088215E0BDF80000142803DB77
:10244000BDF800005A2807DD14208849887488499F
:1024500081F82C00012703E0BDF80000834988744F
:1024600000E000BF00BF601CC4B2AC42FFF69DAEEE
:10247000BCE10024B7E104EB4400401C7C490E5C45
:1024800004EB4400801C085C8DF8000004EB440061
:10249000C01C085C8DF80100A6F10A000F2870D25C
:1024A000DFE800F008253E577592AFD0F3ECEBEA79
:1024B000E9E8E300BDF80000032803DBBDF80000F5
:1024C00009280FDD032069498870032104EB4400CB
:1024D000801C674A1154002104EB4400C01C1154B5
:1024E000012703E0BDF800006049887078E1BDF87D
:1024F000000001280FDD01205C49C870012104EBB8
:102500004400801C5A4A1154002104EB4400C01CB2
:102510001154012703E0BDF800005449C8705FE181
:10252000BDF8000001280FDD01205049087101218C
:1025300004EB4400801C4E4A1154002104EB44007B
:10254000C01C1154012703E0BDF800004749087181
:1025500046E1BDF80000032803DBBDF800000928B0
:1025600010DD032041494871032104EB4400801C25
:102570003F4A1154002104EB4400C01C11540127B0
:1025800004E02CE1BDF800003849487128E1BDF8AD
:102590000000032803DBBDF8000009280FDD05203B
:1025A00032498871052104EB4400801C304A1154E3
:1025B000002104EB4400C01C1154012703E0BDF8C6
:1025C00000002A4988710BE1BDF80000032803DBF5
:1025D000BDF8000009280FDD08202449C871082132
:1025E00004EB4400801C224A1154002104EB4400F7
:1025F000C01C1154012703E0BDF800001B49C8713D
:10260000EEE0BDF80000012807D0BDF80000022868
:1026100003D0BDF80000052804D1BDF8000013491F
:1026200008720EE0012011490872012104EB4400F8
:10263000801C0F4A1154002104EB4400C01C1154AB
:102640000127CDE0BDF800001E2819DD0020074954
:102650004872002104EB4400801C054A115404EB2D
:102660004400C01C115401270EE09BE060160020BE
:102670009C5900207BE061E04FE036E01DE004E083
:10268000BDF80000FE494872AAE0BDF800001E280F
:102690000EDD0020FA498872002104EB4400801C02
:1026A000F84A115404EB4400C01C1154012703E004
:1026B000BDF80000F249887292E0BDF800001E28C3
:1026C0000EDD0020EE49C872002104EB4400801C9E
:1026D000EC4A115404EB4400C01C1154012703E0E0
:1026E000BDF80000E649C8727AE0BDF800001E2877
:1026F0000EDD0020E2490873002104EB4400801C39
:10270000E04A115404EB4400C01C1154012703E0BB
:10271000BDF80000DA49087362E042F6EC40D8499F
:10272000A1F80D00EC2104EB4400801CD54A1154A3
:102730002C2104EB4400C01C115451E0BDF80000F2
:1027400003280FDD0220CE49C873022104EB4400A8
:10275000801CCC4A1154002104EB4400C01C1154CD
:10276000012703E0BDF80000C549C87338E0BDF893
:102770000000B0F5617F10DD4FF41670C04908828B
:10278000582104EB4400801CBE4A1154022104EB82
:102790004400C01C1154012703E0BDF80000B849F3
:1027A00008821DE0BDF80000142803DBBDF800001E
:1027B0005A280FDD1420B2498874142104EB440018
:1027C000801CB04A1154002104EB4400C01C115479
:1027D000012703E0BDF80000A949887400E000BFAC
:1027E00000BF601CC4B2AC42FFF645AE012F09D158
:1027F000002004F03AFD05EB4500421C0021A148F1
:1028000004F0A9FEF8BD00B587B01122152101A87A
:1028100004F0AEFE112201A99B480BF0F7FC112237
:10282000162101A804F0A4FE112201A997480BF07B
:10283000EDFC1122172101A804F09AFE112201A932
:1028400093480BF0E3FC1122182101A804F090FE3C
:10285000112201A98F480BF0D9FC1122192101A8DE
:1028600004F086FE112201A98B480BF0CFFC112247
:102870001A2101A804F07CFE112201A987480BF05F
:10288000C5FC11221B2101A804F072FE112201A92E
:1028900083480BF0BBFC11221C2101A804F068FE48
:1028A000112201A97F480BF0B1FCFFF711FC19229E
:1028B0000F21744804F05CFE7248007E552824D035
:1028C00000207049087048708870C8703020087106
:1028D00048718871C871087248728872C87208732A
:1028E00048738873C873087448748874C87408750A
:1028F00048758875C875552008760F2004F0B5FC1A
:1029000019220F215F4804F026FE1B22142166487D
:1029100004F02EFE6448807E552837D0C0206249DE
:102920000870A8204870642088700120C870FF20BB
:102930000871487188710020C871C0200872A820F1
:102940004872642088720320C872C820087361200E
:10295000487300208873C873087448748874C874F6
:10296000C0200875A820487501208875C820C87542
:10297000C72008766120487655208876142004F018
:1029800074FC1B221421484804F0E5FD07B000BD8B
:102990002DE9F04F8DB00024A146A34600200C90F5
:1029A0000B900A900990089024E10AF00CF93F4836
:1029B0000078C0F3C000002860D03C48007820F0C8
:1029C00008003A490870052004F094F905460BF018
:1029D000AEFE044620460BF0DCFE0746344A354B7B
:1029E0000BF0BBFD05460BF017FF0446324800888C
:1029F0000BF09DFE054621460BF02AFF15D22E480E
:102A000000880BF094FE064621460BF08CFC054630
:102A10000BF092FE80B2ADF81000BDF8101005204A
:102A2000FDF7D3FCADF8000002E00020ADF8000097
:102A3000062004F05FF905460BF079FE8146484612
:102A40000BF0A7FE05461A4A1A4B0BF086FD074607
:102A50000BF0E2FE8146194800880BF068FE05463F
:102A600049460BF0F5FE38D2144800880BF05FFEA3
:102A7000064621460BF057FC054621E0A1E0000088
:102A8000601600209C590020D8150020E915002070
:102A9000FA1500200B1600201C1600202D16002011
:102AA0003E1600204F160020E46600207C00002027
:102AB000B3B7EE871388C33F880000208A00002048
:102AC0000BF03AFE80B2ADF81200BDF812100620ED
:102AD000FDF77BFCADF8020002E00020ADF802003B
:102AE0001320FC49087000204870432088700220A1
:102AF000C8700120087105204871F7490888C1177E
:102B000000EB11610912A0EB0121F24A9171F24927
:102B10000888C11700EB1161090AD17120460BF03A
:102B20000BFEEC49087220460BF006FE000AE9494C
:102B30004872BDF80000C11700EB11610912A0EB4B
:102B40000121E44A9172BDF80000C11700EB116148
:102B5000090AD172062011460873E0490888C11796
:102B600000EB11610912A0EB01215173DB490888C8
:102B7000C11700EB1161090A917348460BF0DCFDA7
:102B8000D449C87348460BF0D7FD000AD1490874F0
:102B9000BDF80200C11700EB11610912A0EB012181
:102BA000CC4A5174BDF80200C11700EB1161090A4B
:102BB000917405201146C874FEF7C2F93030C5493A
:102BC0000875C7480078C0F3800098B1C448007801
:102BD00020F00400C24908700AF1010000F0FF0A69
:102BE000C0480078824505DBBA49022005F0E6FDC1
:102BF0004FF0000ABC48007807283FF4D6AE0DB06D
:102C0000BDE8F08F70B506460C4615460E20B1495A
:102C1000087000204870472088705720C87042F222
:102C2000107094FBF0F0087108460079002804DD6C
:102C3000084600793030087102E02020A54908716B
:102C400042F2107094FBF0F100FB11404FF47A71E6
:102C500090FBF1F09F4948710846407928B9084631
:102C60000079202801D1487104E09A484079303039
:102C7000984948714FF47A7094FBF0F100FB1140D1
:102C8000642190FBF1F0934988710846807928B956
:102C900008464079202801D1887104E08D48807968
:102CA00030308C498871642094FBF0F100FB1140B6
:102CB0000A2190FBF1F08749C8710846C07928B90C
:102CC00008468079202801D1C87104E08148C07984
:102CD00030308049C8710A2094FBF0F100FB1140AC
:102CE00030307C4908722020487242F2107095FB07
:102CF000F0F088720846807A002804DD0846807A61
:102D00003030887202E020207249887242F21070DE
:102D100095FBF0F100FB11504FF47A7190FBF1F04C
:102D20006C49C8720846C07A28B90846807A2028BB
:102D300001D1C87204E06748C07A30306549C87272
:102D40004FF47A7095FBF0F100FB1150642190FB79
:102D5000F1F0604908730846007B28B90846C07A3C
:102D6000202801D1087304E05A48007B30305949CB
:102D70000873642095FBF0F100FB11500A2190FBD1
:102D8000F1F0544948730846407B28B90846007B57
:102D9000202801D1487304E04E48407B30304D4933
:102DA00048730A2095FBF0F100FB1150303049497F
:102DB00088732020C873304605F000FD70BD2DE9F2
:102DC000F0470024A14600210520FDF775FD0021F4
:102DD0000620FDF771FDDCE009F0F5FE40480078C3
:102DE000C0F3C0000028F6D03D48007820F008006D
:102DF0003B490870052003F07DFF05460BF097FC6A
:102E0000044620460BF0C5FC0746384A384B0BF009
:102E1000A4FB05460BF000FD04462F4800880BF08C
:102E200086FC054621460BF013FD19D22A4800887E
:102E30000BF07DFC064621460BF075FA05460BF0BB
:102E40007BFC1FFA80FA51460520FDF7BEFA29499E
:102E5000088008460088FEF73CF82649088002E012
:102E6000002024490880062003F044FF05460BF0AB
:102E70005EFC814648460BF08CFC05461B4A1C4B09
:102E80000BF06BFB07460BF0C7FC8146134800882C
:102E90000BF04DFC054649460BF0DAFC2ED20F48EC
:102EA00000880BF044FC064649460BF03CFA054608
:102EB0000BF042FC1FFA80FA51460620FDF785FA16
:102EC0000D49088008460088FEF703F80A49088083
:102ED00017E00000A8570020880000208A0000208A
:102EE0007C0000209800002078000020B3B7EE8717
:102EF0001388C33FAC000020AE0000200020F94939
:102F00000880F94800780121B1EBD01F35D1F6488F
:102F1000407800F0010078B3F3484078B1EBD01F5F
:102F200006D1F248407820F00200801CEF4948703A
:102F3000EE48407820F00100EC494870084640789F
:102F400020F08000803048700846407820F0400033
:102F5000403048700846007820F0800080300870CB
:102F60000846007820F040000870DE480288E048FB
:102F700001880020FDF701FA0BE0DB48407800F003
:102F8000010030B1D7480288D94801880020FFF7F6
:102F900039FED848007800283FF41EAFBDE8F0871E
:102FA00018B51346052404EB8004A4B200949DF8E0
:102FB000004001F8014B9DF8014001F8014B442409
:102FC00001F8014B01F8013B00909DF8004001F829
:102FD000014B9DF8014001F8014B0A2401F8014B17
:102FE000002219E0C44C34F8124000949DF80040CF
:102FF00001F8014B9DF8014001F8014BBF4C34F83A
:10300000124000949DF8004001F8014B9DF80140EA
:1030100001F8014B541CA2B28242E3DB18BD2DE93A
:10302000FE4F8346B0484078C0F3400000287DD072
:10303000052003F0EBFE07460BF079FB0646304611
:103040000BF0A7FB0746AE4AAE4B0BF086FACDE974
:1030500000010BF0E1FB0646AB4800880BF067FB74
:10306000074631460BF0F4FB12D2A74800880BF05C
:103070005EFB804631460BF056F907460BF05CFBD1
:103080001FFA80FA51460520FDF79FF9044600E03B
:103090000024062003F0BAFE07460BF048FB8146E9
:1030A00048460BF076FB0746954A964B0BF055FACF
:1030B000CDE900010BF0B0FB8146944800880BF08D
:1030C00036FB074649460BF0C3FB12D28F480088F7
:1030D0000BF02DFB804649460BF025F907460BF017
:1030E0002BFB1FFA80FA51460620FDF76EF90546C4
:1030F00000E000250D20864908700020487043201C
:1031000088705820C8700220087101204871002082
:10311000887102940520C8719DF8080008729DF816
:103120000900487202950620887200E00FE09DF8C1
:103130000800C8729DF80900087305204873FDF760
:10314000FFFE303072498873584605F037FBBDE802
:10315000FE8F18B56F480278012A01DB0F2A01DDC6
:10316000002018BD0021FEE001EB4100401C694C2D
:10317000235C01EB4100801C205C8DF8000001EB1A
:103180004100C01C205C8DF80100A3F10A000F284B
:103190006FD2DFE800F00817222D3C4B5A6F7A857A
:1031A000909BA1C8D400BDF80000032803DBBDF844
:1031B0000000092801DD0020D3E7BDF80000564CCF
:1031C000A070CDE0BDF80000012801DD0020C8E7B7
:1031D000BDF80000504CE070C2E0BDF800000128CE
:1031E00001DD0020BDE7BDF800004B4C2071B7E0C9
:1031F000BDF80000032803DBBDF80000092801DD4D
:103200000020AEE7BDF80000434C6071A8E0BDF8B7
:103210000000032803DBBDF80000092801DD0020C1
:103220009FE7BDF800003C4CA07199E0BDF800009C
:10323000032803DBBDF80000092801DD002090E72A
:10324000BDF80000344CE0718AE0BDF800000128B0
:1032500007D0BDF80000022803D0BDF80000052803
:1032600004D1BDF800002C4C207201E0002078E76A
:1032700076E073E0BDF800001E2801DD002070E755
:10328000BDF80000244C60726AE0BDF800001E2802
:1032900001DD002065E7BDF800001F4CA0725FE073
:1032A000BDF800001E2801DD00205AE7BDF800002F
:1032B000194CE07254E0BDF800001E2801DD00202A
:1032C0004FE7BDF80000144C207349E042F6EC4093
:1032D000114CA4F80D0043E0BDF8000003281DDDEB
:1032E00000203EE7AE0000207C000020800000208F
:1032F000AC000020780000203C1B00208021002032
:10330000B3B7EE871388C33F880000208A000020EF
:10331000A85700209C59002060160020BDF800002E
:10332000434CE0731CE0BDF80000B0F5617F01DDA7
:10333000002016E7BDF800003D4C208210E0BDF8EB
:103340000000142803DBBDF800005A2801DD00202E
:1033500007E7BDF80000364CA07401E0002000E74C
:1033600000BF481CC1B29142FFF6FEAE0120F8E654
:1033700010B5C0202F490870A820487064208870BC
:103380000120C870FF200871487188710020C87141
:10339000C0200872A8204872642088720320C87276
:1033A000C82008736120487300208873C8730874AC
:1033B00048748874C874C0200875A8204875012016
:1033C0008875C820C875C7200876612048765520C2
:1033D0008876142003F049FF1B221421154804F0BD
:1033E000BAF810BD10B50024002013490880134816
:1033F000007820F010001149087013E009F0E3FB99
:103400000E480078C0F3001038B10C48007820F066
:1034100010000A490870601CC4B2082C02DD0020AC
:1034200007490870064800780C28E7D010BD000056
:1034300060160020E46600209A0000207C00002036
:10344000780000202DE9F04F87B007468A46781CA7
:10345000059000240AE0FA4850F8240004EB8401A7
:10346000F84A02EB011141F82700641CBC42F2DB70
:103470000025B6E0002004902C4628E004EB8401EF
:10348000F04A02EB011151F825000BF082F921F00E
:103490000041CDE9020104980BF07BF9CDE9000170
:1034A000DDE902230BF088F910D204EB8401E54A30
:1034B00002EB011151F825000BF06BF921F00041EE
:1034C000CDE902010BF0A8F90490A046641CBC42AF
:1034D000D4DB002104980BF0BBF904D14FF0FF308E
:1034E00007B0BDE8F08FA84526D0002621E008EB04
:1034F0008800D44901EB001050F82600D24941F869
:10350000260005EB8500CF4901EB001050F826009E
:1035100008EB8801CB4A02EB011141F82600CA48AA
:1035200050F8260005EB850102EB011141F8260059
:10353000761C05988642DADB05EB8500C14901EB74
:10354000001050F82590002148460BF081F902D177
:103550004FF0FF30C4E72E4611E005EB8501B94A74
:1035600002EB011151F8260049460AF011FF05EB64
:103570008501B44A02EB011141F82600761CBE42D7
:10358000EBDD00242AE0AC4227D004EB8400AD49F7
:1035900001EB001050F825B02E461CE005EB85002D
:1035A000A84A02EB001050F8261058460AF0BEFE5A
:1035B000039004EB8400A34A02EB001050F826109D
:1035C00003980AF0B0FE04EB84019E4A02EB01115D
:1035D00041F82600761CBE42E0DD641CBC42D2DB12
:1035E0006D1CBD42FFF646AF002409E004EB8400E9
:1035F000944901EB001050F827004AF82400641C9D
:10360000BC42F3DB01206BE72DE9F04F9BB006468F
:10361000884692469B46DDF89090002524E00020E5
:1036200007A941F8250000240EE005EB85020AEB0E
:10363000021252F8241007AA52F825000AF01EFEC2
:1036400007A941F82500641C4445EEDB40460BF019
:1036500065F807A9039051F8250003990AF098FE30
:1036600007A941F825006D1CB542D8DB0020049065
:10367000002706E05BF8271004980AF0FFFD04908D
:103680007F1C4745F6DB40460BF048F801460390A7
:1036900004980AF07DFE049000243FE000273AE001
:1036A000002004EB8401674A02EB011141F8270076
:1036B00000252DE007EB87020AEB021252F82500E5
:1036C00007AA52F827100AF02BFE04EB84020AEB3B
:1036D0000212029052F8250007AA52F824100AF0AC
:1036E0001FFE019002990AF021FE039004EB840072
:1036F000544A02EB001050F8271003980AF0BEFD60
:1037000004EB84014F4A02EB011141F827006D1CC4
:103710004545CFDB7F1CB742C2DB641CB442BDDB36
:10372000002428E00020464941F8240000251FE03D
:103730005BF8250004990AF0F3FD04EB84020AEB20
:103740000212029052F8250007AA52F824100AF03B
:10375000E7FD019002990AF0E9FD0390384850F81E
:10376000241003980AF08AFD354941F824006D1CA5
:103770004545DDDB641CB442D4DB49463046FFF7E7
:1037800061FE401C20B94FF0FF301BB0BDE8F08F48
:10379000002407E0301B401E59F82000311B49F877
:1037A0002100641CB442F5DB0498C9F80000002431
:1037B0000FE007AA52F82410621C59F822000AF000
:1037C000B5FD0390D9F800100AF0ADFDC9F800006E
:1037D000641CB442EDDBA8EB0600012836DD0020B6
:1037E0000590002414E05BF8240004990AF098FD89
:1037F00002905BF8240004990AF092FD019002996E
:103800000AF094FD039005990AF038FD0590641CB8
:103810004445E8DB0598069000240DE0084A52F87C
:103820002410621C59F822000AF080FD03900699CA
:103830000AF079FD0690641CB442EFDB0DE0000055
:103840003805002018020020880500200021259856
:1038500001604FF07E5126980160012095E72DE927
:10386000F04FADF5637D06460F4693469946DDF869
:10387000B083002403E0002048F82400641CB44214
:10388000F9DB4FF0000A701C874204DA00200DF5C6
:10389000637DBDE8F08F012E01DB052E01DD0020E8
:1038A000F5E700241DE050460AF073FFCDE9020160
:1038B00059F824000AF06DFF21F00041CDE9000124
:1038C000DDE902230AF090FF0AD259F824000AF039
:1038D00060FF21F00041CDE902010AF09DFF824620
:1038E000641CBC42DFDB002150460AF0B1FF01D16D
:1038F0000020CCE750460AF04CFF0022A64BCDE951
:1039000000010AF09CFECDE902010AF085FF824623
:10391000002408E059F8240051460AF039FD06A9B0
:1039200041F82400641CBC42F4DB002512E00024B2
:103930000DE005EB85000BEB001050F8240005EBC3
:1039400085011AAA02EB011141F82400641CBC4253
:10395000EFDB6D1CB542EADB04A805A906AB1AAA89
:10396000CDE90081029039463046FFF74DFE401CFC
:1039700008B900208BE7002507E058F825005146DC
:103980000AF0D4FC48F825006D1CB542F5DD751C25
:1039900003E0002048F825006D1C072DF9DB01200D
:1039A00075E72DE9F0438FB0002500267B4F42F2EA
:1039B0001078002449E07A497A4A127851F82210A6
:1039C00051F8240000210AF043FF04D116B9761CF7
:1039D0006D1C21E038E038460AF0A0FE81467048B0
:1039E000704A127850F8220050F8241048460AF025
:1039F0002FFF10D840460AF091FE81466848694A78
:103A0000127850F8220050F8241048460AF02AFF95
:103A100001D86D1C00E017E061486249097850F850
:103A2000210050F82410681E08AA42F820105C48B3
:103A30005C49097850F821001C3050F82410681EA9
:103A400001AA42F8201000BF641C072CB3DB00243D
:103A500015E008A850F824005149524A127851F84C
:103A6000221041F8240001A850F824104C484D4A77
:103A7000127850F822001C3040F82410641CAC422C
:103A8000E7DB2C4611E048484549464A127851F890
:103A9000221041F8240000214148424A127850F88F
:103AA00022001C3040F82410641C072CEBDB3C483F
:103AB0003C49097850F8210045650FB0BDE8F08316
:103AC000F0B5ADF5517DFFF76CFF00242DE03448D3
:103AD0003449097850F8210050F8240009A941F828
:103AE0002400012618E02E4A2E4B1B7852F8232082
:103AF00052F82410721E02EB820209AB03EB021291
:103B000052F824000AF012FC06EB860109AA02EB27
:103B1000011141F82400761C21482249097850F807
:103B20002100806DB042DEDA641C1D481D49097811
:103B300050F82100406DA042C9DC02A8184A194F74
:103B400000903F7852F8272002F11C03144A154FC9
:103B50003F7852F82720516D114A124F3F7852F8A2
:103B60002720906D09AAFFF77AFE98B100250BE097
:103B700002A850F825100A480A4A127850F8220084
:103B8000383040F825106D1C072DF1DB01200DF5B4
:103B9000517DF0BD0020FAE700002440F0D8FFFF7F
:103BA000D80500200000002000409CC67047052179
:103BB0008A4A517002218A4A117000200CE00B21C0
:103BC00000EB4002854B99548549097800EB40028F
:103BD0001A449170411CC8B20128F0DB0521814ACA
:103BE000517006227F490A7105217F4A1170002019
:103BF0000CE00D2100EB40027A4B99547A49097888
:103C000000EB40021A449170411CC8B20228F0DB5C
:103C10000021764A51700221754A117000200CE093
:103C2000112100EB4002714B99547149097800EB66
:103C300040021A449170411CC8B20128F0DB704761
:103C400070B5002556206B498870002427E004EBEE
:103C5000440062490844807802281ED004EB4400E6
:103C6000095C05EB4500001D2044624A115404EB39
:103C700044005A490844417805EB4500001D2044A2
:103C8000115404EB440055490844817805EB450084
:103C9000001D20441154681CC5B2601CC4B2012C24
:103CA000D5DB002427E004EB44004E49084480782B
:103CB00005281ED004EB4400095C05EB4500001DFF
:103CC00020444C4A115404EB4400464908444178CE
:103CD00005EB4500001D2044115404EB440041490C
:103CE0000844817805EB4500001D20441154681CF0
:103CF000C5B2601CC4B2022CD5DB002428E004EB62
:103D000044003A490844807802281FD004EB44005C
:103D10003949095C05EB4500001D2044354A115422
:103D200004EB440034490844417805EB4500001D8C
:103D30002044115404EB44002F490844817805EBDA
:103D40004500001D20441154681CC5B2601CC4B25B
:103D5000012CD4DB2748C57005EB4500801C2549A4
:103D6000087005EB4500801C4870012003F07DFAC7
:103D700005EB4500021D01211E4803F0ECFB1F4826
:103D800000780121B1EBD01F08D11C484078B1EB7D
:103D9000D01F03D11749022004F010FD70BD10B5EB
:103DA0000520FDF7CDF8012802D10C49887002E00A
:103DB00002200A49887012480088B0F57A7F02DD37
:103DC0000020084988700F480088B0F57A7F02DD2E
:103DD000002104484171FFF733FF10BD01000020AE
:103DE00025000020070000202600002016000020EB
:103DF00027000020A8570020190000207C00002088
:103E0000880000208A0000200CB50020019000905E
:103E10006C48006840F480306A49086000BF694817
:103E2000006800F4003000900198401C0190009858
:103E300018B90198B0F5A06FF1D16248006800F49C
:103E4000003010B10120009001E0002000900098A7
:103E5000012843D15C48006840F010005A490860CE
:103E60000846006820F0030008600846006840F03B
:103E7000020008605348406852494860084640685C
:103E800048600846406840F48060486008464068E2
:103E900020F47C1048600846406840F4E810486010
:103EA0000846006840F08070086000BF4548006820
:103EB00000F000700028F9D04248406820F003006C
:103EC000404948600846406840F00200486000BF32
:103ED0003C48406800F00C000828F9D10CBD10B532
:103EE000FFF792FF10BD10B53648006840F00100A2
:103EF0003449086008464068344908403149486000
:103F000008460068324908402E49086008460068A3
:103F100020F4802008600846406820F4FE004860D5
:103F20004FF41F008860FFF7DAFF4FF00060294967
:103F3000086010BD10B5002100200022214B5B68F5
:103F400003F00C0121B1042906D0082928D107E08B
:103F5000214B224C236027E01F4B204C236023E0A1
:103F6000184B5B6803F47010164B5B6803F48032E7
:103F7000022303EB904022B9194B4343174C2360B3
:103F80000DE0104B5B6803F4003323B1144B434343
:103F9000124C236003E0104B4343104C236003E0BA
:103FA0000D4B0E4C236000BF00BF064B5B68C3F394
:103FB00003130C4CE15C094B1B68CB40074C23609E
:103FC00010BD000000100240002002400000FFF879
:103FD000FFFFF6FE08ED00E000127A002800002046
:103FE00000093D002C00002031490143314A116095
:103FF000704770B5002100230F22C47804B32D4C04
:10400000246804F4E064C4F5E064210AC1F1040307
:10401000CA40447804FA03F184781440214309012A
:10402000254C0678A155047804F01F050124AC4006
:1040300005786D11AD0005F1E025C5F8004109E0F6
:10404000047804F01F050124AC401C4D067876115D
:1040500045F8264070BD1A4A0A400243154B1B1F03
:104060001A60704739B1134A121D12680243114B8E
:104070001B1D1A6006E00F4A121D126882430D4B89
:104080001B1D1A607047042808D14FF0E021096910
:1040900041F004014FF0E022116107E04FF0E02110
:1040A000096921F004014FF0E0221161704700001E
:1040B0000000FA050CED00E000E400E080E100E023
:1040C00080FFFF1F002044490860091D0860091D8A
:1040D0000860091D086041483F4914310860704775
:1040E00000213D498279002A3AD00A4612680368C5
:1040F0009A430B461A600A1D126803689A430B1D07
:104100001A60027911440A6803681A430A60324A45
:104110000832126803689A432F4B08331A601A1D3D
:10412000126803689A432C4B0C331A604279102AA8
:104130000ED11A1F126803681A43274B08331A60FE
:104140001A1D126803681A43234B0C331A600DE0E2
:104150002149427911440A6803681A430A6005E05C
:10416000027911440A6803689A430A607047002183
:10417000016001710C214171002181717047164964
:10418000103109680143144A10321160704701462A
:104190000020114A143212680A400AB1012000E0DE
:1041A000002070470C491431086070470146002018
:1041B0000022094B1B6803EA0102074B14331B68FA
:1041C0000B4013B10AB1012000E000207047024902
:1041D000143108607047000000040140FFFF0F0029
:1041E00001460020FE4A106800F0380008431060C5
:1041F0007047FB49096821F00801F94A116011462E
:104200000968014311607047F549096821F0100100
:10421000F34A116011460968014311607047F14883
:10422000EF494860F04848607047EE48EC49486004
:10423000ED4848607047EA48006940F08000E8496E
:1042400008617047E648006940F08000E449086171
:1042500070470420E249C96801F0010109B1012059
:104260000EE0DF49C96801F0040109B1022007E04E
:10427000DB49C96801F0100109B1032000E0042006
:10428000704700B502460423FFF7E3FF034603E04F
:10429000FFF7DFFF0346521E012B01D1002AF7D1A1
:1042A00002B90523184600BD30B5044604254FF475
:1042B0003020FFF7E6FF0546042D17D1C8480069F6
:1042C00040F00200C649086108464461006940F0B8
:1042D000400008614FF43020FFF7D3FF0546C04887
:1042E000006941F6FD710840BD490861284630BDAE
:1042F00010B504244FF43020FFF7C3FF0446042C0C
:1043000016D1B748006940F00400B5490861084675
:10431000006940F0400008614FF43020FFF7B1FF22
:104320000446AF48006941F6FB710840AC4908619A
:10433000204610BD00B502460423FFF78AFF03465E
:1043400003E0FFF786FF0346521E012B01D1002A2E
:10435000F7D102B90523184600BD10B504244FF467
:104360003020FFF7E7FF0446042C16D19C48006973
:1043700040F004009A4908610846006940F0400096
:1043800008614FF43020FFF7D5FF044694480069D8
:1043900041F6FB71084092490861204610BD00209B
:1043A0008F49C96901F0020109B1012000E0002034
:1043B000704730B5A5250424FFF7F1FF00B10025B3
:1043C0004FF43020FFF75DFF0446042C3AD18548B6
:1043D00083498860844888600846006940F020006E
:1043E00008610846006940F0400008614FF4302041
:1043F000FFF747FF0446042C1BD17948006941F6BA
:10440000DF710840764908610846006940F01000F5
:10441000086176480580E002FFF733FF0446052C6B
:1044200010D06F48006941F6EF7108406C4908618F
:1044300008E0052C06D06A48006941F6EF71084093
:1044400067490861204630BD78B506460C4604250C
:1044500000200090E802FFF714FF0546042D24D148
:104460005F48006940F001005D4908613480E8025E
:10447000FFF707FF0546042D10D1B01C0090200C5B
:1044800000990880E802FFF7FCFE054654480069E1
:1044900041F6FE7108405249086106E05048006943
:1044A00041F6FE7108404E490861284678BD70B556
:1044B00004460D460426F002FFF7E3FE0646042EEE
:1044C00011D14748006940F0010045490861258045
:1044D000F002FFF7D6FE06464148006941F6FE713C
:1044E00008403F490861304670BD70B505460E462C
:1044F0000424E002FFF7C5FE0446042C17D1394816
:1045000037498860384888600846006940F01000E4
:1045100008612E80E002FFF7B4FE0446052C06D0A9
:104520002F48006941F6EF7108402D490861204687
:1045300070BD2DE9F04304464FF6FF763746B0468E
:10454000B1460425E443E6B2C4F30727C4F30748A1
:104550004FEA1469E802FFF794FE0546042D49D19D
:1045600020481F498860204888600846006940F05C
:1045700010000861FF2E06D01C4808300680E802B3
:10458000FFF77FFE0546042D08D1FF2F06D0174800
:104590000A300780E802FFF774FE0546042D0AD1B1
:1045A000B8F1FF0F07D011480C30A0F80080E802E6
:1045B000FFF767FE0546042D0AD1B9F1FF0F07D0BA
:1045C0000A480E30A0F80090E802FFF75AFE0546B0
:1045D000052D0FD00248006941F6EF71084007E051
:1045E0000020024023016745AB89EFCD00F8FF1F93
:1045F000664908612846BDE8F08330B505460424C5
:104600004FF43020FFF73DFE0446042C41D16048B2
:104610005E4988605F4888600846006940F0200075
:1046200008610846006940F0400008614FF43020FE
:10463000FFF727FE0446042C22D15448006941F6B6
:10464000DF710840514908610846006940F01000D8
:1046500008611DB100205049088002E0A5204E49A4
:1046600008804FF43020FFF70CFE0446052C10D0D4
:104670004648006941F6EF7108404449086108E086
:10468000052C06D04148006941F6DF7108403F49DA
:104690000861204630BDF0B505460E461746042495
:1046A0003B483A4988603B488860E002FFF7E9FDF3
:1046B0000446042C19D13548006940F010003349F4
:1046C000086147F0F800304328433349891C0880CB
:1046D000E002FFF7D6FD0446052C06D02B48006902
:1046E00041F6EF710840294908612046F0BD27488E
:1046F000C069800870472548006A70470020234938
:10470000096801F0200109B1012000E00020704794
:1047100029B11E4A126902431C4B1A6104E01B4A6C
:1047200012698243194B1A61704701460020012922
:1047300008D1164AD26902F001020AB1012008E04C
:10474000002006E0114AD2680A400AB1012000E0C8
:10475000002070470D49C860704704200B49C968A4
:1047600001F0010109B101200EE00849C96801F01A
:10477000040109B1022007E00449C96801F01001F1
:1047800009B1032000E0042070470000002002402F
:1047900023016745AB89EFCD00F8FF1F10B5044634
:1047A000CC48844208D10121042000F04DFB0021B7
:1047B000042000F049FB46E0C748844208D10121AB
:1047C000082000F041FB0021082000F03DFB3AE00A
:1047D000C248844208D10121102000F035FB00219D
:1047E000102000F031FB2EE0BD48844208D10121A9
:1047F000202000F029FB0021202000F025FB22E0F2
:10480000B848844208D10121402000F01DFB00215E
:10481000402000F019FB16E0B348844208D1012182
:10482000802000F011FB0021802000F00DFB0AE049
:10483000AE48844207D10121801500F005FB00211C
:10484000A01500F001FB10BD10B50121084600F0D5
:10485000FBFA0021012000F0F7FA10BD2DE9F0412C
:10486000024600250026002000230024002791F89E
:1048700003C00CF00F0591F803C00CF0100CBCF154
:10488000000F03D091F802C04CEA050591F800C072
:10489000BCF1000F31D0146800202BE04FF0010C68
:1048A0000CFA00F3B1F800C00CEA03069E4220D1D6
:1048B00083004FF00F0C0CFA03F7BC4305FA03FC1E
:1048C0004CEA040491F803C0BCF1280F06D14FF064
:1048D000010C0CFA00FCC2F814C00AE091F803C005
:1048E000BCF1480F05D14FF0010C0CFA00FCC2F8E6
:1048F00010C0401C0828D1D31460B1F800C0BCF12E
:10490000FF0F34DD546800202EE000F1080C4FF05A
:10491000010808FA0CF3B1F800C00CEA03069E4245
:1049200021D183004FF00F0C0CFA03F7BC4305FABA
:1049300003FC4CEA040491F803C0BCF1280F05D134
:1049400000F1080C08FA0CF8C2F8148091F803C0C2
:10495000BCF1480F07D100F1080C4FF0010808FA2C
:104960000CF8C2F81080401C0828CED35460BDE873
:10497000F0814FF6FF710180022181700421C17026
:1049800070470246002093680B400BB1012000E005
:10499000002070470146886880B2704702460020B8
:1049A000D3680B400BB1012000E0002070470146A6
:1049B000C86880B2704701617047416170470AB1B1
:1049C000016100E041617047C16070474FF480327F
:1049D0000A4382618161826182698269704702460D
:1049E0000020434B18684FF68073184040EA0210CD
:1049F00008433F4B186070473E49C8617047F0B5A7
:104A00000A46002300240021002500F00046B6F1EC
:104A1000004F02D1364EF16901E0354E7168C0F3A6
:104A2000034583B200F44016B6F5401F08D121F0CB
:104A300070612F4E766826F070662D4F7E6012E012
:104A400000F48016B6F5801F06D1032606FA05F499
:104A5000A14341F0706106E0460D360103FA06F607
:104A6000B14341F0706122B1460D360103FA06F6FA
:104A7000314300F00046B6F1004F02D11C4EF16107
:104A800001E01B4E7160F0BD30B500228B071C0F9A
:104A90000F2303FA04F2164B08338C1053F824301A
:104AA0009343134C08348D1044F8253023468C1062
:104AB00053F824308C07240F00FA04F423430C4CE1
:104AC00008348D1044F8253030BD0A49DC310860C7
:104AD0007047000000080140000C01400010014038
:104AE0000014014000180140001C0140002001405A
:104AF00000000140000020420E49086070470D4947
:104B0000486070470B49886070474AF6AA200949F7
:104B1000086070474CF6CC40064908607047014673
:104B20000020044AD2680A400AB1012000E00020B7
:104B30007047000000300040DF48006840F001008E
:104B4000DD49086008464068DC490840DA494860A9
:104B500008460068DA490840D749086008460068F6
:104B600020F4802008600846406820F4FE00486079
:104B70004FF41F0088607047CF49096821F48031E5
:104B8000CD4A11601146096821F480211160B0F509
:104B9000803F03D0B0F5802F0ED106E0C6490968EA
:104BA00041F48031C44A116007E0C349096841F407
:104BB000A021C14A116000E000BF00BF704710B5DE
:104BC00001460022002300204A11012A02D1BA4CDA
:104BD000236806E0022A02D1B74C236A01E0B64CF2
:104BE000636A01F01F02012494401C400CB10120B3
:104BF00000E0002010BD38B5002000900024002502
:104C000000BF3120FFF7DBFF05460098401C0090F5
:104C10000098B0F5A06F01D0002DF2D03120FFF741
:104C2000CEFF08B1012400E00024204638BD014633
:104C30000020A14A106820F0F80040EAC10010608E
:104C40007047A04908607047024600209A4B586898
:104C500020F47C1042EA01031843974B58607047D8
:104C600098490866704701460020934A506820F032
:104C700003000843506070478F48406800F00C0004
:104C80007047014600208C4A506820F0F00008432D
:104C90005060704701460020874A506820F4E06069
:104CA00008435060704701460020834A506820F452
:104CB000605040EAC1005060704729B17E4A527A84
:104CC00002437D4B5A7204E07B4A527A82437A4B0C
:104CD0005A7270477B49D8310860704701460020FE
:104CE000754A506820F440400843506070470021E6
:104CF000714A20321170704A82F82010012802D0C7
:104D000004280AD104E001216B4A2032117005E029
:104D10000521694A2032117000E000BF00BF7047D2
:104D20006949086070476449096A0143624A11622F
:104D30007047654944390860704730B5002100224A
:104D4000002400235C4D6D6805F00C0121B104299D
:104D500005D0082923D105E05C4D056022E05B4DBC
:104D600005601FE0544D6D6805F47012524D6D687A
:104D700005F48034022505EB92421CB9544D55438D
:104D800005600BE04C4D6D6805F400351DB1504DCC
:104D90005543056002E04D4D5543056002E04B4D23
:104DA000056000BF00BF444D6D6805F0F0010909C2
:104DB000484D6B5C0568DD4045603F4D6D6805F40E
:104DC000E061090A434D6B5C4568DD4085603A4D02
:104DD0006D6805F46051C90A3E4D6B5C4568DD4065
:104DE000C560354D6D6805F44041890B3A4D6B5CEB
:104DF000C568B5FBF3F5056130BD29B12E4A52698E
:104E000002432D4B5A6104E02B4A526982432A4BDC
:104E10005A61704729B1284A92690243264B9A6128
:104E200004E0254A92698243234B9A61704729B175
:104E3000214AD2690243204BDA6104E01E4AD2695A
:104E400082431D4BDA61704729B11B4AD268024385
:104E5000194BDA6004E0184AD2688243164BDA60D4
:104E6000704729B1144A12690243134B1A6104E0D6
:104E7000114A12698243104B1A6170471249403936
:104E8000086070470F49C86470470B49C871704784
:104E90000948406A40F080700749486270470146FF
:104EA0000020054A92680A400AB1012000E0002073
:104EB0007047014988727047001002400000FFF8F7
:104EC000FFFFF6FE000042428004424200127A00D8
:104ED00000093D003C0000204C00002010B50446B5
:104EE000BE48844208D101218014FFF7ADFF0021A4
:104EF000A014FFF7A9FF16E0B948844208D10121A8
:104F00000014FFF7AEFF00212014FFF7AAFF0AE00C
:104F1000B448844207D10121C013FFF7A2FF00214A
:104F2000E013FFF79EFF10BD10B50022028802F4C7
:104F300041520B884C8823438C882343CC882343DD
:104F40000C8923434C8923438C892343CC892343F5
:104F50001A430280838B4FF2FF74234083830B8AB2
:104F6000038210BD2DE9F04F85B005460C464FF089
:104F7000000902274FF000084FF0010B0026B2464F
:104F8000A88B4FF240010840A88302202884B5F87E
:104F90001C90A068022801D100BF38E0A08810B999
:104FA0004FF0010B01E04FF0020B8D48854200D11C
:104FB00000E000BF6846FFF7C0FEDDF800A0E08813
:104FC000B0F5007F0AD14FEA1A2000EB80004000C4
:104FD000A168B0FBF1F0401D86B20BE04FEA4B1028
:104FE000BAFBF0F000EB80004000A168B0FBF1F0EC
:104FF000401D86B20A20B6FBF0F606F00108A6EBCB
:105000000800C0F34F074FF6FF7000EA0828022F90
:1050100001DBFF2F02DD02274FF00008E08840EAA5
:10502000080038432884A088A18908436188084380
:105030002188084340F4006040EA0909A5F81C9063
:1050400005B0BDE8F08F0021018041808180C180E2
:10505000018141818181C181072101827047002145
:10506000018041808180C180022181600021818195
:10507000704721B1028842F04002028004E00288B9
:105080004FF6BF731A400280704721B1828B42F401
:105090008062828304E0828B4FF6FF331A40828362
:1050A000704730B5002400230C110125A540ABB298
:1050B0001AB185881D43858002E085889D438580DF
:1050C00030BD1AB183880B43838002E083888B4311
:1050D00083807047818170470146888970474FF609
:1050E000FF62914204D0028842F48072028004E0A0
:1050F00002884FF6FF631A400280704721B1828810
:1051000042F00402828004E082884FF6FB731A406A
:105110008280704702884FF2FF731A400280028833
:105120000A4302807047018841F480510180704732
:1051300021B1028842F40052028004E002884DF658
:10514000FF731A400280704702460020012901D0F7
:10515000108B00E0908A70470146088A7047B1F5CD
:10516000804F04D1028842F48042028004E0028829
:105170004BF6FF731A4002807047024600201389E5
:105180000B400BB1012000E000207047CA430281B0
:105190007047F0B50246002000240023002501F0EE
:1051A0000F070126BE40B4B20B1101269E40B3B2D8
:1051B000968806EA03051689264016B10DB101202E
:1051C00000E00020F0BD10B5002201F00F04012323
:1051D000A3409AB2D343038110BD000000300140C8
:1051E00000380040003C004010B50446FE488442B0
:1051F00008D10121C014FFF727FE0021E014FFF7BA
:1052000023FEC4E0B4F1804F08D101210846FFF726
:1052100028FE00210120FFF724FEB8E0F348844275
:1052200008D101210220FFF71CFE00210220FFF718
:1052300018FEACE0EE48844208D101210420FFF7BB
:1052400010FE00210420FFF70CFEA0E0E948844294
:1052500008D101210820FFF704FE00210820FFF7F4
:1052600000FE94E0E448844208D101211020FFF7B9
:10527000F8FD00211020FFF7F4FD88E0DF488442AC
:1052800008D101212020FFF7ECFD00212020FFF7AD
:10529000E8FD7CE0DA48844208D101214014FFF7A0
:1052A000D3FD00216014FFF7CFFD70E0D5488442A4
:1052B00009D10121C804FFF7C7FD00214FF40020E8
:1052C000FFF7C2FD63E0D048844209D101210805FF
:1052D000FFF7BAFD00214FF48010FFF7B5FD56E04F
:1052E000CA48844209D101214805FFF7ADFD0021DC
:1052F0004FF40010FFF7A8FD49E0C548844208D1EB
:1053000001214020FFF7ADFD00214020FFF7A9FD5E
:105310003DE0C048844208D101218020FFF7A1FD73
:1053200000218020FFF79DFD31E0BB48844208D179
:1053300001218015FFF795FD0021A015FFF791FDD4
:1053400025E0B648844209D101210804FFF77CFD1D
:1053500000214FF48030FFF777FD18E0B048844219
:1053600009D101214804FFF76FFD00214FF40030FF
:10537000FFF76AFD0BE0AB48844208D101218804A5
:10538000FFF762FD00214FF48020FFF75DFD10BDA7
:1053900000220288944B98420ED0994B98420BD031
:1053A000B0F1804F08D0914B984205D0904B984275
:1053B00002D0904B984204D14FF68F731A404B881D
:1053C0001A438D4B984207D08C4B984204D04FF62D
:1053D000FF431A40CB881A4302808B8883850B8851
:1053E0000385814B98420BD0854B984208D08B4B5C
:1053F000984205D08A4B984202D08A4B984201D1FC
:105400000B7A038601238382704770B50024002243
:105410000023058C4FF6FE7635400584028C838888
:10542000048B4FF68F752C40B51E2C400D882C43F5
:10543000751E2A400D892A434D882A436A4DA84289
:105440000BD06F4DA84208D0744DA84205D0744DC2
:10545000A84202D0734DA84213D14FF6F7752A40E7
:105460004D892A434FF6FB752A408D882A434FF613
:10547000FF652B404FF6FF552B408D892B43CD897F
:105480002B4383800483CD888586028470BD70B5EC
:10549000002400220023058C4FF6EF76354005846A
:1054A000028C8388048B48F6FF752C404FF6FF452D
:1054B0002C400D884FF6FF7606EA05252C434FF663
:1054C000DF752A400D8906EA05152A434D8806EA4C
:1054D00005152A43444DA84202D0494DA8421DD18A
:1054E0004FF67F752A404D894FF6FF7606EA05157F
:1054F0002A434FF6BF752A408D8806EA05152A43D0
:105500004FF6FF352B404FF2FF752B408D8906EA91
:1055100085052B43CD8906EA85052B4383800483CB
:10552000CD880587028470BD70B500240022002359
:10553000058C4FF6FF6635400584028C8388848B8A
:105540004FF68F752C404FF6FC752C400D882C4380
:105550004FF6FF552A400D894FF6FF7606EA0525DE
:105560002A434D8806EA05252A431F4DA84202D04A
:10557000234DA8421DD14FF2FF752A404D894FF6A9
:10558000FF7606EA05252A434FF6FF352A408D8827
:1055900006EA05252A434EF6FF752B404DF6FF75AA
:1055A0002B408D8906EA05152B43CD8906EA0515A2
:1055B0002B4383808483CD888587028470BD70B53A
:1055C000002200230024058C4EF6FF76354005842A
:1055D000038C8488828B48F6FF752A404FF6FF457E
:1055E0002A400D8820E00000002C0140000400400B
:1055F00000080040000C0040001000400014004073
:1056000000340140004C0140005001400054014072
:1056100000180040001C00400020004000400140F5
:1056200000440140004801404FF6FF7606EA052598
:105630002A434DF6FF752B400D8906EA05352B43AD
:105640004D8806EA05352B43FA4DA84202D0FA4DA3
:10565000A84208D14BF6FF752C408D894FF6FF7696
:1056600006EA85152C4384808283CD88A0F84050BB
:10567000038470BD828B4FF2FF331A408283828B8A
:105680004FF6FF7303EA01231A4382837047F0B594
:105690000C461546002200210026078C4EF6FF7CA2
:1056A00007EA0C070784828B018C4FF6FF7707EA25
:1056B000043640F6FF473A404FF6FF7707EA0527E2
:1056C0003A434FF6FF7707EA03373A43D94FB842D8
:1056D0000ED0D94FB8420BD0B0F1804F08D0D74F81
:1056E000B84205D0D64FB84202D0D64FB84206D104
:1056F0004DF6FF77394046F48057394305E047F6C9
:10570000FF57394044F48057394382830184F0BD08
:10571000828B4FF6F3731A408283828B0A43828313
:105720007047F0B50C461546002200210026078C74
:105730004FF6FF6C07EA0C070784828B018C4FF64B
:10574000FF7707EA04264FF60C773A404FF6FF77CB
:1057500007EA03172F433A43B64FB8420ED0B64F6D
:10576000B8420BD0B0F1804F08D0B44FB84205D04A
:10577000B34FB84202D0B34FB84206D14FF6FF57ED
:10578000394046F48077394305E04FF2FF573940FE
:1057900044F48077394382830184F0BD028B4FF259
:1057A000FF331A400283028B4FF6FF7303EA012393
:1057B0001A4302837047F0B50C46154600220021BB
:1057C0000026078C4FF6EF7C07EA0C070784028B54
:1057D000018C4FF6FF7707EA041640F6FF473A4080
:1057E0004FF6FF7707EA03373A434FF6FF7707EAAA
:1057F00005273A438F4FB8420ED08F4FB8420BD097
:10580000B0F1804F08D08D4FB84205D08C4FB842D0
:1058100002D08C4FB84206D14FF6DF77394046F0C0
:105820001007394305E04FF65F77394044F0100721
:10583000394302830184F0BD028B4FF6F3731A40A3
:105840000283028B0A4302837047F0B50C4615466B
:1058500000220021068C4FF6FE773E400684028B24
:10586000018C4FF60C7632407E1C06EA03162E435E
:105870003243704EB0420ED06F4EB0420BD0B0F1FA
:10588000804F08D06D4EB04205D06D4EB04202D070
:105890006C4EB04206D14FF6FD76314044F0010621
:1058A000314305E04FF6F576314044F001063143CF
:1058B00002830184F0BD70B505460C465D48854203
:1058C0000ED05D4885420BD0B5F1804F08D05B48C3
:1058D000854205D05A48854202D05A48854200D1B7
:1058E00000E000BF208850B92389A288618828463B
:1058F000FFF7ABFFE1882846FFF79EFF25E02088F1
:1059000004280AD12389A28861882846FFF753FF1B
:10591000E1882846FFF742FF17E0208808280AD1CF
:105920002389A28861882846FFF7FBFEE188284684
:10593000FFF7EEFE09E02389A28861882846FFF779
:10594000A6FEE1882846FFF795FE70BD2DE9F041DF
:1059500005460C4600260127608808B9022600E0AB
:105960000026A088012801D1022700E00127208815
:10597000A0B92389A28861882846FFF766FFE188DD
:105980002846FFF759FF23893A4631462846FFF754
:1059900012FFE1882846FFF701FF13E02389A28860
:1059A00061882846FFF707FFE1882846FFF7F6FEE3
:1059B00023893A4631462846FFF747FFE1882846C3
:1059C000FFF73AFFBDE8F0810A884B881A438B88BD
:1059D0001A43CB881A430B891A434B891A438B8984
:1059E0001A43A0F8442070474FF6FF7181800021D0
:1059F0000180C18041800172704700210180418097
:105A00008180C180018141818181C18170470021F4
:105A100001804180012181800021C1800181704786
:105A20000021018041808180C1800181418181818B
:105A300070470000002C0140003401400004004089
:105A400000080040000C004021B1028842F0010231
:105A5000028004E002884FF6FE731A40028070470D
:105A600031B1B0F8442042F40042A0F8442005E0EF
:105A7000B0F84420C2F30E02A0F8442070471AB1D7
:105A800083890B43838102E083898B438381704741
:105A90008182704741EA0203A0F8483070471AB18A
:105AA00083890B43838102E083898B438381704721
:105AB00001894FF6F8721140018170470A460021B2
:105AC00001894FF68F73194011430181704730B53A
:105AD00004460D4629462046FFF7F0FF208940F096
