:020000040800F2
:10000000C80F002021030008492A00084B2A0008D5
:100010004F2A0008532A0008572A00080000000051
:100020000000000000000000000000005D2A000841
:100030005B2A0008000000005F2A0008390300085E
:100040003B0300083B0300083B0300083B03000898
:100050003B0300083B0300083B0300083B03000888
:100060003B0300083B0300083B0300083B03000878
:100070003B0300083B0300083B0300083B03000868
:100080003B0300083B0300083B0300083B03000858
:100090003B0300083B0300083B030008412C000819
:1000A0003B0300083B0300083B0300083B03000838
:1000B0003B030008DB2A00083B0300083B03000861
:1000C0003B0300083B0300083B0300083B03000818
:1000D0003B0300083B0300083B0300083B03000808
:1000E0003B0300083B0300083B0300083B030008F8
:1000F0003B0300083B0300083B0300083B030008E8
:100100003B0300083B0300083B0300083B030008D7
:100110003B0300083B0300083B0300083B030008C7
:100120003B0300083B0300083B0300083B030008B7
:10013000DFF80CD004F034FA00480047B729000873
:10014000C80F00200CB50020019000906B4800689B
:1001500040F480306949086000BF6848006800F4D6
:10016000003000900198401C0190009818B9019847
:10017000B0F5A06FF1D16148006810F4003F02D0E3
:100180000120009001E0002000900098012842D159
:100190005B48006840F01000594908600846006854
:1001A00020F0030008600846006840F00200086084
:1001B00052484068514948600846406848600846CF
:1001C000406840F4806048600846406820F47C1035
:1001D00048600846406840F4E810486008460068F7
:1001E00040F08070086000BF4448006810F0007F55
:1001F000FAD04248406820F0030040494860084671
:10020000406840F00200486000BF3C48406800F091
:100210000C000828F9D10CBD10B5FFF793FF10BDF5
:1002200010B53648006840F00100344908600846BF
:1002300040683449084031494860084600683249FE
:1002400008402E4908600846006820F480200860B5
:100250000846406820F4FE0048604FF41F008860A4
:10026000FFF7DAFF4FF000602849086010BD10B5B5
:10027000002100200022214B5B6803F00C0121B11A
:10028000042906D0082928D107E0214B214C2360FE
:1002900027E01F4B1F4C236023E0184B5B6803F4DF
:1002A0007010164B5B6803F48032022303EB90401E
:1002B00022B9194B4343174C23600DE00F4B5B6889
:1002C00013F4003F04D0144B4343124C236003E06B
:1002D0000F4B43430F4C236003E00D4B0D4C236049
:1002E00000BF00BF054B5B68C3F303130B4CE15C1D
:1002F000084B1B68CB40074C236010BD0010024028
:10030000002002400000FFF8FFFFF6FE08ED00E0CD
:1003100000127A000000002000093D0004000020C7
:100320000648804706480047FEE7FEE7FEE7FEE78F
:10033000FEE7FEE7FEE7FEE7FEE7FEE72102000834
:100340003101000831490143314A1160704770B5ED
:10035000002100230F22C4780CB32D4C246804F430
:10036000E064C4F5E064210AC1F10403CA404478A2
:1003700004FA03F18478144021430901254C0678DE
:10038000A155047804F01F050124AC4005786D11D7
:100390004FF0E02606EB8505C5F8004109E004783A
:1003A00004F01F050124AC401B4D0678761145F87A
:1003B000264070BD194A0A400243154B1B1F1A60A4
:1003C000704739B1124A121D12680243104B1B1DAF
:1003D0001A6006E00E4A121D126882430C4B1B1D68
:1003E0001A607047042808D14FF0E021096941F0F4
:1003F00004014FF0E022116107E04FF0E0210969AC
:1004000021F004014FF0E022116170470000FA056D
:100410000CED00E000E400E080E100E080FFFF1F61
:10042000002044490860091D0860091D0860091D75
:10043000086041483F4914310860704700213D4938
:100440008279002A3AD00A46126803689A430B461A
:100450001A600A1D126803689A430B1D1A6002791C
:1004600011440A6803681A430A60324A0832126863
:1004700003689A432F4B08331A601A1D12680368E9
:100480009A432C4B0C331A604279102A0ED11A1F52
:10049000126803681A43274B08331A601A1D126842
:1004A00003681A43234B0C331A600DE0214942794B
:1004B00011440A6803681A430A6005E0027911448E
:1004C0000A6803689A430A6070470021016001715D
:1004D0000C21417100218171704716491031096862
:1004E0000143144A10321160704701460020114A3E
:1004F000143212680A4201D0012000E00020704747
:100500000C49143108607047014600200022094B55
:100510001B6803EA0102074B14331B680B4202D02D
:100520000AB1012000E00020704702491431086040
:100530007047000000040140FFFF0F00014600204B
:10054000FE4A106800F03800084310607047FB490D
:10055000096821F00801F94A116011460968014350
:1005600011607047F549096821F01001F34A1160E4
:1005700011460968014311607047F148EF4948602E
:10058000F04848607047EE48EC494860ED484860E4
:100590007047EA48006940F08000E8490861704708
:1005A000E648006940F08000E44908617047042093
:1005B000E249C96811F0010F01D001200EE0DF49C6
:1005C000C96811F0040F01D0022007E0DB49C968B7
:1005D00011F0100F01D0032000E00420704700B597
:1005E00002460423FFF7E3FF034603E0FFF7DFFFC4
:1005F0000346521E012B01D1002AF7D102B905236F
:10060000184600BD30B5044604254FF43020FFF7EE
:10061000E6FF0546042D17D1C848006940F00200E6
:10062000C649086108464461006940F0400008611D
:100630004FF43020FFF7D3FF0546C048006941F66C
:10064000FD710840BD490861284630BD10B504243D
:100650004FF43020FFF7C3FF0446042C16D1B748EF
:10066000006940F00400B54908610846006940F09F
:10067000400008614FF43020FFF7B1FF0446AF4857
:10068000006941F6FB710840AC490861204610BD85
:1006900000B502460423FFF78AFF034603E0FFF795
:1006A00086FF0346521E012B01D1002AF7D102B961
:1006B0000523184600BD10B504244FF43020FFF781
:1006C000E7FF0446042C16D19C48006940F0040062
:1006D0009A4908610846006940F0400008614FF4FB
:1006E0003020FFF7D5FF04469448006941F6FB71BE
:1006F000084092490861204610BD00208F49C96911
:1007000011F0020F01D0012000E00020704730B549
:10071000A5250424FFF7F1FF00B100254FF4302098
:10072000FFF75DFF0446042C3AD185488349886071
:10073000844888600846006940F020000861084647
:10074000006940F0400008614FF43020FFF747FF98
:100750000446042C1BD17948006941F6DF7108403A
:10076000764908610846006940F010000861764843
:100770000580E002FFF733FF0446052C10D06F48D8
:10078000006941F6EF7108406C49086108E0052CEA
:1007900006D06A48006941F6EF7108406749086170
:1007A000204630BD78B506460C4604250020009052
:1007B000E802FFF714FF0546042D24D15F480069C5
:1007C00040F001005D4908613480E802FFF707FF4F
:1007D0000546042D10D1B01C0090200C0099088013
:1007E000E802FFF7FCFE05465448006941F6FE7139
:1007F00008405249086106E05048006941F6FE7120
:1008000008404E490861284678BD70B504460D463B
:100810000426F002FFF7E3FE0646042E11D14748F6
:10082000006940F00100454908612580F002FFF7AA
:10083000D6FE06464148006941F6FE7108403F4930
:100840000861304670BD70B505460E460424E002CE
:10085000FFF7C5FE0446042C17D139483749886094
:10086000384888600846006940F0100008612E8012
:10087000E002FFF7B4FE0446052C06D02F480069BD
:1008800041F6EF7108402D490861204670BD2DE901
:10089000F04304464FF6FF763746B046B14604258E
:1008A000E443E6B2C4F30727C4F307484FEA1469E8
:1008B000E802FFF794FE0546042D49D120481F4960
:1008C0008860204888600846006940F01000086190
:1008D000FF2E06D01C4808300680E802FFF77FFE96
:1008E0000546042D08D1FF2F06D017480A3007808F
:1008F000E802FFF774FE0546042D0AD1B8F1FF0F98
:1009000007D011480C30A0F80080E802FFF767FE1E
:100910000546042D0AD1B9F1FF0F07D00A480E3061
:10092000A0F80090E802FFF75AFE0546052D0FD00B
:100930000248006941F6EF71084007E000200240DC
:1009400023016745AB89EFCD00F8FF1F66490861B9
:100950002846BDE8F08330B5054604244FF4302026
:10096000FFF73DFE0446042C41D160485E49886093
:100970005F4888600846006940F02000086108462A
:10098000006940F0400008614FF43020FFF727FE77
:100990000446042C22D15448006941F6DF71084016
:1009A000514908610846006940F0100008611DB116
:1009B00000205049088002E0A5204E4908804FF4ED
:1009C0003020FFF70CFE0446052C10D04648006985
:1009D00041F6EF7108404449086108E0052C06D053
:1009E0004148006941F6DF7108403F4908612046EF
:1009F00030BDF0B505460E46174604243B483A493B
:100A000088603B488860E002FFF7E9FD0446042C5B
:100A100019D13548006940F010003349086147F0AA
:100A2000F800304328433349891C0880E002FFF76F
:100A3000D6FD0446052C06D02B48006941F6EF711F
:100A40000840294908612046F0BD2748C069800850
:100A500070472548006A704700202349096811F053
:100A6000200F01D0012000E00020704729B11E4A6C
:100A7000126902431C4B1A6104E01B4A126982434B
:100A8000194B1A61704701460020012908D1164A06
:100A9000D26912F0010F01D0012008E0002006E029
:100AA000114AD2680A4201D0012000E000207047BC
:100AB0000D49C860704704200B49C96811F0010F47
:100AC00001D001200EE00849C96811F0040F01D0DF
:100AD000022007E00449C96811F0100F01D003207B
:100AE00000E0042070470000002002402301674519
:100AF000AB89EFCD00F8FF1F10B50446CA48844209
:100B000008D10121042000F047FB0021042000F05F
:100B100043FB46E0C548844208D10121082000F08B
:100B20003BFB0021082000F037FB3AE0C04884423C
:100B300008D10121102000F02FFB0021102000F02F
:100B40002BFB2EE0BB48844208D10121202000F07D
:100B500023FB0021202000F01FFB22E0B648844246
:100B600008D10121402000F017FB0021402000F0B7
:100B700013FB16E0B148844208D10121802000F027
:100B80000BFB0021802000F007FB0AE0AC48844208
:100B900007D10121801500F0FFFA0021A01500F017
:100BA000FBFA10BD10B50121084600F0F5FA00214E
:100BB000012000F0F1FA10BD2DE9F04102460025B8
:100BC0000026002000230024002791F803C00CF029
:100BD0000F0591F803C01CF0100F03D091F802C06C
:100BE0004CEA050591F800C0BCF1000F31D0146843
:100BF00000202BE04FF0010C0CFA00F3B1F800C01C
:100C00000CEA03069E4220D183004FF00F0C0CFA31
:100C100003F7BC4305FA03FC4CEA040491F803C053
:100C2000BCF1280F06D14FF0010C0CFA00FCC2F801
:100C300014C00AE091F803C0BCF1480F05D14FF091
:100C4000010C0CFA00FCC2F810C0401C0828D1D3DB
:100C50001460B1F800C0BCF1FF0F34DD546800200F
:100C60002EE000F1080C4FF0010808FA0CF3B1F87F
:100C700000C00CEA03069E4221D183004FF00F0C06
:100C80000CFA03F7BC4305FA03FC4CEA040491F8A0
:100C900003C0BCF1280F05D100F1080C08FA0CF8CC
:100CA000C2F8148091F803C0BCF1480F07D100F1DD
:100CB000080C4FF0010808FA0CF8C2F81080401C2C
:100CC0000828CED35460BDE8F0814FF6FF71018053
:100CD000022181700421C170704702460020936890
:100CE0000B4201D0012000E00020704701468868D7
:100CF00080B2704702460020D3680B4201D0012029
:100D000000E0002070470146C86880B2704701616A
:100D10007047416170470AB1016100E0416170476D
:100D2000C16070474FF480320A4382618161826101
:100D300082698269704702460020424B18684FF66C
:100D40008073184040EA021008433E4B1860704719
:100D50003D49C8617047F0B50A46002300240021D0
:100D6000002500F00046B6F1004F02D1354EF16982
:100D700001E0344E7168C0F3034583B200F44016BD
:100D8000B6F5401F08D121F070612E4E766826F02E
:100D900070662C4F7E6012E000F48016B6F5801F5E
:100DA00006D1032606FA05F4A14341F0706106E07E
:100DB000460D360103FA06F6B14341F0706122B1E7
:100DC000460D360103FA06F6314300F00046B6F14F
:100DD000004F02D11B4EF16101E01A4E7160F0BD6F
:100DE00030B500228B071C0F0F2303FA04F2154BBA
:100DF00008338C1053F824309343124C08348D1070
:100E000044F8253023468C1053F824308C07240FE7
:100E100000FA04F423430B4C08348D1044F82530B9
:100E200030BD0A490860704700080140000C0140CD
:100E3000001001400014014000180140001C014056
:100E4000002001400000014000002042DC00204260
:100E50000E49086070470D49486070470B4988602B
:100E600070474AF6AA200949086070474CF6CC4002
:100E700006490860704701460020044AD2680A42C9
:100E800001D0012000E00020704700000030004049
:100E9000DD48006840F00100DB4908600846406812
:100EA000DA490840D849486008460068D8490840EF
:100EB000D54908600846006820F48020086008468C
:100EC000406820F4FE0048604FF41F0088607047BF
:100ED000CD49096821F48031CB4A11601146096877
:100EE00021F480211160B0F5803F03D0B0F5802F50
:100EF0000ED106E0C449096841F48031C24A11604C
:100F000007E0C149096841F4A021BF4A116000E02F
:100F100000BF00BF704710B501460022002300202B
:100F20004A11012A02D1B84C236806E0022A02D1F4
:100F3000B54C236A01E0B44C636A01F01F0201243E
:100F400094401C4201D0012000E0002010BD38B5C3
:100F5000002000900024002500BF3120FFF7DBFFB8
:100F600005460098401C00900098B0F5A06F01D095
:100F7000002DF2D03120FFF7CEFF08B1012400E0B0
:100F80000024204638BD014600209F4A106820F00A
:100F9000F80040EAC100106070479E490860704741
:100FA00002460020984B586820F47C1042EA010366
:100FB0001843954B5860704796490866704701463C
:100FC0000020914A506820F00300084350607047A9
:100FD0008D48406800F00C007047014600208A4AA6
:100FE000506820F0F0000843506070470146002030
:100FF000854A506820F4E06008435060704701461D
:101000000020814A506820F4605040EAC1005060DE
:10101000704729B17C4A527A02437B4B5A7204E0F2
:10102000794A527A8243784B5A7270477A490860FB
:10103000704701460020744A506820F4404008433D
:10104000506070470021754A11706F4A82F8201075
:10105000012802D0042808D103E001216F4A117051
:1010600004E005216D4A117000E000BF00BF704729
:101070006B49086070476449096A0143624A11621A
:101080007047674944390860704730B50021002235
:10109000002400235C4D6D6805F00C0121B104298A
:1010A00005D0082923D105E05E4D056022E05D4DA5
:1010B00005601FE0544D6D6805F47012524D6D6867
:1010C00005F48034022505EB92421CB9564D554378
:1010D00005600BE04C4D6D6815F4003F03D0524D98
:1010E0005543056002E04F4D5543056002E04D4D0C
:1010F000056000BF00BF444D6D6805F0F0010909AF
:101100004A4D6B5C0568DD4045603F4D6D6805F4F8
:10111000E061090A454D6B5C4568DD4085603A4DEC
:101120006D6805F46051C90A404D6B5C4568DD404F
:10113000C560354D6D6805F44041890B3C4D6B5CD5
:10114000C568B5FBF3F5056130BD29B12E4A52697A
:1011500002432D4B5A6104E02B4A526982432A4BC9
:101160005A61704729B1284A92690243264B9A6115
:1011700004E0254A92698243234B9A61704729B162
:10118000214AD2690243204BDA6104E01E4AD26947
:1011900082431D4BDA61704729B11B4AD268024372
:1011A000194BDA6004E0184AD2688243164BDA60C1
:1011B000704729B1144A12690243134B1A6104E0C3
:1011C000114A12698243104B1A6170471449403921
:1011D000086070470F49C86470470B49C871704771
:1011E0000948406A40F080700749486270470146EC
:1011F0000020054A92680A4201D0012000E0002048
:101200007047014988727047001002400000FFF8E3
:10121000FFFFF6FE00004242D8004242201002408A
:101220008004424200127A0000093D0014000020B0
:101230002400002010B50446BE48844208D1012194
:101240008014FFF7A9FF0021A014FFF7A5FF16E007
:10125000B948844208D101210014FFF7AAFF0021F8
:101260002014FFF7A6FF0AE0B448844207D1012109
:10127000C013FFF79EFF0021E013FFF79AFF10BD98
:1012800010B50022028802F441520B884C88234397
:101290008C882343CC8823430C8923434C892343E4
:1012A0008C892343CC8923431A430280838B4FF2DA
:1012B000FF74234083830B8A038210BD2DE9F04F16
:1012C00085B005460C464FF0000902274FF0000894
:1012D0004FF0010B0026B246A88B4FF240010840A8
:1012E000A88302202884B5F81C90A068022801D1A8
:1012F00000BF38E0A08810B94FF0010B01E04FF0BB
:10130000020B8D48854200D100E000BF6846FFF720
:10131000BCFEDDF800A0E088B0F5007F0AD14FEAFE
:101320001A2000EB80004000A168B0FBF1F0401DE6
:1013300086B20BE04FEA4B10BAFBF0F000EB8000F6
:101340004000A168B0FBF1F0401D86B20A20B6FB58
:10135000F0F606F00108A6EB0800C0F34F074FF6C1
:10136000FF7000EA0828022F01DBFF2F02DD0227B1
:101370004FF00008E08840EA080038432884A0883D
:10138000A1890843618808432188084340F400602C
:1013900040EA0909A5F81C9005B0BDE8F08F0021CE
:1013A000018041808180C180018141818181C18131
:1013B0000721018270470021018041808180C18026
:1013C0000221816000218181704721B1028842F0B1
:1013D0004002028004E002884FF6BF731A40028088
:1013E000704721B1828B42F48062828304E0828B59
:1013F0004FF6FF331A408283704730B50024002334
:101400000C110125A540ABB21AB185881D4385801A
:1014100002E085889D43858030BD1AB183880B43E7
:10142000838002E083888B4383807047818170478B
:10143000014688897047A1F57E42FF3A04D00288B0
:1014400042F48072028004E002884FF6FF631A4083
:101450000280704721B1828842F00402828004E059
:1014600082884FF6FB731A408280704702884FF2E1
:10147000FF731A40028002880A4302807047018885
:1014800041F480510180704721B1028842F400523A
:10149000028004E002884DF6FF731A400280704714
:1014A00002460020012901D0108B00E0908A70478D
:1014B0000146088A7047B1F5804F04D1028842F492
:1014C0008042028004E002884BF6FF731A400280DB
:1014D00070470246002013890B4201D0012000E032
:1014E00000207047CA4302817047F0B502460020D1
:1014F00000240023002501F00F070126BE40B4B2EE
:101500000B1101269E40B3B2968806EA03051689A0
:10151000264202D00DB1012000E00020F0BD10B540
:10152000002201F00F040123A3409AB2D3430381A8
:1015300010BD00000030014000380040003C004079
:1015400010B50446FE48844208D10121C014FFF7BB
:1015500023FE0021E014FFF71FFEC4E0B4F1804F2A
:1015600008D101210846FFF724FE00210120FFF7E2
:1015700020FEB8E0F348844208D101210220FFF7A1
:1015800018FE00210220FFF714FEACE0EE48844272
:1015900008D101210420FFF70CFE00210420FFF7F1
:1015A00008FEA0E0E948844208D101210820FFF7A5
:1015B00000FE00210820FFF7FCFD94E0E44884428F
:1015C00008D101211020FFF7F4FD00211020FFF7C2
:1015D000F0FD88E0DF48844208D101212020FFF798
:1015E000E8FD00212020FFF7E4FD7CE0DA4884429A
:1015F00008D101214014FFF7CFFD00216014FFF74F
:10160000CBFD70E0D548844209D10121C804FFF721
:10161000C3FD00214FF40020FFF7BEFD63E0D0487A
:10162000844209D101210805FFF7B6FD00214FF4DE
:101630008010FFF7B1FD56E0CA48844209D101216C
:101640004805FFF7A9FD00214FF40010FFF7A4FDA6
:1016500049E0C548844208D101214020FFF7A9FD97
:1016600000214020FFF7A5FD3DE0C048844208D19D
:1016700001218020FFF79DFD00218020FFF799FDCB
:1016800031E0BB48844208D101218015FFF791FD6C
:101690000021A015FFF78DFD25E0B648844209D151
:1016A00001210804FFF778FD00214FF48030FFF797
:1016B00073FD18E0B048844209D101214804FFF7C6
:1016C0006BFD00214FF40030FFF766FD0BE0AB48E7
:1016D000844208D101218804FFF75EFD00214FF408
:1016E0008020FFF759FD10BD00220288944B9842DC
:1016F0000ED0994B98420BD0B0F1804F08D0914B4F
:10170000984205D0904B984202D0904B984204D119
:101710004FF68F731A404B881A438D4B984207D06F
:101720008C4B984204D04FF6FF431A40CB881A43A3
:1017300002808B8883850B880385814B98420BD070
:10174000854B984208D08B4B984205D08A4B9842E3
:1017500002D08A4B984201D10B7A038601238382FF
:10176000704770B5002400220023058C4FF6FE76EA
:1017700035400584028C8388048B4FF68F752C408E
:10178000B51E2C400D882C43751E2A400D892A4316
:101790004D882A436A4DA8420BD06F4DA84208D00D
:1017A000744DA84205D0744DA84202D0734DA84292
:1017B00013D14FF6F7752A404D892A434FF6FB7532
:1017C0002A408D882A434FF6FF652B404FF6FF5580
:1017D0002B408D892B43CD892B4383800483CD8877
:1017E0008586028470BD70B5002400220023058C1C
:1017F0004FF6EF7635400584028C8388048B48F6DB
:10180000FF752C404FF6FF452C400D884FF6FF76B4
:1018100006EA05252C434FF6DF752A400D8906EAB6
:1018200005152A434D8806EA05152A43444DA8426A
:1018300002D0494DA8421DD14FF67F752A404D89EF
:101840004FF6FF7606EA05152A434FF6BF752A4084
:101850008D8806EA05152A434FF6FF352B404FF2D7
:10186000FF752B408D8906EA85052B43CD8906EA55
:1018700085052B4383800483CD880587028470BD52
:1018800070B5002400220023058C4FF6FF6635401A
:101890000584028C8388848B4FF68F752C404FF61D
:1018A000FC752C400D882C434FF6FF552A400D89BE
:1018B0004FF6FF7606EA05252A434D8806EA0525F8
:1018C0002A431F4DA84202D0234DA8421DD14FF2FA
:1018D000FF752A404D894FF6FF7606EA05252A4313
:1018E0004FF6FF352A408D8806EA05252A434EF635
:1018F000FF752B404DF6FF752B408D8906EA0515C7
:101900002B43CD8906EA05152B4383808483CD883C
:101910008587028470BD70B5002200230024058CE9
:101920004EF6FF7635400584038C8488828B48F61A
:10193000FF752A404FF6FF452A400D8820E0000041
:10194000002C01400004004000080040000C004052
:10195000001000400014004000340140004C0140E1
:10196000005001400054014000180040001C00409D
:101970000020004000400140004401400048014078
:101980004FF6FF7606EA05252A434DF6FF752B40F4
:101990000D8906EA05352B434D8806EA05352B43AC
:1019A000FA4DA84202D0FA4DA84208D14BF6FF7575
:1019B0002C408D894FF6FF7606EA85152C438480EE
:1019C0008283CD88A0F84050038470BD828B4FF293
:1019D000FF331A408283828B4FF6FF7303EA0123A1
:1019E0001A4382837047F0B50C4615460022002149
:1019F0000026078C4EF6FF7C07EA0C070784828BD3
:101A0000018C4FF6FF7707EA043640F6FF473A406D
:101A10004FF6FF7707EA05273A434FF6FF7707EAC5
:101A200003373A43D94FB8420ED0D94FB8420BD002
:101A3000B0F1804F08D0D74FB84205D0D64FB8424A
:101A400002D0D64FB84206D14DF6FF77394046F462
:101A50008057394305E047F6FF57394044F4805733
:101A6000394382830184F0BD828B4FF6F3731A40B1
:101A70008283828B0A4382837047F0B50C461546F9
:101A8000002200210026078C4FF6FF6C07EA0C07A6
:101A90000784828B018C4FF6FF7707EA04264FF606
:101AA0000C773A404FF6FF7707EA03172F433A4384
:101AB000B64FB8420ED0B64FB8420BD0B0F1804FFF
:101AC00008D0B44FB84205D0B34FB84202D0B34F9C
:101AD000B84206D14FF6FF57394046F48077394374
:101AE00005E04FF2FF57394044F480773943828351
:101AF0000184F0BD028B4FF2FF331A400283028B48
:101B00004FF6FF7303EA01231A4302837047F0B5CF
:101B10000C461546002200210026078C4FF6EF7C6C
:101B200007EA0C070784028B018C4FF6FF7707EA60
:101B3000041640F6FF473A404FF6FF7707EA0337AF
:101B40003A434FF6FF7707EA05273A438F4FB842EB
:101B50000ED08F4FB8420BD0B0F1804F08D08D4FD0
:101B6000B84205D08C4FB84202D08C4FB84206D153
:101B70004FF6DF77394046F01007394305E04FF65E
:101B80005F77394044F01007394302830184F0BD88
:101B9000028B4FF6F3731A400283028B0A430283CF
:101BA0007047F0B50C46154600220021068C4FF612
:101BB000FE773E400684028B018C4FF60C76324055
:101BC0007E1C06EA03162E433243704EB0420ED0FE
:101BD0006F4EB0420BD0B0F1804F08D06D4EB04286
:101BE00005D06D4EB04202D06C4EB04206D14FF6D9
:101BF000FD76314044F00106314305E04FF6F576BD
:101C0000314044F00106314302830184F0BD70B5D8
:101C100005460C465D4885420ED05D4885420BD096
:101C2000B5F1804F08D05B48854205D05A488542BF
:101C300002D05A48854200D100E000BF208850B948
:101C40002389A28861882846FFF7ABFFE1882846F0
:101C5000FFF79EFF25E0208804280AD12389A28867
:101C600061882846FFF753FFE1882846FFF742FFC7
:101C700017E0208808280AD12389A288618828468D
:101C8000FFF7FBFEE1882846FFF7EEFE09E0238917
:101C9000A28861882846FFF7A6FEE1882846FFF75C
:101CA00095FE70BD2DE9F04105460C460026012742
:101CB000608808B9022600E00026A088012801D12A
:101CC000022700E001272088A0B92389A288618823
:101CD0002846FFF766FFE1882846FFF759FF23896A
:101CE0003A4631462846FFF712FFE1882846FFF7BB
:101CF00001FF13E02389A28861882846FFF707FFC8
:101D0000E1882846FFF7F6FE23893A463146284601
:101D1000FFF747FFE1882846FFF73AFFBDE8F0816B
:101D20000A884B881A438B881A43CB881A430B893D
:101D30001A434B891A438B891A43A0F844207047F1
:101D40004FF6FF71818000210180C18041800172C6
:101D500070470021018041808180C18001814181E3
:101D60008181C181704700210180418001218180F2
:101D70000021C18001817047002101804180818064
:101D8000C18001814181818170470000002C0140A8
:101D9000003401400004004000080040000C0040F6
:101DA00021B1028842F00102028004E002884FF66D
:101DB000FE731A400280704731B1B0F8442042F4FB
:101DC0000042A0F8442005E0B0F84420C2F30E021F
:101DD000A0F8442070471AB183890B43838102E045
:101DE00083898B43838170478182704741EA020374
:101DF000A0F8483070471AB183890B43838102E011
:101E000083898B438381704701894FF6F8721140B3
:101E1000018170470A46002101894FF68F731940EE
:101E200011430181704730B504460D4629462046CE
:101E3000FFF7F0FF208940F00700208130BD2DE939
:101E4000F04104460D4616461F46602D06D13B461E
:101E5000012231462046FFF75AFE05E03B460122AB
:101E600031462046FFF79DFE29462046FFF7D2FF68
:101E7000208940F007002081BDE8F08130B50C4694
:101E800000210189C9B24FF6FF7505EA0325154304
:101E900025432943018130BD2DE9F04105460E4619
:101EA00017469846002443463A4631462846FFF7EF
:101EB000E5FF2C894FF6F870044044F007044FF614
:101EC0008F70044044F070042C81BDE8F081F0B5BF
:101ED00004460D4616461F463B46324629462046D6
:101EE000FFF7CCFF208940F480402081F0BD0185C0
:101EF000828270470A46002101884FF68F7319408D
:101F0000114301807047F0B50C4615461E4600216E
:101F1000002200230189028B038C4FF6F8773940A9
:101F200021434FF6FC473A4040F201173A434FF63F
:101F3000DD773B404FF6FF7707EA06172F433B4319
:101F4000018102830384F0BD0A460021018B4FF614
:101F50008F7319401143018370470A460021018B9A
:101F600048F6FF7319404FF6FF7303EA0223194343
:101F7000018370470A460021818B4FF68F73194009
:101F80001143818370470A460021818B48F6FF7315
:101F900019404FF6FF7303EA022319438183704708
:101FA00021B1028842F08002028004E002884FF6EC
:101FB0007F731A400280704721B1828842F0040288
:101FC000828004E082884FF6FB731A40828070475B
:101FD00021B1828842F00802828004E082884FF6B4
:101FE000F7731A408280704721B1828842F0010263
:101FF000828004E082884FF6FE731A408280704728
:102000000A460021018B4FF6F773194011430183F3
:1020100070470A460021018B4FF2FF7319404FF6BB
:10202000FF7303EA02231943018370470A46002124
:10203000818B4FF6F77319401143818370470A462D
:102040000021818B4FF2FF7319404FF6FF7303EAB3
:1020500002231943818370470A460021018B4FF602
:10206000FB7319401143018370470A460021018B1D
:102070004FF6FF3319404FF6FF7303EA022319436B
:10208000018370470A460021818B4FF6FB7319408C
:102090001143818370470A460021818B4FF6FF333D
:1020A00019404FF6FF7303EA0223194381837047F7
:1020B0000A460021018B4FF67F73194011430183BB
:1020C00070470A460021018BC1F30E014FF6FF73E2
:1020D00003EA02231943018370470A460021818BDA
:1020E0004FF67F7319401143818370470A460021E0
:1020F000818BC1F30E014FF6FF7303EA02231943EC
:10210000818370470A460021018C4FF6FD73194008
:102110001143018470470A460021018C4FF6F77382
:1021200019401143018470470A460021018C4FF683
:10213000DF7319404FF6FF7303EA0213194301845A
:1021400070470A460021018C4FF67F7319404FF605
:10215000FF7303EA02131943018470470A46002102
:10216000018C4FF6FF5319404FF6FF7303EA022329
:102170001943018470470A460021018C4FF2FF7316
:1021800019404FF6FF7303EA022319430184704795
:102190000A460021018C4DF6FF7319404FF6FF737C
:1021A00003EA023319430184704730B50023012448
:1021B0008C40A3B2048C9C430484048C02FA01F585
:1021C000ADB22C43048430BD30B5002304248C40D0
:1021D000A3B2048C9C430484048C02FA01F5ADB2D2
:1021E0002C43048430BD70B50346002000241846FB
:1021F000183001258D40ACB21D8CA5431D8409B15A
:10220000082909D100EB6100056825F0700505601B
:102210000568154305600EE00D1FC5F34E05284403
:10222000056825F4E045056005684FF6FF7606EA87
:1022300002263543056070BD21B1028842F00202DA
:10224000028004E002884FF6FD731A400280704756
:1022500021B1028842F00402028004E002884FF6B5
:10226000FB731A400280704721B1828842F08002DD
:10227000828004E082884FF67F731A408280704724
:1022800002884FF6F7731A40028002880A430280E0
:10229000704782884FF68F731A40828082880A4383
:1022A0008280704702894FF6F8731A4002810289D2
:1022B0000A430281704702894FF67F731A400281F8
:1022C00002890A4302817047818470478185704783
:1022D000818670470187704781877047A0F840105A
:1022E000704702884FF6FF431A40028002880A4373
:1022F000028070470146888E70470146088F7047FC
:102300000146888F70470146B1F84000704701468A
:10231000888C70470146088D704702460020138A5A
:102320000B4201D0012000E000207047CA43028226
:10233000704730B50246002000230024158A05EAC4
:102340000103958905EA010413B10CB1012000E0F5
:10235000002030BDCA4302827047000010B5044619
:10236000FB48844209D101218803FEF715FF0021B3
:102370004FF48040FEF710FF32E0F648844209D166
:1023800001214804FEF715FF00214FF40030FEF74D
:1023900010FF25E0F048844209D101218804FEF7AE
:1023A00008FF00214FF48020FEF703FF18E0EB4800
:1023B000844209D10121C804FEF7FBFE00214FF43D
:1023C0000020FEF7F6FE0BE0E548844208D101212B
:1023D0000805FEF7EEFE00214FF48010FEF7E9FE3F
:1023E00010BD2DE9F04786B005460E460024A246F2
:1023F00000BFA1460027B08900B100BF2F462C8A3C
:102400004CF6FF700440F08804432C82AC894EF6F1
:10241000F3100440B08831890843718908430443AC
:10242000AC81AC8A4FF6FF400440B0890443AC82D3
:1024300001A8FEF72AFEC648874202D1DDF810A0A7
:1024400001E0DDF80CA0A88910F4004F08D00AEBD9
:10245000CA0000EB0A1031684900B0FBF1F807E050
:102460000AEBCA0000EB0A1031688900B0FBF1F8F2
:102470006420B8FBF0F004012009642101FB1089FD
:10248000A88910F4004F08D0322000EBC900B0FB3F
:10249000F1F000F00700044308E0322000EB0910DF
:1024A0006421B0FBF1F000F00F0004432C8106B072
:1024B000BDE8F0874FF41651016000218180C18092
:1024C00001810C21418100218181704710B50246B4
:1024D0000020108A4FF2FF0318400B884C882343DA
:1024E0008C882343CC8823431843108210BD0021DD
:1024F000018041808180C180704721B1828942F48E
:102500000052828104E082894DF6FF731A40828175
:102510007047F0B503460024002600250020A1F5F1
:1025200010676A3F00D100BF1846C1F3421401F0A2
:102530001F06012707FA06F5012C01D10C3004E033
:10254000022C01D1103000E014301AB107682F437B
:10255000076002E00768AF430760F0BD1AB1838AE5
:102560000B43838202E0838A8B4383827047028A13
:102570004FF6F0731A400282028A0A4302827047C1
:1025800082894FF2FF731A40828182890A438281D5
:10259000704721B1828942F00202828104E082897F
:1025A0004FF6FD731A4082817047028A4FF6DF733F
:1025B0001A400282028A0A430282704721B1028ACB
:1025C00042F48042028204E0028A4BF6FF731A4012
:1025D00002827047C1F308028280704701468888F2
:1025E000C0F308007047818941F001018181704783
:1025F000028BD2B20283028B42EA0122028370472D
:10260000028B02F47F420283028B0A4302837047EB
:1026100021B1828A42F02002828204E0828A4FF64F
:10262000DF731A408282704721B1828A42F0100221
:10263000828204E0828A4FF6EF731A4082827047EA
:1026400021B1828A42F00802828204E0828A4FF637
:10265000F7731A408282704721B1828942F40042A6
:10266000828103E08289C2F30E028281704721B128
:10267000828A42F40062828204E0828A4FF2FF730F
:102680001A4082827047828A4FF6FB731A40828218
:10269000828A0A438282704721B1828A42F0020212
:1026A000828204E0828A4FF6FD731A40828270476C
:1026B00002460020B1F5007F00D100BF13880B4215
:1026C00001D0012000E00020704701F40072B2F553
:1026D000007F00D100BFCA430280704770B5024638
:1026E0000024002300250020A1F510666A3E00D1D9
:1026F00000BFC1F3421501F01F03012606FA03F3E0
:10270000012D02D19689334006E0022D02D1168AAE
:10271000334001E0968A33400C12012606FA04F495
:102720001688344013B10CB1012000E0002070BDC8
:1027300010B500220023A1F510646A3C00D100BF4F
:102740000A1201249440A3B2DC43048010BD0000AF
:10275000003801400044004000480040004C004068
:102760000050004010B5044621463948FFF732FFBB
:1027700000BF80213648FFF79BFF0028F9D010BD2D
:1027800010B5044603E02078FFF7ECFF641C2078C6
:102790000028F8D110BD2DE9F047002400250126BE
:1027A00002274FF004084FF00109FEF752F90546E1
:1027B00028480068284027490968884242D0FEF727
:1027C00044F9044623480068284322490860FDF77D
:1027D0009EFF81461F480068401C05D01D480068C8
:1027E000C043FEF754F8814604F00700072811D0D3
:1027F00014F0010F00D1002614F0020F00D10027C1
:1028000014F0040F01D14FF000084246394630461B
:10281000FEF7EFF8B9F1040F10D100BFBFF34F8FEF
:102820000D48006800F4E0600C490843001D0A49A7
:102830000860BFF34F8F00BF00BFFEE708A0FFF79F
:102840009FFF02E011A0FFF79BFFBDE8F0870000AB
:1028500000380140300000200CED00E00000FA05D7
:102860004572726F723A20466C61736820777269A4
:10287000746520756E70726F74656374696F6E2015
:102880006661696C65642E2E2E0D0A00466C6173BC
:1028900068206D656D6F7279206E6F742077726934
:1028A00074652070726F7465637465640D0A00004E
:1028B00008B501F063FA4E480088F0B94D48FFF7BB
:1028C0005FFF4C484C30FFF75BFF4A489830FFF7FA
:1028D00057FF4848E430FFF753FF46489830FFF76A
:1028E0004FFF4548FFF74CFF4248FFF749FF43A021
:1028F000FFF746FF01203E4908803D480088062832
:102900004AD1FDF746FE3F4800683F490840B0F114
:10291000005F3BD13DA0FFF733FF72B60021414875
:10292000FFF73EFA01213F48FFF714FD17208DF80D
:10293000000000208DF8010001208DF80200002029
:102940008DF803006846FDF702FD2020FDF7EDFD40
:1029500000213548FFF7D1FD20213348FFF7B5FEB0
:1029600040F225513048FFF7E3FE264840682F49E2
:102970000860084600682E4908602249086880F30C
:10298000088800BF2A480068804705E029A0FFF7B3
:10299000F7FE07201649088008BD10B500F0D0F8F2
:1029A00010BD10B54FF4C060FDF7CCFC00F058F836
:1029B00000F036F910BDFFF7F4FF01F0CDFA01F099
:1029C0003BFAFFF7EAFF00F084F800F045F900F069
:1029D000F5F800F002FE00F07EFE01F0A9FD05E032
:1029E000FFF766FFFEF73DFA01F055FAF8E7000041
:1029F0007A0000206C4700089C4800080D0A0D0A68
:102A000000000000000001080000FE2F457865630B
:102A100075746520757365722050726F6772616D91
:102A20000D0A0A0000040040003801403C0000206C
:102A300038000020206E6F20757365722050726F11
:102A40006772616D0D0A0A00704700BFFEE700BFA4
:102A5000FEE700BFFEE700BFFEE770477047704724
:102A600008B500214FF00060FDF7A4FC4FF4C060F2
:102A7000FDF768FC1D208DF8000005208DF8010091
:102A800000208DF8020001208DF803006846FDF754
:102A90005EFC08BD0EB501210220FEF770FB092087
:102AA000ADF804004FF4E150ADF800000020ADF89F
:102AB0000600ADF8020069461E48FEF715FE012229
:102AC00011461C48FFF787F901211A48FFF768F9FA
:102AD0000EBD10B5FFF7DEFF10BD10B50121154882
:102AE000FFF727FC012810D113480068401C124949
:102AF0000860084600681149884202D300200E4948
:102B0000086001210B48FFF725FC10BD00210A4A8F
:102B1000116000BF0849096819B107490968814275
:102B2000F8D37047044800687047002002490860E5
:102B3000704700000004004040000020A086010013
:102B400000B585B0012144F20400FEF70BFB4FF401
:102B50000070ADF8100003208DF8120018208DF8D9
:102B6000130004A91348FEF727F84FF48060ADF86E
:102B7000100004208DF8130004A90E48FEF71CF87D
:102B80004FF4E13000900020ADF80400ADF80600ED
:102B9000ADF80800ADF80C000C20ADF80A0069464D
:102BA0000548FFF71EFC01210348FFF7A6FC05B00E
:102BB00000BD000000080140003801400EB51020A3
:102BC000ADF8080001208DF80A0010208DF80B00E8
:102BD00002A9FA48FDF7F0FF1021F848FEF799F82E
:102BE0002020ADF8080003208DF80A0048208DF859
:102BF0000B0002A9F148FDF7DFFF05210220FEF7D7
:102C0000EFF82020009000208DF804000C208DF8B3
:102C1000050001208DF806006846FDF70FFC0EBD8B
:102C200008B517208DF8000000208DF80100012064
:102C30008DF802008DF803006846FDF788FB08BD9B
:102C400010B52020FDF760FC28B12020FDF76DFCB9
:102C50000120DB49087010BD00B587B0012141F2A9
:102C60000500FEF77FFAE020ADF8180003208DF88C
:102C70001A0018208DF81B0006A9D248FDF79CFF0A
:102C8000E021D048FEF743F81020ADF818000320EB
:102C90008DF81A0010208DF81B0006A9C948FDF711
:102CA0008BFF1021C748FEF732F80020ADF8040072
:102CB0004FF48270ADF806000020ADF80800ADF8C2
:102CC0000A00ADF80C004FF40070ADF80E000020C3
:102CD000ADF81000ADF812000720ADF8140001A9FE
:102CE000B948FEF7CDFA0121B748FEF76EFB07B0F1
:102CF00000BD10B504462146B348FEF797FB00BF60
:102D00000221B148FEF7E5FB0028F9D010BD70B5EF
:102D100004462546E11704EB1161C1F30720FFF7D4
:102D2000E8FFE0B2FFF7E5FF70BD70B505460C4661
:102D30001021A448FDF7EDFF2846FFF7E8FF052026
:102D4000FFF7D7FF2046FFF7D4FF10219D48FDF77E
:102D5000DEFF70BD70B505460C4610219948FDF7A1
:102D6000D8FF2846FFF7D3FF0620FFF7C2FF204613
:102D7000FFF7CDFF10219348FDF7C9FF70BD2DE986
:102D8000F04107460C46154610218E48FDF7C1FF5D
:102D90003846FFF7BCFF0420FFF7ABFF002605E035
:102DA00014F8010BFFF7A5FF701C86B2AE42F7DBEB
:102DB00010218448FDF7ABFFBDE8F08170B50446F3
:102DC0000D46164610217F48FDF7A3FF2846FFF762
:102DD0009EFF082101EB4411C9B241F00500FFF745
:102DE00088FF3046FFF785FF10217648FDF78FFFFB
:102DF00070BD70B504460D46164610217148FDF7AA
:102E000088FF2846FFF783FF082101EB4411C9B270
:102E100041F00600FFF76DFF3046FFF778FF102105
:102E20006848FDF774FF70BD70B505460E46144640
:102E300010216448FDF76DFF3046FFF768FF082159
:102E400001EB4511C9B241F00700FFF752FF14F83A
:102E5000010BFFF74EFF14F8010BFFF74AFF14F8C0
:102E6000010BFFF746FF14F8010BFFF742FF10219B
:102E70005448FDF74CFF70BD70B504461021514811
:102E8000FDF747FF2046FFF742FF0120FFF731FF24
:102E90004D48FEF7CDFAC5B20020FFF72AFF4A4899
:102EA000FEF7C6FAC5B210214648FDF730FF2846A6
:102EB00070BD70B504460D4610214248FDF729FF4C
:102EC0002846FFF724FF082101EB4411C9B241F065
:102ED0000100FFF70EFF3C48FEF7AAFAC6B2002039
:102EE000FFF707FF3848FEF7A3FAC6B210213548AE
:102EF000FDF70DFF304670BD70B505460E4610213A
:102F00003048FDF706FF3046FFF701FF082101EBCF
:102F10004511C9B241F00200FFF7EBFE2A48FEF767
:102F200087FA04460020FFF7E4FE2748FEF780FA00
:102F300004460020FFF7DDFE4FF6FF7000EA042490
:102F40002148FEF775FA204484B210211D48FDF790
:102F5000DEFE204670BD2DE9F04780460D46262155
:102F60004046FFF7C9FF064616B90020BDE8F087C6
:102F700040F2B450864200DD064628214046FFF765
:102F8000BBFF0746B946C7F30A0710210D48FDF7F6
:102F9000C0FE3846FFF7BBFE182101EB4811C8B24E
:102FA000FFF7A7FE0848FEF743FA00F0FF0AB8193A
:102FB000B0F5006F1ADA002415E00000001001409F
:102FC0006800002000080140003001400020FFF7A9
:102FD00090FEFD48FEF72CFA00F0FF0A85F800A0ED
:102FE0006D1C601C84B2B442F0DB38E0C7F50067AA
:102FF00000240CE00020FFF77CFEF348FEF718FAEF
:1030000000F0FF0A85F800A06D1C601C84B2BC4271
:10301000F0DB1021ED48FDF77AFE1021EB48FDF7BB
:1030200078FE0020FFF773FE182101EB4811C8B2AB
:10303000FFF75FFEE448FEF7FBF900F0FF0A0CE043
:103040000020FFF756FEE048FEF7F2F900F0FF0A15
:1030500085F800A06D1C601C84B2B442F0DB102126
:10306000DA48FDF754FE09EB06001FFA80F94A46DC
:1030700028214046FFF7BDFE402201214046FFF7D0
:103080009DFE304672E72DE9F04707460D46904613
:1030900000213846FFF70DFF00F00F0022280ED068
:1030A000CB4A0C213846FFF7BFFECA48417800786A
:1030B00001EB002082B210213846FFF79AFE24214E
:1030C0003846FFF719FF0646B146C6F30A06102137
:1030D000BE48FDF71EFE3046FFF719FE102101EB3A
:1030E0004711C9B241F00400FFF703FE06EB0800E8
:1030F000B0F5006F0ADA002405E015F8010BFFF7C0
:10310000F8FD601C84B24445F7DB27E0C6F5006695
:10311000002405E015F8010BFFF7EBFD601C84B2FD
:10312000B442F7DB1021A948FDF7F1FD1021A748B3
:10313000FDF7EFFD0020FFF7EAFD102101EB47113D
:10314000C9B241F00400FFF7D4FD05E015F8010B0A
:10315000FFF7CFFD601C84B24445F7DB10219B488C
:10316000FDF7D5FD09EB08001FFA80F94A46242136
:103170003846FFF73EFE202201213846FFF71EFEAB
:10318000BDE8F08710B59448007880B910219348C5
:10319000FDF7BFFD3220FFF7B9FC10218F48FDF786
:1031A000B6FDC820FFF7B2FC01208B4908708A48A1
:1031B000007801280DD102E00220874908702E20F6
:1031C000FFF75AFE10F0010F03D083480078012862
:1031D000F2D010BD10B5002480210020FFF7A5FD1E
:1031E0000A20FFF793FC04227D490120FFF7C7FD69
:1031F00004227C490520FFF7C2FD06227A490920F6
:10320000FFF7BDFD042279490F20FFF7B8FD00BF8D
:103210000BE002221E212046FFF7D0FD02221F21D3
:103220002046FFF7CBFD601CC4B2082CF1DB4FF445
:10323000FA611920FFF78EFD08211B20FFF775FDAD
:10324000C0211620FFF771FD01211820FFF76DFD49
:103250001F222C210020FFF7B1FD03222F21002087
:10326000FFF7ACFD10BD38B5002460480078401C65
:10327000C0B28DF800005D484078401CC0B28DF8A7
:1032800001005A488078401CC0B28DF802005748AF
:10329000C078401CC0B28DF803006A460C210020A3
:1032A000FFF7C2FD012200210846FFF787FD01223A
:1032B00011460020FFF782FD0520FFF727FC0321C0
:1032C0000020FFF7F6FD132806D010220121002070
:1032D000FFF774FD002038BD042201210020FFF714
:1032E0006DFD00BF02210020FFF7E3FD044624B17D
:1032F000224602210020FFF761FD0520FFF706FCB2
:1033000004F00800082801D10020E4E7062100208D
:10331000FFF7CFFDFF2806D0102201210020FFF784
:103320004DFDFF20D7E7DDE710B5044640F2B4526B
:1033300012210020FFF75DFD082C26D2DFE804F003
:10334000041E1F202122232429484178007801EB04
:10335000002082B204210020FFF74BFD2548417870
:10336000007801EB002082B210210020FFF741FD20
:10337000214A0C210020FFF757FD07E006E005E099
:1033800004E003E002E001E000E000BF00BF10BD88
:1033900010B50446012200212046FFF70FFD01224F
:1033A00011462046FFF70AFD0520FFF7AFFB03217A
:1033B0002046FFF77EFD132820D010220121204651
:1033C000FFF7FCFC002010BD003001400008014068
:1033D0006100002065000020440000200010014032
:1033E000470000204B0000204F0000205500002027
:1033F000590000205F0000205B0000200422012112
:103400002046FFF7DBFCFF2010BD10B5044601226B
:1034100000212046FFF7D2FC012211462046FFF78B
:10342000CDFC0520FFF772FB03212046FFF741FD8D
:10343000132806D0102201212046FFF7BFFC0020F0
:1034400010BD022201212046FFF7B8FC0520FFF73E
:103450005DFB03212046FFF72CFD142806D0102227
:1034600001212046FFF7AAFC0020E9E7FF20E7E75B
:1034700010B50446022200212046FFF79FFC0122DE
:1034800011462046FFF79AFC0520FFF73FFB03217A
:103490002046FFF70EFD222806D0102201212046EB
:1034A000FFF78CFC002010BDFF20FCE770B500BFCB
:1034B0000020444908701520FFF7DEFC054605F0A2
:1034C000F0011520FFF731FC1720FFF7D5FC05466A
:1034D00015F0010F3DD002210020FFF7EAFC044661
:1034E000224602210020FFF769FC14F0010F05D0ED
:1034F0003548007840F002003349087014F0020F9C
:103500000AD0102201210020FFF758FC0020FFF70D
:103510000BFF00202C49087014F0100F05D02B4829
:10352000007840F002002949087014F0040F05D01B
:103530002648007840F001002449087014F0080F74
:1035400007D0102201210020FFF738FC00201E497F
:1035500008701720FFF790FC00B1A9E770BD10B507
:1035600019480078F8B91A48007860B90020FFF7C8
:103570004CFFFF2803D101201349087020E00020F0
:10358000114908701CE01248007801280CD1002075
:10359000FFF7FEFEFF2803D101200B4908700FE062
:1035A0000020094908700BE00020FFF761FFFF28A9
:1035B00003D103200449087002E00020024908708A
:1035C00010BD0000680000204600002067000020B9
:1035D0004500002001460868704700B58DB01B22E9
:1035E000142101A800F0DCFEFE4800680890FD48A8
:1035F000001D00680990FB48083000680A9009988F
:10360000000A8DF82C009DF82C0000EBD0714910B9
:10361000B0EB410105D09DF82C00401EC0B28DF8E2
:103620002C000998C0B28DF82D000898000E8DF876
:103630002E000898000C8DF82F000898000A8DF8CD
:1036400030000898C0B28DF831009DF82C00E64992
:1036500008709DF82D0048709DF82E0088709DF828
:103660002F00C8709DF8300008719DF83100487136
:103670009DF80400DD4908709DF8050048709DF82C
:10368000060088709DF80700C8709DF80800D849AA
:1036900008709DF8090048709DF80A0088709DF830
:1036A0000B00C8709DF80C00D24908709DF80D0001
:1036B00048709DF80E0088709DF80F00C8709DF846
:1036C0001100CD4908709DF8100048700020CB49CA
:1036D00008700DB000BD10B5FFF77CFDFFF7C3FD0E
:1036E0000020FFF721FE10BD10B502460B4600205A
:1036F000012103E0545C0444E0B2491C9942F9DB27
:1037000010BD2DE9F04FADB080460E4614460220A4
:103710008DF80000BA48007840F080008DF8010074
:10372000601C85B2E01C1FFA80FBE8B28DF8020035
:10373000280A8DF803008DF804804FF005096CB15C
:10374000002709E016F8010B0DF80900781C87B274
:1037500009F101001FFA80F9A742F3DB601D1FFA8F
:1037600080FB59466846FFF7BFFF8246601D0DF893
:1037700000A0A01D85B203200DF80500E01D85B254
:103780002A4669469F4800F0E2FE2A466946002024
:10379000FFF779FC2DB0BDE8F08F2DE9F0478146A9
:1037A000DFF8648299494846FFF7D5FB0546A81E15
:1037B0009649085C96490870A81E81B29348FFF7A5
:1037C00093FF9349487008460078497888420ED1A3
:1037D0008E48007802280AD1681E8C49085C0328AC
:1037E00005D10846407886490978884205D00022EC
:1037F00088495A20FFF785FFBEE284480779422FA7
:1038000001D0572F7ED1422F02D0572F7BD105E018
:103810000D2280494220FFF774FF9AE27B484779E6
:10382000442F5AD0472F02D0572F6DD11CE0FCF700
:10383000B0FE47207849087001225720FFF761FF4A
:103840000A20FFF763F900BFBFF34F8F734800688A
:1038500000F4E06072490843001D70490860BFF33E
:103860004F8F00BF00BFFEE76E480088022821D1BD
:103870005720694908706548C0796B490880084637
:1038800000884FF6FF7101EA0020674908805F4811
:103890008079098808446449088008460088401EE9
:1038A000088004205F49088001225B495720FFF708
:1038B00028FF11E04520584908700520A1F80100B3
:1038C0000020C870002154480171002052494871FD
:1038D00003225720FFF715FF38E2524800880428DA
:1038E0007EDB50480088042808D1FCF746FE3420CF
:1038F000FDF7DEF8444605204A49088043488079B0
:10390000454902E026E223E21FE248703F48C079C1
:1039100088700846B0F8010044490988884213D0ED
:1039200045203D4908700420A1F801000020C8701E
:10393000002139480171002037494871032257207E
:10394000FFF7DFFEBDE8F08740F20A20854206DB84
:103950003148B0F8010034490988884241D12E48E5
:10396000B0F8010030490988884215D045202A491D
:1039700008700220A1F801000020C870002126482C
:10398000017100202449487103225720FFF7B9FE36
:10399000072024490880D5E71C48083024490860DE
:1039A00022490888C11700EB91718910A0EB8101B1
:1039B000154A02EB41211F4A1160A5F10A021C4879
:1039C00001681C48006800F0C2FD00BF0120FDF73F
:1039D0005AF80128FAD018490968184A12882FE0C5
:1039E000A0E1D7E0E8F7FF1F4F00002047000020CC
:1039F0004B00002055000020590000204500002009
:103A00006C000020FC020020C4030020A400002061
:103A1000890000206D0000209A0000200CED00E0DD
:103A20000000FA057A000020980000209400002091
:103A30008C000020900000207C00002080000020EE
:103A4000EE4B1B8802FB0310FCF7DCFDEC49087011
:103A500008460078042815D04520EA490870082057
:103A6000A1F801000020C8700021E6480171002083
:103A7000E449487103225720FFF743FE0720E2493B
:103A800008805FE74446002645E0E048216800687A
:103A9000FCF788FEDA49087008460078042815D03B
:103AA0004520D84908700720A1F801000020C870FF
:103AB0000021D44801710020D249487103225720C7
:103AC000FFF71FFE0720D04908803BE7CF4800687A
:103AD000FFF780FD2168884215D04520C94908704C
:103AE0000320A1F801000020C8700021C548017121
:103AF0000020C449487103225720FFF702FE072027
:103B0000C14908801EE7C1480068001DBF49086020
:103B1000241D301D86B2BE490888C11700EB917183
:103B20008910A0EB8101A5F10A0202EB4121B1420B
:103B3000ABDC4FF4FF20FCF765FDB1490870084687
:103B40000078042815D04520AE4908700820A1F857
:103B500001000020C8700021AA4801710020A94975
:103B6000487103225720FFF7CCFD0720A6490880A3
:103B7000E8E60620A44908804420A2490870A54828
:103B800080794870A348C079887003225720FFF7D6
:103B9000B8FDD7E6A5F500700A3875D19D48083004
:103BA0009D4908609A490888C11700EB91718910F6
:103BB000A0EB8101994A02EB4121994A11604FF42F
:103BC0000072954801689648006800F0C0FC904873
:103BD0000088401C8E4908800888C11700EB91714D
:103BE000864A1288B2EBA10F78DA8E490A688E49AC
:103BF0000988824B1B8801FB0320FCF703FD8049E9
:103C0000087008460078042815D045207D490870C2
:103C10000820A1F801000020C87000217948017136
:103C200000207849487103225720FFF76AFD0720DA
:103C30007549088086E671480088401C6F490880F5
:103C40004446002646E0714821680068FCF7AAFD5A
:103C50006B49087008460078042816D04520694949
:103C600008700720A1F801000020C87000216548F5
:103C7000017100206349487103225720FFF741FD7D
:103C80000720614908805DE636E060480068FFF77C
:103C9000A1FC2168884215D045205A4908700320AC
:103CA000A1F801000020C8700021564801710020D1
:103CB0005449487103225720FFF723FD072052493A
:103CC00008803FE651480068001D50490860241DE7
:103CD000301D86B2544800888642B4DB44204949EE
:103CE00008704C48807948704A48C079887003222F
:103CF0005720FFF706FD27E04520424908700220C3
:103D0000A1F801000020C87000213E480171002088
:103D10003C49487103225720FFF7F3FC07203A493A
:103D200008800FE64520374908700520A1F80100FA
:103D30000020C870002133480171002031494871CA
:103D400003225720FFF7DDFC00E000BF00BF00E0CA
:103D500000BF11E045202B4908700120A1F80100A7
:103D60000020C870002127480171002025494871B2
:103D700003225720FFF7C5FC00BFE3E510B52B4831
:103D8000007818B129480078012801D1FFF7FAF925
:103D900026480078022804D1FFF79DFC0320234920
:103DA000087022480078032814D1FFF7D8FB204878
:103DB000007808B1FFF77AFB1E48007810F0010F79
:103DC00008D01C48007820F001001A490870002033
:103DD000FFF7E3FC0C48008801280DD14FF4FF20C9
:103DE000FFF7F8FBB0F1773F03D1022006490880C6
:103DF00002E006200449088010BD00009600002063
:103E0000880000209A0000207A0000208400002012
:103E100094000020A40000208C000020C403002097
:103E2000900000207C000020800000204400002042
:103E3000680000206700002008B501213120FDF74F
:103E400091F94FF4E050ADF8000003208DF8020026
:103E500010208DF8030069461748FCF7ADFE0120DD
:103E6000ADF8000003208DF8020010208DF803004B
:103E700069461248FCF7A0FE08BD10B54FF48061FA
:103E80000D48FCF746FF10BD10B54FF480610A489D
:103E9000FCF73DFF10BD10B5FEF744FE642801D1CC
:103EA000FFF7EBFFFEF73EFEC82803D3FFF7ECFF5A
:103EB000FEF73BFE10BD0000001001400014014061
:103EC00010B5044600BF0221F948FDF702FB0028A7
:103ED000F9D02146F648FDF7A9FA00BF0121F448C0
:103EE000FDF7F7FA0028F9D0F148FDF7A1FAC0B2C2
:103EF00010BD2DE9F04100240025002600274FF4D5
:103F00000041EC48FCF705FF9F20FFF7D9FFA520F3
:103F1000FFF7D6FF0546A520FFF7D2FF0646A520EE
:103F2000FFF7CEFF07464FF40041E248FCF7EFFEF3
:103F3000280440EA062040EA07042046BDE8F08154
:103F400010B50024FFF7D5FF0446DB48844201D1B9
:103F5000012010BD0020FCE700B587B001214FF41F
:103F60009470FDF7FFF80121C803FDF708F901215E
:103F70000846FDF7F7F80121D048FCF7ECFE0820D1
:103F8000ADF8040003208DF8060018208DF8070016
:103F900001A9CB48FCF710FE1020ADF8040001A9E0
:103FA000C748FCF709FE2020ADF8040001A9C44869
:103FB000FCF702FE4FF40040ADF8040010208DF82D
:103FC000070001A9BB48FCF7F7FD8020ADF804000D
:103FD00010208DF8070001A9B948FCF7EDFD40203D
:103FE000ADF8040010208DF8070001A9B448FCF7D3
:103FF000E3FD4FF40041AF48FCF789FE8021B04853
:10400000FCF785FE4021AE48FCF781FE0020ADF8AC
:1040100008004FF48270ADF80A000020ADF80C00E3
:104020000220ADF80E000120ADF810004002ADF8FE
:1040300012000820ADF814000020ADF8160007208B
:10404000ADF8180002A99A48FDF71AF9012198481D
:10405000FDF7BBF9FFF774FF07B000BD10B50024F2
:104060004FF400419348FCF754FE0520FFF728FF6A
:1040700000BFA520FFF724FF044614F0010FF8D17C
:104080004FF400418B48FCF742FE10BD10B54FF4D1
:1040900000418848FCF73DFE0620FFF711FF4FF472
:1040A00000418448FCF733FE10BD10B50446FFF70D
:1040B000EDFF84A000F086FA4FF400417D48FCF744
:1040C00028FE2020FFF7FCFEC4F30740FFF7F8FEB0
:1040D000C4F30720FFF7F4FEE0B2FFF7F1FE4FF460
:1040E00000417448FCF713FEFFF7B8FF10BD10B590
:1040F0000446FFF7CBFF21467EA000F063FA2403BD
:104100004FF400416B48FCF704FE2020FFF7D8FE77
:10411000C4F30740FFF7D4FEC4F30720FFF7D0FE37
:10412000E0B2FFF7CDFE4FF400416248FCF7EFFD2F
:10413000FFF794FF10BD10B5FFF7A8FF4FF4004143
:104140005C48FCF7E6FDC720FFF7BAFE4FF40041DC
:104150005848FCF7DCFDFFF781FF10BD70B5054640
:104160000C461646FFF792FF4FF400415148FCF70A
:10417000D0FD0220FFF7A4FEC4F30740FFF7A0FE26
:10418000C4F30720FFF79CFEE0B2FFF799FEB6F5F7
:10419000807F04DD4FF4807663A000F013FA03E023
:1041A0002878FFF78DFE6D1C3000A6F101018EB25C
:1041B000F6D14FF400413F48FCF7A9FDFFF74EFF51
:1041C00070BD2DE9F05F07460E4614464FF000081B
:1041D000C146C2460025AB4606F0FF0ACAF1000000
:1041E000C5B22046E11704EB1161C1F30728E117BE
:1041F00004EB11610912A4EB012101F0FF09BAF1EE
:10420000000F20D1B8F1000F05D1224631463846C3
:10421000FFF7A4FFB5E009E04FF48072314638465D
:10422000FFF79CFF06F5807607F580775FEA0800C8
:10423000A8F1010101F0FF08EED14A4631463846A7
:10424000FFF78CFF9DE0B8F1000F18D1A94510DDF4
:10425000A9EB050000F0FF0B2A4631463846FFF770
:104260007DFF2E442F445A4631463846FFF776FFED
:1042700087E0224631463846FFF770FF81E0601B39
:1042800084B22046E11704EB1161C1F30728E1175E
:1042900004EB11610912A4EB012101F0FF092A4688
:1042A00031463846FFF75AFF2E442F445AE00000AB
:1042B000003C0040002001401740EF0000023000A9
:1042C000000C01400D0A2057696E626F6E64205326
:1042D000657269616C20466C61736820573235588D
:1042E00031362045726173655F536563746F722167
:1042F0000D0A00000D0A2057696E626F6E6420532C
:10430000657269616C20466C61736820573235585C
:1043100031362045726173655F536563746F722037
:104320002575210D0A0000000A0D204572723A2001
:104330005350495F464C4153485F5061676557721F
:1043400069746520746F6F206C617267652100006D
:104350004FF4807231463846FFF700FF06F580764D
:1043600007F580775FEA0800A8F1010101F0FF0876
:10437000EED1B9F1000F04D04A4631463846FFF776
:10438000EDFEBDE8F09F2DE9F04105460C461646CE
:104390002703324639462846FFF713FFBDE8F08170
:1043A00070B505460C4616464FF400415E48FCF7D2
:1043B000B0FC0320FFF784FD2403C4F30740FFF79C
:1043C0007FFDC4F30720FFF77BFDE0B2FFF778FD28
:1043D00004E0A520FFF774FD28706D1C3000A6F1E5
:1043E00001018EB2F5D14FF400414F48FCF78FFC2C
:1043F00070BD10B500244FF400414B48FCF789FC18
:10440000AB20FFF75DFDA520FFF75AFDA520FFF7C4
:1044100057FDA520FFF754FDA520FFF751FD0446E9
:104420004FF400414048FCF772FC204610BD10B527
:1044300004464FF400413C48FCF76BFC0320FFF7B7
:104440003FFDC4F30740FFF73BFDC4F30720FFF730
:1044500037FDE0B2FFF734FD10BD10B5A520FFF722
:104460002FFD10BD10B5044600BF02212F48FDF7F7
:1044700030F80028F9D021462C48FCF7D7FF00BFC0
:1044800001212A48FDF725F80028F9D02748FCF734
:10449000CFFF10BD10B54FF400412348FCF739FCA5
:1044A0000420FFF70DFD4FF400411F48FCF72FFCDF
:1044B00010BD10B500244FF400411B48FCF729FC47
:1044C0000520FFF7FDFCFF20FFF7FAFC04464FF440
:1044D00000411548FCF71BFC204610BD10B500BF7D
:1044E000FFF7E7FF10F0010FFAD110BD10B54FF440
:1044F00000410D48FCF70DFCB920FFF7E1FC4FF43B
:1045000000410948FCF703FC10BD10B54FF4004111
:104510000548FCF7FEFBAB20FFF7D2FC4FF400414F
:104520000148FCF7F4FB10BD00200140003C0040B6
:1045300010B545F25550FCF78BFC0320FCF78BFCC3
:1045400040F2FF70FCF78AFCFCF78BFC10BD40EAE0
:1045500001039B0703D009E008C9121F08C0042A01
:10456000FAD203E011F8013B00F8013B521EF9D2E8
:10457000704730B50B46014600202022012409E097
:1045800021FA02F59D4205D303FA02F5491B04FA0C
:1045900002F52844151EA2F10102F1DC30BD000035
:1045A000064C074D06E0E06840F0010394E8070080
:1045B00098471034AC42F6D3FBF7BEFDE84800083C
:1045C000084900080FB4054B10B503A9044A029826
:1045D00000F018F810BC5DF814FB00005947000803
:1045E000A000002002E008C8121F08C1002AFAD16A
:1045F00070477047002001E001C1121F002AFBD163
:10460000704700002DE9FF4F89B09B460446002506
:1046100097E0252833D10027641C4E49B846012273
:104620002378203B02FA03F0084202D00743641CBF
:10463000F6E720782E2819D114F8010F47F0040767
:104640002A280ED06FF02F022078A0F1300109291E
:104650000CD808EB880102EB410100EB0108641C57
:10466000F2E70A98641C50F8048B0A90207800281E
:104670006BD0642808D0692806D0752820D05A4607
:104680000B9990476D1C5BE00A994FF00A0901C92C
:104690000A91002804DAC0F100004FF02D0102E079
:1046A000390504D52B218DF82010012103E0F907ED
:1046B00004D02021F7E78A4608AE0EE00021FAE791
:1046C0000A994FF00A0901C90A91F7E74946FFF72D
:1046D00050FF01F1300106F8011D0028F6D1ADEBC5
:1046E000060000F12009780701D44FF00108C84501
:1046F00002DDA8EB090000E000208046002706E06C
:1047000008A85A46C05D0B9990476D1C7F1C574501
:10471000F6DB04E030205A460B9990476D1CB8F147
:104720000001A8F10108F5DC05E016F8010B5A4676
:104730000B9990476D1CB9F10001A9F10109F4DC56
:10474000641C207800287FF464AF0DB02846BDE8D3
:10475000F08F00000928010038B504468DF80000EC
:1047600069460320ABBE204638BD00000D0A3D3D22
:104770003D3D3D3D3D3D3D3D3D3D3D3D3D3D3D3D69
:104780003D3D3D3D3D3D3D3D3D3D3D3D3D3D3D3D59
:104790003D3D3D3D3D3D3D3D3D3D3D3D3D3D3D3D49
:1047A0003D3D3D3D3D3D3D3D3D3D3D3D3D3D3D3D39
:1047B0003D3D3D3D000000000D0A3D202020202011
:1047C0002020202020202020202A2A2A2A2A2A2AA3
:1047D0002A2A2A2A2A2A2A2A2A2A2A2A2A2A2A2A39
:1047E0002A2A2A20202020202020202020202020AB
:1047F0002020202020202020202020202020203D9C
:10480000000000000D0A3D20202020202020202034
:104810002020202020202020202020202020202098
:104820002020202020202020202020202020202088
:104830002020202020202020202020202020202078
:1048400020202020202020202020203D00000000CB
:104850000D0A3D2020202020496E2D4170706C698A
:10486000636174696F6E2050726F6772616D6D69FC
:104870006E67204170706C69636174696F6E20208F
:104880002856657273696F6E20312E302E302920C4
:10489000202020202020203D000000000D0A3D2087
:1048A0002020202020202020202020202020202008
:1048B000202020202020202020202020427920514C
:1048C00049202020202020202020202020202020BF
:1048D00020202020202020202020202020202020D8
:1048E0002020203D000000000849000800000020B2
:1048F000A4000000E4450008AC490008A400002022
:10490000240F0000F445000800A24A040000000043
:10491000000000000102030406070809000000006F
:104920000102030401020304060708090204060841
:10493000000001080000000000000000000000006E
:104940000000000000000000000000000003000064
:104950000000000000000000000000000000000057
:104960000000000000000000000000000000000047
:1049700000000000024202030405060708090A0BB2
:104980000C0D0000000001080008000000000108F4
:104990000400000000000000000000000000000013
:0C49A0000000000000000000000000000B
:0400000508000131BD
:00000001FF
