:020000040801F1
:10000000F8A7002045010108690101086B010108FA
:100010006F01010873010108770101080000000069
:100020000000000000000000000000007B0101084B
:100030007D010108000000007F0101088101010825
:100040005F0101085F0101085F0101085F0101080C
:100050005F0101085F0101085F0101085F010108FC
:100060005F0101085F0101085F0101085F010108EC
:100070005F0101085F0101085F0101085F010108DC
:100080005F0101085F0101085F0101085F010108CC
:100090005F0101085F0101085F010108A301010878
:1000A0005F0101085F0101085F0101085F010108AC
:1000B0008B010108930101089B0101085F01010800
:1000C0005F0101085F0101085F0101085F0101088C
:1000D0005F0101085F0101085F0101085F0101087C
:1000E000830101085F0101085F0101085F01010848
:1000F0005F0101085F0101085F0101085F0101085C
:100100005F0101085F0101085F0101085F0101084B
:100110005F0101085F0101085F0101085F0101083B
:100120005F0101085F0101085F0101085F0101082B
:10013000DFF80CD01BF07EFD00480047AD01010840
:10014000F8A700200648804706480047FEE7FEE77C
:10015000FEE7FEE7FEE7FEE7FEE7FEE7FEE7FEE777
:100160004392010831010108704700BFFEE700BF5C
:10017000FEE700BFFEE700BFFEE77047704770472D
:10018000704710B50BF031FC10BD10B50BF03AFC08
:1001900010BD10B50BF032FD10BD10B50CF028F8F5
:1001A00010BD10B50CF0E1FD10BD000062B60CF002
:1001B00059FC0CF06FF80BF00EFE0CF031F901F069
:1001C00068FC19F031FE0120544908605449C1F817
:1001D000A4015249091F086052490860091D0860BE
:1001E000514908600020514908705149086051493F
:1001F00008800846407820F00200487008464078A1
:1002000020F0010048700846007820F0800080301F
:1002100008700846007820F0400008700846007812
:1002200020F0200008700846007820F010000870C8
:100230000846007820F0080008300870084600786A
:1002400020F0040008700846007820F002000870D2
:100250000846007820F00100401C08700BF03BFEBF
:100260000BF0E0FD0020344908603148807820F030
:100270000200801C2E49887000F062F803E019F03B
:1002800092FD09F0F0FD2C480068B0F5FA5FF6D356
:100290000121052000F01FFB0121062000F01BFBBF
:1002A0000121072000F017FB0121082000F013FBBB
:1002B00001212B2000F00FFB2EE019F074FD1F48E8
:1002C00000780D2823D2DFE800F01C072222220D3F
:1002D000100A221316191F0000F086F91BE001F026
:1002E0009DFC18E000F06BFD15E005F03CFD12E010
:1002F00004F0E7F90FE004F013FE0CE006F0D1FA89
:1003000009E003F056F906E007F022FD03E00020C3
:100310000A49087000BF00BFCFE70000A0012242D9
:10032000000022428C012442880123425E0000200A
:10033000580000205C0000207C00002054000020B9
:1003400010B545F2555009F085FD062009F085FDF0
:100350004FF49C7009F084FD09F085FD09F088FDDB
:1003600010BDF8B506460C4615460820FE49087033
:10037000002048704E2088704820C87000949DF876
:10038000000008719DF80100487100959DF800007B
:1003900088719DF80100C871F448008800909DF8AC
:1003A000000008729DF80100487230460DF08FFC85
:1003B000F8BD2DE9F04F8FB082468B4658461BF0B2
:1003C000B8FA0890BAF1090F3FD00CDCBAF1050F6A
:1003D00013D0BAF1060F18D0BAF1070F1DD0BAF139
:1003E000080F4AD121E0BAF12B0F26D0BAF12C0F19
:1003F00033D0BAF12D0F40D137E042F20F74112201
:10040000DB4909A81BF004F83BE042F20F7411220B
:10041000D84909A81AF0FCFF33E04CF250341122FD
:10042000D54909A81AF0F4FF2BE04CF25034112200
:10043000D24909A81AF0ECFF23E044F62064112207
:10044000CF4909A81AF0E4FF1BE042F20F74112211
:10045000CC4909A81AF0DCFF13E040F2E73411227E
:10046000C94909A81AF0D4FF0BE040F2E734112281
:10047000C64909A81AF0CCFF03E0C5A01BF018FC80
:1004800000BF00BF9DF82400012804D002281AD024
:10049000032878D13DE0DDF8290008991BF048F8E1
:1004A0000690DDF825101AF0EBFF07901BF073FAA9
:1004B00007460022C44B1BF0ABF805461BF052FA6E
:1004C0001FFA80F963E0DDF82D0008991BF030F881
:1004D000039008991BF02CF80590DDF82900089985
:1004E0001BF026F8049005991AF0CAFF0690DDF873
:1004F00025101AF0C5FF07901BF04DFA07460022A1
:10050000B14B1BF085F805461BF02CFA1FFA80F959
:100510003DE0DDF8310008991BF00AF802900899D7
:100520001BF006F8804608991BF002F80490DDF8ED
:100530002D0008991AF0FCFF019008991AF0F8FFB5
:100540008046DDF8290008991AF0F2FF4146029032
:100550001AF096FF039004991AF092FF0590DDF8C7
:1005600025101AF08DFF07461BF015FA0022964B56
:10057000CDE906011BF04CF805461BF0F3F91FFA14
:1005800080F904E0FFE791A01BF092FB00BF00BFE1
:10059000A14500DDA146BAF1070F03D0BAF1080F5B
:1005A0001CD10DE096480088814506DD94480088FE
:1005B000A9EB00001FFA80F901E04FF000090EE0FE
:1005C00090480088814506DD8E480088A9EB000030
:1005D0001FFA80F901E04FF0000900E000BF00BF02
:1005E00048460FB0BDE8F08F2DE9F04389B00024F4
:1005F00069E119F0D8FB8448007809283DD008DC6F
:1006000005280DD0062814D007281BD008284FD164
:1006100021E02B2828D02C2838D02D2848D13EE0A6
:100620007A48008808901122514901A81AF0F0FE7A
:1006300042E077480088089011224E4901A81AF03C
:10064000E7FE39E073480088089011224A4901A862
:100650001AF0DEFE30E07048008808901122474909
:1006600001A81AF0D5FE27E06C48008808901122F6
:10067000434901A81AF0CCFE1EE0694800880890A2
:100680001122404901A81AF0C3FE15E06548008810
:10069000089011223C4901A81AF0BAFE0CE0624809
:1006A000008808901122394901A81AF0B1FE03E030
:1006B0005EA01BF0FDFA00BF00BF68480078C0F3E1
:1006C0008000002894D06548007820F00400634939
:1006D00008704D4800780BF0FFFC05461BF029F927
:1006E000044620461BF057F907465D4A5D4B1BF058
:1006F00036F805461BF036F980B20790BDF81C00AD
:10070000BDF82010884212DDBDF81C10BDF8202075
:10071000881A1BF005F9814648461BF00FF985B28F
:10072000294639480078FFF744FE069001E0002092
:10073000069008200C4908700020487043208870FB
:1007400031480078C8709DF8200008719DF821009C
:1007500048719DF81C0088719DF81D00C8719DF8B6
:100760001800087280E00000F28B00205C0000207E
:1007700048450020594500206A4500207B4500205F
:100780008C4500209D450020AE450020BF4500203F
:100790000D0A4572726F723A5468652041442063B5
:1007A00068616E6E656C2049442069732066616CD7
:1007B00073652121214164436F6E76657256616CC9
:1007C00075650D0A000000000000E03F0D0A45724B
:1007D000726F723A54686520506172616D6574651C
:1007E000725F4E422069732066616C73652121211E
:1007F0004164436F6E76657256616C75650D0A00D3
:10080000B4000020B6000020630000206400002037
:1008100066000020680000206A0000206C000020B4
:100820006E00002070000020720000200D0A45724A
:10083000726F723A546865204144206368616E6E3D
:10084000656C2069732066616C7365212121467592
:100850006E5F41646A7573740D0A000058000020D1
:10086000B3B7EE871388C33F9DF819004872FE485E
:1008700000780121B1EBD01F1CD1FC4902200DF002
:1008800026FAF948407800F00100E0B1F8484078D5
:1008900020F080008030F64948700846407820F00B
:1008A000400040304870BDF8182000210846FFF78E
:1008B00058FD08E0EC48407800F0010018B1EB4921
:1008C00000200DF004FAEB48007801283FF491AEC7
:1008D00009B0BDE8F0832DE9F05F824689464FF00C
:1008E000000B002450460BF0F7FB05461BF021F8E7
:1008F000834658461BF04FF80746DF4ADF4B1AF095
:100900002EFF05461BF02EF884B2BAF1090F5DD018
:100910000CDCBAF1050F13D0BAF1060F1ED0BAF1F4
:10092000070F29D0BAF1080F7BD133E0BAF12B0FB2
:100930003ED0BAF12C0F57D0BAF12D0F71D161E032
:10094000B9F1010F01D1CE48048021460520FFF7FF
:1009500030FD322801DACA48048066E0B9F1010F9F
:1009600001D1C848048021460620FFF722FD322825
:1009700001DAC448048058E0B9F1010F01D1C2483E
:10098000048021460720FFF714FD322801DABE4813
:1009900004804AE0B9F1010F01D1BC48048021462E
:1009A0000820FFF706FD322801DAB84804803CE051
:1009B000B9F1010F01D1B648048021462B20FFF781
:1009C000F8FC322801DAB24804802EE0B9F1010FB8
:1009D00001D1B048048021460920FFF7EAFC322803
:1009E00001DAAC48048020E0B9F1010F01D1AA4836
:1009F000048021462C20FFF7DCFC322801DAA648CF
:100A0000048012E0B9F1010F01D1A448048021460D
:100A10002D20FFF7CEFC322801DAA048048004E044
:100A2000FFE79FA01BF044F900BF00BFBDE8F09FA7
:100A300070B505460C4608208C49087000204870A7
:100A4000472088704620C87042F2107094FBF0F086
:100A5000087108460079002804DD08460079303026
:100A6000087102E020208149087142F2107094FB65
:100A7000F0F100FB11404FF47A7190FBF1F07B49EB
:100A800048710846407928B908460079202801D1E4
:100A9000487104E0754840793030744948714FF42A
:100AA0007A7094FBF0F100FB1140642190FBF1F0AF
:100AB0006E4988710846807928B90846407920280F
:100AC00001D1887104E069488079303067498871C4
:100AD000642094FBF0F100FB11400A2190FBF1F03F
:100AE0006249C8710846C07928B90846807920282B
:100AF00001D1C87104E05D48C07930305B49C871EC
:100B00000A2094FBF0F100FB114030305749087285
:100B10002020487228460DF0DAF870BD70B5064600
:100B20000D461446082051490870002048704420A2
:100B300088704620C87005F13000087142F21070CC
:100B400094FBF0F0487108464079002804DD08461F
:100B500040793030487102E020204449487142F227
:100B6000107094FBF0F100FB11404FF47A7190FB90
:100B7000F1F03E4988710846807928B908464079E5
:100B8000202801D1887104E0384880793030374915
:100B900088714FF47A7094FBF0F100FB11406421EE
:100BA00090FBF1F03149C8710846C07928B9084670
:100BB0008079202801D1C87104E02C48C0793030F8
:100BC0002A49C871642094FBF0F100FB11400A210E
:100BD00090FBF1F0254908720846007A28B90846CA
:100BE000C079202801D1087204E02048007A303012
:100BF0001E4908720A2094FBF0F100FB11403030CE
:100C00001A4948722020887230460DF060F870BD95
:100C100030B5014600242E48007A022814D1084637
:100C200001EBD075C5F34F0201EBD0756D10A1EB50
:100C30004505EBB2002B05DD501C4FF6FF7505EAAC
:100C4000400451E00C464FE02148007A05284AD183
:100C500091FBF0F082B2052091FBF0F500FB15103E
:100C6000C3B2032B3ADA35E058000020F28B0020A3
:100C70005C00002054000020B3B7EE871388C33F08
:100C80006400002066000020680000206A00002048
:100C90006C0000206E000020700000207200002018
:100CA0000D0A4572726F723A5468652041442063A0
:100CB00068616E6E656C2069732066616C73652176
:100CC000212146756E5F5A65726F0D0A00000000A3
:100CD000D045002002EB820084B205E0501C00EBFE
:100CE000800084B200E00C46204630BD70B502465C
:100CF000012319E0002012E032F8105002EB400608
:100D00007688B54209DD32F8104002EB40056D8867
:100D100022F8105002EB40056C80451CA8B2CD1A99
:100D20008542E9DC5D1CABB24D1E9D42E2DC70BD2C
:100D3000014600200A2936D006DC052909D00629FB
:100D40000FD0092938D126E015291CD0252933D107
:100D500010E0FD4A1268012A01D1012000E00020C4
:100D60002BE0F94A121D1268012A01D1012000E08E
:100D7000002022E0F44A08321268012A01D1012041
:100D800000E0002019E0F14A1268012A01D1012097
:100D900000E0002011E0EE4A1268012A01D1012092
:100DA00000E0002009E0EA4A121D1268012A01D180
:100DB000012000E0002000E000BF00BF70472DE9E7
:100DC000F84F00240026A14600BFE2480078012128
:100DD000B1EBD01F3CD1E04902200CF078FFDD4898
:100DE000407800F0010000283AD0DA48407801212C
:100DF000B1EBD01F06D1D948407820F00200801C0A
:100E0000D6494870D548407820F00100401CD349AD
:100E100048700846407820F08000487008464078C6
:100E200020F04000403048700846007820F08000F4
:100E300008700846007820F040004030087000221A
:100E400011461046FFF78DFA0A200AF0B7FF07E0B7
:100E5000C048407800F0010010B10A200AF0AEFF4F
:100E60000020BF490880BF490880BF488078401CE7
:100E7000C5B2B848007820F010001030B5490870AD
:100E8000B4E118F090FF0620FFF752FF01287DD152
:100E9000B0480078C0F3001000285ED00020B349AD
:100EA0000880AC48007820F01000AA490870002D96
:100EB00053DD681EC5B2002D4CDD0320AC4908701F
:100EC000002048704D2088703120C8700846057198
:100ED000A04800780121B1EBD01F3AD1A4490220EB
:100EE0000CF0F5FE9B48407800F0010080B3994873
:100EF00040780121B1EBD01F06D19848407820F00E
:100F00000200801C954948709448407820F0010008
:100F1000401C924948700846407820F0800080309C
:100F200048700846407820F040004030487008463D
:100F3000007820F0800008700846007820F040001B
:100F4000403008702A464FF6FF710020FFF709FA7B
:100F500003E002E00020874908707E480078C0F373
:100F60004000002844D07B48007820F002007949F6
:100F70000870701C86B22B200BF0F4F807461AF0AC
:100F8000D8FC814648461AF006FD00E077E082462C
:100F9000794A7A4B1AF0E3FB07461AF03FFD814687
:100FA000774800881AF0C5FC074649461AF052FDFA
:100FB00014D2734800881AF0BCFC804649461AF0E7
:100FC000B4FA07461AF0BAFC80B200902B200099C0
:100FD000FFF7EFF96B4921F8140003E0002069499D
:100FE00021F81400601C84B2B4F5967F00DB002465
:100FF00058480078C0F3C00000283ED0554800781B
:1010000020F00800534908702B200BF01FF807460A
:101010001AF08FFC814648461AF0BDFC0746564A36
:10102000564B1AF09CFB82461AF0F8FC8146544855
:1010300000881AF07EFC074649461AF00BFD13D2D1
:101040004F4800881AF075FC804649461AF06DFA40
:1010500007461AF073FC80B200902B200099FFF72E
:10106000A8F93F49088002E000203D49088039483E
:1010700000780121B1EBD01F00D1B7E0B6E03548D0
:101080000078C0F3C00000287ED03248007820F0FD
:101090000800304908702B200AF0D8FF07461AF0E4
:1010A00048FC814648461AF076FC0746324A334BE4
:1010B0001AF055FB82461AF0B1FC81463048008890
:1010C0001AF037FC074649461AF0C4FC13D22C48E4
:1010D00000881AF02EFC804649461AF026FA074688
:1010E0001AF02CFC80B200902B200099FFF761F9D8
:1010F0001B49088002E00020194908801548007843
:101100000121B1EBD01F58D11248407800F0010006
:10111000D0B310484078B1EBD01F06D10F484078CB
:1011200020F00200801C0D4948700C48407820F0E7
:101130000100401C094948700846407820F08000B2
:1011400080304870084620E00C01234228012442E8
:101150003401224258000020F70000205C000020EB
:101160008C0000209C000020D0450020760000204C
:10117000F28B002054000020B3B7EE871388C33FE2
:101180006C000020E645002020E0407820F0400080
:10119000403048700846007820F08000087008460B
:1011A000007820F0400040300870F84802884FF680
:1011B000FF710020FFF7D5F808E0F548407800F00F
:1011C000010018B1F34900200CF081FDF24880784D
:1011D000401CC5B20020F1490880ED48007820F09D
:1011E00010001030EA49087000240026EC4800780E
:1011F00005283FF446AEB6F5967F01DB4FF49676B0
:101200003146E848FFF772FD4FF00009B6F58C7FD4
:1012100019DD64240BE0E34931F814001AF089FB6E
:10122000074649461AF02CF98146601C84B2FA2C14
:10123000F1DBDD4948461AF0ADF907461AF07EFBAE
:10124000DA4908801EE014240BE0D64931F8140076
:101250001AF06FFB074649461AF012F98146601CE6
:1012600084B2A6F11400A042EFDC14381AF058FB47
:101270008046414648461AF08DF907461AF05EFB53
:10128000CA490880C9480088FFF7C2FCC7490880DE
:10129000BF4800780121B1EBD01F2DD1C4490220F5
:1012A0000CF015FDBA48407800F0010090B1C1483B
:1012B000407820F080008030BE4948700846407871
:1012C00020F040004870B94802884FF6FF710020B6
:1012D000FFF747F8AE48807800F00100C8B1AC488D
:1012E000807820F00100AA498870B0480288012166
:1012F0000220FFF713FC0CE0A548407800F0010045
:1013000038B1AA4801880020FFF792FB14200AF0A8
:1013100055FD0C20A2490870BDE8F88FF8B50027EC
:1013200064220021A4480BF0D3FAA3480578012DCC
:1013300001DB0F2D75DD0F209F49087008460578E9
:101340000A20487000208870C8700B2008710020A7
:10135000487188710C20C8710020087248720D20F5
:1013600088720020C87208730E20487300208873AA
:10137000C8730F2008740020487488741020C87443
:10138000002008754875112088750020C8750876FA
:101390001220487600208876C8761320087700202F
:1013A000487788771420C877002081F8200081F8DA
:1013B0002100152081F82200002081F8230081F807
:1013C0002400162081F82500002081F8260081F8ED
:1013D0002700172081F82800002081F8290081F8D3
:1013E0002A00182081F82B00002081F82C0081F8B9
:1013F0002D00002460E104EB4400401C6E490E5CAB
:1014000004EB4400801C085C8DF8000004EB4400F1
:10141000C01C085C8DF80100A6F10A000F2876D2E6
:1014200000E04DE1DFE800F0081C2C3C50647991AD
:10143000A6D5E5FAF3F2F100BDF80000032803DBBE
:10144000BDF80000092806DD0320534988705A4979
:101450008870012703E0BDF800004F49887028E13B
:10146000BDF80000012806DD01204B49C870524933
:101470004871012703E0BDF800004749C87018E132
:10148000BDF80000012806DD0120434908714A49E2
:101490000872012703E0BDF800003F49087108E128
:1014A000BDF80000032803DBBDF80000092806DDB5
:1014B0000320394948714049C872012703E0BDF84B
:1014C000000035494871F4E0BDF80000032803DB53
:1014D000BDF80000092806DD05202F49887136492E
:1014E0008873012703E0BDF800002B498871E0E014
:1014F000BDF80000032803DBBDF80000092807DD64
:1015000008202549C8712C494874012704E0CFE020
:10151000BDF800002049C871CBE0BDF800000128EB
:1015200007D0BDF80000022803D0BDF80000052850
:1015300004D1BDF800001849087205E001201649E1
:1015400008721D4908750127B3E0BDF80000C828DE
:1015500007DD00201049A1F809001749C8750127C7
:1015600007E0BDF800000C49A1F80900002013496C
:1015700008809EE0BDF80000C82821DD0020064953
:10158000A1F80B000C498876012721E08C0000208F
:10159000580000202D010020D045002076000020BA
:1015A00054000020E6450020000016439C00002067
:1015B0001D0100205C000020E68D0020B40000200A
:1015C000BDF80000FC49A1F80B000020FB49088091
:1015D0006FE0BDF800001E2806DD0020F6494873C4
:1015E000F7494877012703E0BDF80000F249487346
:1015F0005FE0BDF800001E280BDD0020EE49887377
:10160000EF4981F82000012707E03CE024E012E0E8
:1016100004E0BDF80000E84988734AE042F6EC4077
:10162000E549A1F80F00EC20E54981F823002C20C2
:1016300081F824003DE0BDF80000032807DD02200A
:10164000DD494874DE4981F82600012703E0BDF832
:101650000000D94948742CE0BDF80000B0F5617F66
:101660000CDD4FF41670D44948825820D44981F8D3
:101670002900022081F82A00012703E0BDF80000BC
:10168000CD49488215E0BDF80000142803DBBDF801
:1016900000005A2807DD1420C7490875C84981F899
:1016A0002C00012703E0BDF80000C349087500E0E5
:1016B00000BF00BF601CC4B2AC42FFF69CAEDBE1D1
:1016C0000024D6E104EB4400401CBD490E5C04EB51
:1016D0004400801C085C8DF8000004EB4400C01C32
:1016E000085C8DF80100A6F10A000F2870D2DFE82F
:1016F00000F008253E577592AFD0FCFAF9F8F7F6DE
:10170000F500BDF80000032803DBBDF80000092840
:101710000FDD0320A8498870032104EB4400801CDE
:10172000A74A1154002104EB4400C01C11540127A6
:1017300003E0BDF80000A049887097E1BDF8000003
:1017400001280FDD01209C49C870012104EB4400F1
:10175000801C9B4A1154002104EB4400C01C11540E
:10176000012703E0BDF800009349C8707EE1BDF891
:10177000000001280FDD01208F490871012104EBD1
:101780004400801C8E4A1154002104EB4400C01C0C
:101790001154012703E0BDF800008749087165E195
:1017A000BDF80000032803DBBDF80000092810DDA8
:1017B000032081494871032104EB4400801C804AC6
:1017C0001154002104EB4400C01C1154012704E013
:1017D0004BE1BDF800007849487147E1BDF80000D1
:1017E000032803DBBDF8000009280FDD052072493E
:1017F0008871052104EB4400801C714A11540021BA
:1018000004EB4400C01C1154012703E0BDF80000A4
:10181000694988712AE1BDF80000032803DBBDF89F
:10182000000009280FDD08206349C871082104EB76
:101830004400801C624A1154002104EB4400C01C87
:101840001154012703E0BDF800005B49C8710DE1A8
:10185000BDF80000012807D0BDF80000022803D021
:10186000BDF80000052804D1BDF8000052490872F7
:101870000EE0012050490872012104EB4400801C55
:101880004F4A1154002104EB4400C01C115401279D
:10189000ECE0BDF80000C8280FDD00204649A1F8A3
:1018A0000900002104EB4400801C454A115404EB5C
:1018B0004400C01C115401270FE0BDF800003E4950
:1018C000A1F809000846B0F8090000EB80004FF6C7
:1018D000FF7101EA40003B490880C7E0A8E08CE0C6
:1018E00072E057E03EE025E0FFE7BDF80000C828C1
:1018F0000FDD00203049A1F80B00002104EB44006B
:10190000801C2F4A115404EB4400C01C11540127C1
:101910000FE0BDF800002849A1F80B000846B0F818
:101920000B0000EB80004FF6FF7101EA40002349F5
:1019300008809BE0BDF800001E280EDD00201E4937
:101940004873002104EB4400801C1D4A115404EB31
:101950004400C01C1154012703E0BDF800001649E3
:10196000487383E0BDF800001E280EDD00201249F8
:101970008873002104EB4400801C114A115404EBCD
:101980004400C01C1154012703E0BDF800000A49BF
:1019900088736BE042F6EC400749A1F80F00EC2198
:1019A00004EB4400801C064A11542C2104EB440033
:1019B000C01C11545AE00000D0450020B6000020A1
:1019C000E68D0020B4000020BDF8000003280FDDE4
:1019D0000220F8494874022104EB4400801CF64AB6
:1019E0001154002104EB4400C01C1154012703E0F2
:1019F000BDF80000EF49487438E0BDF80000B0F5CC
:101A0000617F10DD4FF41670EA494882582104EBDB
:101A10004400801CE84A1154022104EB4400C01C1D
:101A20001154012703E0BDF80000E24948821DE09F
:101A3000BDF80000142803DBBDF800005A280FDDB4
:101A40001420DC490875142104EB4400801CDA4A98
:101A50001154002104EB4400C01C1154012703E081
:101A6000BDF80000D349087500E000BF00BF601C4E
:101A7000C4B2AC42FFF626AE012F09D100200AF015
:101A8000A4FD05EB4500421C0021CB480AF013FFE2
:101A9000F8BD00B587B01122152101A80AF018FF82
:101AA000112201A9C54819F0B3FC1122162101A881
:101AB0000AF00EFF112201A9C14819F0A9FC112258
:101AC000172101A80AF004FF112201A9BD4819F04D
:101AD0009FFC1122182101A80AF0FAFE112201A987
:101AE000B94819F095FC1122192101A80AF0F0FE5D
:101AF000112201A9B54819F08BFC11221A2101A865
:101B00000AF0E6FE112201A9B14819F081FC112268
:101B10001B2101A80AF0DCFE112201A9AD4819F031
:101B200077FC11221C2101A80AF0D2FE112201A982
:101B3000A94819F06DFCFFF7F1FB19220F219E480F
:101B40000AF0C6FE9C48007E552824D000209A4901
:101B5000087048708870C8703020087148718871AA
:101B6000C871087248728872C872087348738873A3
:101B7000C873087448748874C87408754875887583
:101B8000C875552008760F200AF01FFD19220F2175
:101B900089480AF090FE1B22142190480AF098FE12
:101BA0008E48807E552837D0C0208C490870A820E8
:101BB0004870642088700120C870FF200871487147
:101BC00088710020C871C0200872A8204872642063
:101BD00088720420C872C8200873612048730020EE
:101BE0008873C873087448748874C874C0200875F2
:101BF000A820487501208875C820C875C7200876B8
:101C0000612048765520887614200AF0DEFC1B22DD
:101C1000142172480AF04FFE07B000BD00B595B020
:101C20000020149013901290119010900F900E902D
:101C30000D90FDE318F0B7F869480078C0F3C000D4
:101C400000287CD06648007820F0080064490870BD
:101C50005848407C012803D05648407C02286FD168
:101C600007200AF0F3F9039019F063FE129012981E
:101C700019F091FE5B4A5C4BCDE9000119F06FFD54
:101C8000CDE9020119F0CAFE12905848008819F0F7
:101C900050FE0390129919F0DDFE17D253480088C8
:101CA00019F047FE0290129919F03FFC039019F0C9
:101CB00045FE80B2ADF82800BDF82800014603902B
:101CC0000720FEF776FBADF8180002E00020ADF823
:101CD000180008200AF0BAF9039019F02AFE1190B2
:101CE000119819F058FE3F4A3F4BCDE9000119F019
:101CF00036FDCDE9020119F091FE11903C480088B3
:101D000019F017FE0390119919F0A4FE19D2384862
:101D1000008819F00EFE0290119919F006FC03904C
:101D200019F00CFE80B2ADF82A00BDF82A00014679
:101D300003900820FEF73DFBADF81A0004E0FDE338
:101D4000ACE10020ADF81A002B200AF07FF90390D7
:101D500019F0EFFD1090109819F01DFE214A224B4A
:101D6000CDE9000119F0FBFCCDE9020119F056FEA6
:101D700010902048008819F0DCFD0390109919F0AC
:101D800069FE39D21B48008819F0D3FD02901099E2
:101D900019F0CBFB039019F0D1FD80B2ADF82C0007
:101DA000BDF82C00014603902B20FEF702FBADF896
:101DB0001C0024E0D0450020E68D0020484500208E
:101DC000594500206A4500207B4500208C450020B5
:101DD0009D450020AE450020BF4500202E9B0020E1
:101DE00058000020B3B7EE871388C33F6800002077
:101DF0006A0000206C0000200020ADF81C000920C3
:101E00000AF024F9039019F094FD0F900F9819F03F
:101E1000C2FDF84AF84BCDE9000119F0A0FCCDE96C
:101E2000020119F0FBFD0F90F448008819F081FDC4
:101E300003900F9919F00EFE17D2F048008819F0A0
:101E400078FD02900F9919F070FB039019F076FD60
:101E500080B2ADF82E00BDF82E0001460390092097
:101E6000FEF7A7FAADF81E0002E00020ADF81E0054
:101E70002920E3490870002048704320887004201E
:101E8000C8700520087107204871DE480088C11716
:101E9000039000EB116001120398A0EB0120D849D8
:101EA0008871D8480088C117039000EB1160000AC0
:101EB000D349C871129819F041FDD149087212989E
:101EC00019F03CFD000ACE494872BDF81800C11750
:101ED000039000EB116001120398A0EB0120C849A8
:101EE0008872BDF81800C117039000EB1160000A5A
:101EF000C349C87208200873C3480088C1170390FB
:101F000000EB116001120398A0EB0120BC4948735B
:101F1000BD480088C117039000EB1160000AB84962
:101F20008873119819F00AFDB549C873119819F012
:101F300005FD000AB2490874BDF81A00C1170390E4
:101F400000EB116001120398A0EB0120AC4948742A
:101F5000BDF81A00C117039000EB1160000AA849F0
:101F600088742B20C874A9480088C117039000EB1F
:101F7000116001120398A0EB0120A1490875A34844
:101F80000088C117039000EB1160000A9C49487556
:101F9000109819F0D3FC9A498875109819F0CEFC66
:101FA000000A9749C875BDF81C00C117039000EBE3
:101FB000116001120398A0EB012091490876BDF849
:101FC0001C00C117039000EB1160000A8C49487691
:101FD0000920887689480088C117039000EB1160BA
:101FE00001120398A0EB01208549C8768348008838
:101FF000C117039000EB1160000A814908770F9820
:1020000019F09CFC7E4948770F9819F097FC000A5C
:102010007B498877BDF81E00C117039000EB116063
:1020200001120398A0EB01207549C877BDF81E0086
:10203000C117039000EB1160000A714981F820007C
:10204000062081F82100FEF773FE30306C4981F8DC
:102050002200252081F82300FEF76AFE303068490F
:1020600081F82400152081F82500FEF761FE30304C
:10207000634981F82600092081F82700FEF758FE01
:1020800030305F4981F828000A2081F82900FEF7E6
:102090004FFE30305A4981F82A0014E35C48407CF6
:1020A0000328FAD1072009F0D1FF039019F041FC71
:1020B0001290129819F06FFC4E4A4F4BCDE9000177
:1020C00019F04DFBCDE9020119F0A8FC12904D4822
:1020D000008819F02EFC0390129919F0BBFC17D25E
:1020E0004848008819F025FC0290129919F01DFA51
:1020F000039019F023FC80B2ADF82800BDF8280049
:10210000014603900720FEF754F9ADF8180002E0ED
:102110000020ADF81800082009F098FF039019F08E
:1021200008FC1190119819F036FC324A324BCDE977
:10213000000119F014FBCDE9020119F06FFC1190B8
:102140003148008819F0F5FB0390119919F082FCD1
:1021500017D22D48008819F0ECFB0290119919F064
:10216000E4F9039019F0EAFB80B2ADF82A00BDF85B
:102170002A00014603900820FEF71BF9ADF81A006B
:1021800002E00020ADF81A002B2009F05FFF039059
:1021900019F0CFFB1090109819F0FDFB154A164B63
:1021A000CDE9000119F0DBFACDE9020119F036FCA6
:1021B00010901648008819F0BCFB0390109919F094
:1021C00049FC27D21148008819F0B3FB02901099FE
:1021D00019F0ABF9039019F0B1FB80B2ADF82C0007
:1021E000BDF82C00014603902B20FEF7E2F8ADF875
:1021F0001C0012E0B3B7EE871388C33F6E000020C7
:10220000F28B0020680000206A0000206C00002093
:10221000D04500200020ADF81C00092009F016FF71
:10222000039019F086FB0F900F9819F0B4FBFE4A4B
:10223000FE4BCDE9000119F092FACDE9020119F047
:10224000EDFB0F90FA48008819F073FB03900F998B
:1022500019F000FC17D2F648008819F06AFB0290CA
:102260000F9919F062F9039019F068FB80B2ADF88C
:102270002E00BDF82E00014603900920FEF799F8C4
:10228000ADF81E0002E00020ADF81E002C2009F081
:10229000DDFE039019F04DFB0E900E9819F07BFBBC
:1022A000E14AE24BCDE9000119F059FACDE902010A
:1022B00019F0B4FB0E90DF48008819F03AFB039048
:1022C0000E9919F0C7FB17D2DA48008819F031FBD4
:1022D00002900E9919F029F9039019F02FFB80B2A2
:1022E000ADF83000BDF83000014603902C20FEF719
:1022F00060F8ADF8200002E00020ADF820002D20AD
:1023000009F0A4FE039019F014FB0D900D9819F03C
:1023100042FBC54AC54BCDE9000119F020FACDE9D1
:10232000020119F07BFB0D90C348008819F001FBF6
:1023300003900D9919F08EFB17D2BF48008819F051
:10234000F8FA02900D9919F0F0F8039019F0F6FAE6
:1023500080B2ADF83200BDF83200014603902D2066
:10236000FEF727F8ADF8220002E00020ADF82200C9
:102370003720B2490870002048704320887006203A
:10238000C8700520087107204871AD480088C11742
:10239000039000EB116001120398A0EB0120A74904
:1023A0008871A7480088C117039000EB1160000AEC
:1023B000A249C871129819F0C1FAA049087212987E
:1023C00019F0BCFA000A9D494872BDF81800C117FF
:1023D000039000EB116001120398A0EB01209749D4
:1023E0008872BDF81800C117039000EB1160000A55
:1023F0009249C8720820087392480088C117039058
:1024000000EB116001120398A0EB01208B49487387
:102410008C480088C117039000EB1160000A8749BF
:102420008873119819F08AFA8449C873119800E0EA
:1024300063E119F083FA000A80490874BDF81A00B4
:10244000C117039000EB116001120398A0EB01206B
:102450007A494874BDF81A00C117039000EB116067
:10246000000A764988742B20C87477480088C11701
:10247000039000EB116001120398A0EB0120C1B2A0
:102480006E48017570480088C117039000EB116019
:10249000000A6A494875109819F050FA674988751A
:1024A000109819F04BFA000A6449C875BDF81C0071
:1024B000C117039000EB116001120398A0EB0120FB
:1024C0005E490876BDF81C00C117039000EB11604F
:1024D000000A5A4948760920887655480088C1176D
:1024E000039000EB116001120398A0EB0120C1B230
:1024F0005248C1764E480088C117039000EB116026
:10250000000A4E4908770F9819F018FA4B49487796
:102510000F9819F013FA000A48498877BDF81E0091
:10252000C117039000EB116001120398A0EB01208A
:102530004249C877BDF81E00C11700E0C3E0039010
:1025400000EB1160000A3D4981F820002C2081F841
:10255000210038480088C117039000EB1160011278
:102560000398A0EB0120354981F82200314800880A
:10257000C117039000EB1160000A304981F8230075
:102580000E9819F0DBF92D4981F824000E9819F006
:10259000D5F9000A294981F82500BDF82000C117A6
:1025A000039000EB116001120398A0EB0120234976
:1025B00081F82600BDF82000C117039000EB1160E0
:1025C000000A1E4981F827002D2081F828001A48AA
:1025D0000088C117039000EB116001120398A0EB73
:1025E0000120164981F8290013480088C11703907B
:1025F00000EB1160000A114981F82A000D9819F0CA
:102600009DF90E4981F82B000D9819F097F9000AF1
:102610000A4981F82C00BDF82200C117039000EB95
:1026200011600112039811E0B3B7EE871388C33F1E
:102630006E0000207000002072000020F28B00204D
:10264000680000206A0000206C000020A0EB012040
:10265000FE4981F82D00BDF82200C117039000EB60
:102660001160010AF94880F82E100620F74981F818
:102670002F00FEF75DFB3030F44981F83000252053
:1026800081F83100FEF754FB3030F04981F8320018
:10269000152081F83300FEF74BFB3030EB4981F811
:1026A0003400092081F83500FEF742FB3030E7495D
:1026B00081F836000A2081F83700FEF739FB303008
:1026C000E24981F83800E2480078C0F38000A0B108
:1026D000DF48007820F00400DD4908700498401CB1
:1026E000C0B20490DB4909780498884205DBD749D9
:1026F00002200BF0ECFA00200490D748007807285D
:102700003FF498AA15B000BD70B505460C460820E8
:10271000CE49087000204870542088703220C8705C
:1027200042F2107094FBF0F008710846007900281E
:1027300004DD084600793030087102E02020C349EA
:10274000087142F2107094FBF0F100FB11404FF45D
:102750007A7190FBF1F0BD4948710846407928B97B
:1027600008460079202801D1487104E0B748407933
:102770003030B64948714FF47A7094FBF0F100FBA9
:102780001140642190FBF1F0B049887108468079CE
:1027900028B908464079202801D1887104E0AB4867
:1027A00080793030A9498871642094FBF0F100FBF6
:1027B00011400A2190FBF1F0A449C8710846C07984
:1027C00028B908468079202801D1C87104E09F48C3
:1027D000C07930309D49C8710A2094FBF0F100FBAC
:1027E00011403030994908722020487228460BF079
:1027F0006EFA70BD70B505460C4608209349087006
:1028000000204870542088703120C87042F2107047
:1028100094FBF0F0087108460079002804DD0846B2
:1028200000793030087102E020208849087142F2B6
:10283000107094FBF0F100FB11404FF47A7190FBA3
:10284000F1F0824948710846407928B90846007974
:10285000202801D1487104E07C48407930307B4920
:1028600048714FF47A7094FBF0F100FB1140642141
:1028700090FBF1F0754988710846807928B90846BF
:102880004079202801D1887104E070488079303087
:102890006E498871642094FBF0F100FB11400A211D
:1028A00090FBF1F06949C8710846C07928B908461B
:1028B0008079202801D1C87104E06448C0793030A3
:1028C0006249C8710A2094FBF0F100FB11403030DE
:1028D0005E4908722020487228460BF0F8F970BD56
:1028E0002DE9FC5F4FF00009CA46002500265B4831
:1028F0000078C0F3800098B9002059490860574813
:10290000007820F00400001D544908700846007843
:1029100020F00800083008704FF4FA6009F04EFA11
:1029200050480088C82802DAC8204E4908804E481E
:102930000088C82802DAC8204B4908804648007839
:102940000B281AD149480088642809DD47490988BD
:10295000880000EBD071C1F34F01454A118018E0A7
:1029600040490988404A12881144880000EBD07120
:10297000C1F34F013E4A11800BE03A4909883A4AB7
:1029800012881144880000EBD071C1F34F01384A1E
:1029900011803848408A00EB800035490988B1EB46
:1029A000400F09DA3348408A00EB80004FF6FF7190
:1029B00001EA40002E4908802D480488B4F5FA6FDA
:1029C00001DA4FF4FA64224800780121B1EBD01FFC
:1029D00017D11F48407800F0010098B11F48407897
:1029E00020F0800080301D4948700846407820F073
:1029F000400040304870002211461046FDF7B1FCFF
:102A000000E000BF0620FEF793F900285FD11A49C5
:102A100008801A4908800E48407800F0010018B17B
:102A2000174900200BF053F9094800780121B1EB58
:102A3000D01F03D1124902200BF049F900200649AA
:102A4000087001200F4908600F491FE0F28B002039
:102A50005800002074000020540000205C0000207A
:102A60009C01244296000020980000209E00002037
:102A7000BE000020D04500209000002092000020E1
:102A80002D010020A001214200002242C1F8A00136
:102A9000F7490860F749C1F89C01F748407820F0F1
:102AA0000800F54948700846407820F0100048704A
:102AB0000846407820F0200048700846407820F012
:102AC000400048700020ED494870BDE8FC9FEA488E
:102AD0004078C0F3800030B1E748407820F0020031
:102AE000801CE549487001210720FDF7F4FE012113
:102AF0000820FDF7F0FE4FF4FA6009F05FF90020BE
:102B0000DF490860DC48407820F040004030DA4976
:102B100048700020D749C1F8A001D748407820F07C
:102B200008000830D44948700020D64908600CE1FC
:102B300017F039F90620FEF7FBF8C8BBCE484078FD
:102B400000F0010018B1D04900200BF0C0F8CA48CD
:102B500000780121B1EBD01F03D1CB4902200BF04B
:102B6000B6F80020C94908700120C5490860C1496C
:102B7000C1F8A001BE490860BE49C1F89C01BE4829
:102B8000407820F00800BC4948700846407820F0A2
:102B9000100048700846407820F020004870084631
:102BA000407820F0400048700020B44948708CE71D
:102BB000FFE7B1480078C0F340000028B7D0AE4826
:102BC000007820F00200AC490870072009F0CAFA2A
:102BD000074618F0AEFE8146484618F0DCFEAC4AC7
:102BE000AC4BCDE9000118F0BAFD074618F016FF0E
:102BF0008146A948008818F09CFE0746494618F00F
:102C000029FF13D2A448008818F093FE8046494655
:102C100018F08BFC074618F091FE1FFA80FB59460E
:102C20000720FDF7C6FB9D49088002E000209B4974
:102C30000880082009F096FA074618F07AFE8246C6
:102C4000504618F0A8FE924A924BCDE9000118F0C8
:102C500086FD074618F0E2FE82469148008818F08B
:102C600068FE0746514618F0F5FE13D28C480088DE
:102C700018F05FFE8046514618F057FC074618F0E2
:102C80005DFE1FFA80FB59460820FDF792FB85493F
:102C9000088002E000208349088080480088A04224
:102CA00052DD681CC5B21E2D4FDB0C207749087021
:102CB0000120734908606F49C1F8A001C1F89C0167
:102CC0006D48407820F008006B494870084640780D
:102CD00020F0100048700846407820F0200048702E
:102CE0000846407820F040004870084600780121EE
:102CF000B1EBD01F1DD1694801880220FFF77AFD92
:102D00005D48407800F00100E8B16748407820F065
:102D100080008030644948700846407820F04000C8
:102D20004030487000225D4801881046FDF719FBCD
:102D300009E05148407800F0010020B1574801886F
:102D40000020FFF757FDC0E600254E480068B0F5AB
:102D50007A7FFFF4EDAE0020454908604648407890
:102D600020F01000103044494870002045490860A8
:102D700089E117F018F80620FDF7DAFFC8BB3E48D6
:102D8000407800F0010018B13F4900200AF09FFF91
:102D9000394800780121B1EBD01F03D13A49022014
:102DA0000AF095FF00203949087001203449086075
:102DB0003049C1F8A0012E4908602E49C1F89C0194
:102DC0002D48407820F008002B494870084640788C
:102DD00020F0100048700846407820F0200048702D
:102DE0000846407820F04000487000202349487091
:102DF0006BE6FFE720480078C0F340000028B7D01A
:102E00001D48007820F002001B490870072009F0D7
:102E1000A9F9074618F08DFD8146484618F0BBFD1C
:102E200007461B4A1B4B18F09AFCCDE9000118F02D
:102E3000F5FD81461848008818F07BFD0746494695
:102E400018F008FE32D21448008818F072FD80464F
:102E5000494618F06AFB074618F070FD1FFA80FB20
:102E600059460720FDF7A5FA0C49088021E000002B
:102E7000A40122420000224258000020D045002038
:102E8000A0012142780000202D01002054000020E4
:102E9000B3B7EE871388C33F68000020900000207E
:102EA0006A000020920000205C0000200020FE4903
:102EB0000880082009F056F9074618F03AFD8246C6
:102EC000504618F068FD0746F84AF94B18F047FCE1
:102ED000CDE9000118F0A2FD8246F648008818F0FE
:102EE00028FD0746514618F0B5FD13D2F148008879
:102EF00018F01FFD8046514618F017FB074618F0E2
:102F00001DFD1FFA80FB59460820FDF752FAEA49D9
:102F1000088002E00020E8490880E3480088A042D9
:102F200055DD681CC5B2032D52DB0C20E349087047
:102F30000120E3490860E349C1F8A001E2490860C3
:102F4000E049C1F89C01E148407820F00800DF49E1
:102F500048700846407820F01000487008464078D5
:102F600020F0200048700846407820F0400048706B
:102F7000084600780121B1EBD01F1DD1CA48018855
:102F80000220FFF737FCD148407800F00100E8B19B
:102F9000CF48407820F080008030CD494870084606
:102FA000407820F04000403048700022BE48018840
:102FB0001046FDF7D6F909E0C448407800F001005A
:102FC00020B1B94801880020FFF714FC7DE50025F9
:102FD000B9480088A04255DD701CC6B21E2E52DBD7
:102FE0000C20B64908700120B5490860B549C1F800
:102FF000A001B5490860B349C1F89C01B3484078C5
:1030000020F00800B14948700846407820F01000D0
:1030100048700846407820F0200048700846407804
:1030200020F040004870084600780121B1EBD01F25
:103030001DD1A14801880220FFF766FBA348407814
:1030400000F00100E8B1A248407820F08000803014
:103050009F4948700846407820F040004030487052
:103060009548028800210846FDF77BF909E097485A
:10307000407800F0010020B18F4801880020FFF760
:1030800043FB22E5002693480068B0F57A7FFFF401
:1030900070AE00208C49083908608C48407820F0D8
:1030A00020002030894948704FF00009CA460020AE
:1030B000884908608CE116F076FE0620FDF738FEA0
:1030C000C8BB8248407800F0010018B18249002056
:1030D0000AF0FDFD7D4800780121B1EBD01F03D13E
:1030E0007D4902200AF0F3FD002074490870012098
:1030F000734908607349C1F8A001734908607149B8
:10310000C1F89C017148407820F008006F49487070
:103110000846407820F0100048700846407820F0BB
:10312000200048700846407820F040004870002099
:103130006A494870C9E4FFE764480078C0F340007A
:103140000028B7D06148007820F002005F4908707D
:10315000072009F007F8074618F0EBFB81464846C0
:1031600018F019FC514A524BCDE9000118F0F7FA5A
:10317000074618F053FC81465948008818F0D9FBDF
:103180000746494618F066FC13D25548008818F0E7
:10319000D0FB8046494618F0C8F9074618F0CEFB28
:1031A0001FFA80FB59460720FDF703F93E490880C6
:1031B00002E000203C490880082008F0D3FF0746C1
:1031C00018F0B7FB8246504618F0E5FB0746374A31
:1031D000374B18F0C4FACDE9000118F01FFC824605
:1031E0003448008818F0A5FB0746514618F032FC19
:1031F00013D23048008818F09CFB8046514618F0E6
:1032000094F9074618F09AFB1FFA80FB59460820EC
:10321000FDF7CFF82849088002E000202649088001
:1032200021480088A04277DD681CC5B2032D74DBFD
:103230000C20224908700120214908602149C1F869
:10324000A001214908601F49C1F89C011F4840782E
:1032500020F008001D4948700846407820F0100012
:1032600048700846407820F02000487008464078B2
:1032700020F040004870084600780121B1EBD01FD3
:103280003DD1094801880220FFF7B4FA0F48407881
:1032900000F0010030B30E48407820F0800080300C
:1032A0000B49487008461EE090000020B3B7EE8737
:1032B0001388C33F6A0000209200002054000020C1
:1032C000A001214200002242A40122425800002015
:1032D0005C000020780000202D010020D045002057
:1032E0006800002015E0407820F040004030487031
:1032F0000022FE4801881046FDF733F809E0FC483B
:10330000407800F0010020B1F84801880020FFF764
:1033100071FA4CE400E000E00025F6480088A04285
:1033200055DD701CC6B2032E52DB0C20F24908702A
:103330000120F2490860F249C1F8A001F149086092
:10334000EF49C1F89C01EA48407820F00800E849BC
:1033500048700846407820F01000487008464078D1
:1033600020F0200048700846407820F04000487067
:10337000084600780121B1EBD01F1DD1DD4801883E
:103380000220FFF7C1F9DA48407800F00100E8B107
:10339000DD48407820F080008030DB4948700846E6
:1033A000407820F0400040304870D2480288002128
:1033B0000846FCF7D6FF09E0CD48407800F0010050
:1033C00020B1CC4801880020FFF79EF9BBE400261D
:1033D000CE480068B0F57A7FFFF46DAE0120C74992
:1033E0000860C348407820F04000C149487001207F
:1033F000C749487000BFA6E470B506460C4615469E
:103400000E20C44908700020487047208870422070
:10341000C87042F2107094FBF0F008710846007911
:10342000002804DD084600793030087102E02020D1
:10343000B849087142F2107094FBF0F100FB1140A2
:103440004FF47A7190FBF1F0B24948710846407927
:1034500028B908460079202801D1487104E0AD4818
:1034600040793030AB4948714FF47A7094FBF0F1F9
:1034700000FB1140642190FBF1F0A64988710846D9
:10348000807928B908464079202801D1887104E064
:10349000A048807930309F498871642094FBF0F116
:1034A00000FB11400A2190FBF1F09A49C8710846CF
:1034B000C07928B908468079202801D1C87104E074
:1034C0009448C07930309349C8710A2094FBF0F1D8
:1034D00000FB114030308F4908722020487242F2C0
:1034E000107095FBF0F088720846807A002804DDA1
:1034F0000846807A3030887202E020208549887240
:1035000042F2107095FBF0F100FB11504FF47A710C
:1035100090FBF1F07F49C8720846C07A28B9084686
:10352000807A202801D1C87204E07A48C07A30300D
:103530007849C8724FF47A7095FBF0F100FB115096
:10354000642190FBF1F0734908730846007B28B9A9
:103550000846C07A202801D1087304E06D48007B3A
:1035600030306C490873642095FBF0F100FB11507A
:103570000A2190FBF1F0674948730846407B28B95F
:103580000846007B202801D1487304E06148407B55
:103590003030604948730A2095FBF0F100FB115070
:1035A00030305C4988732020C87330460AF08FFBA6
:1035B00070BD2DE9FC5F0020019000900024814641
:1035C000824601210720FDF786F901210820FDF739
:1035D00082F900212B20FDF77EF93BE116F0E3FB99
:1035E00043480078C0F3C0000028F6D04048007877
:1035F00020F008003E490870072008F027FD054626
:1036000018F097F90446204618F0C5F90746424AD3
:10361000424B18F0A4F8054618F000FA044640485A
:10362000008818F086F90546214618F013FA28D2CA
:103630003B48008818F07DF90646214617F075FFD3
:10364000054618F07BF91FFA80FB59460720FCF766
:10365000B0FE2649088008460088401D08800846BC
:1036600000880A2190FBF1F0204908800846008874
:1036700000EB80004FF6FF7101EA40001B49088013
:1036800002E0002019490880082008F0DFFC054608
:1036900018F04FF98146484618F07DF907461E4A52
:1036A0001E4B18F05CF8054618F0B8F981461D4825
:1036B000008818F03EF90546494618F0CBF947D284
:1036C0001848008818F035F90646494617F02DFFCE
:1036D000054618F033F91FFA80FB59460820FCF71D
:1036E00068FE04490880084600881DE0900000201C
:1036F000580000209200002054000020A001214228
:1037000000002242A40122425C0000207800002038
:10371000D0450020F28B0020B3B7EE871388C33F5B
:10372000680000206A000020401D088008460088CC
:103730000A2190FBF1F0F74908800846008800EB69
:1037400080004FF6FF7101EA4000F249088002E074
:103750000020F0490880F048407C012832DD2B2011
:1037600008F074FC054618F0E4F88246504618F05C
:1037700012F90546E94AEA4B17F0F1FF074618F03F
:103780004DF98246E748008818F0D3F805465146BF
:1037900018F060F913D2E348008818F0CAF806461A
:1037A000514617F0C2FE054618F0C8F81FFA80FB14
:1037B00059462B20FCF7FDFDDB49088002E0002084
:1037C000D9490880D94800780121B1EBD01F35D103
:1037D000D648407800F0010078B3D4484078B1EB87
:1037E000D01F06D1D248407820F00200801CD0497A
:1037F0004870CF48407820F00100CD494870084615
:10380000407820F08000803048700846407820F0F2
:103810004000403048700846007820F08000087072
:103820000846007820F0400040300870B94802880F
:10383000C04801880020FCF794FD0BE0BB484078AD
:1038400000F0010030B1B3480288BA480188002076
:10385000FFF7D2FDB848007800283FF4BFAEBDE8BE
:10386000FC9F2DE9FF5F05460E464FF0000AD34648
:1038700000200390042D7DDB002454E04FF0000A6B
:10388000AE4931F8140018F054F85146029017F080
:10389000F7FD8246A94A611C32F8110018F049F878
:1038A0005146029017F0ECFD8246A44AA11C32F862
:1038B000110018F03EF85146029017F0E1FD8246E3
:1038C0009E4AE11C32F8110018F033F8514602907C
:1038D00017F0D6FD82464FF08141504617F05AFE50
:1038E000029018F02BF8954921F81400084630F89A
:1038F0001400401D21F81400084630F814000A2175
:1039000090FBF1F08D4921F81400084630F81400BE
:1039100000EB80004FF6FF7101EA4000874921F873
:103920001400601C84B2281FA042A7DC00243CE0E5
:103930004FF0000A281F204487B20BE07F4931F87E
:10394000170017F0F6FF5146029017F099FD8246D6
:10395000781C87B2AF42F1DBC4F1040017F0E0FF3E
:1039600001460090504617F015FE7549019017F07A
:1039700011FE00E01BE0029017F0E0FF81B2281F6B
:1039800020446E4A22F81010281F2044114631F8B6
:10399000100000EB80004FF6FF7101EA4001281F84
:1039A000204422F81010601C84B2042CC0DB042ECA
:1039B0007EDB002454E04FF0000B624931F8140024
:1039C00017F0B7FF5946029017F05AFD83465D4A3B
:1039D000611C32F8110017F0ACFF5946029017F045
:1039E0004FFD8346574AA11C32F8110017F0A1FF82
:1039F0005946029017F044FD8346524AE11C32F8C2
:103A0000110017F096FF5946029017F039FD8346D2
:103A10004FF08141584617F0BDFD029017F08EFF20
:103A2000484921F81400084630F81400401D21F8D8
:103A30001400084630F814000A2190FBF1F04149C7
:103A400021F81400084630F8140000EB80004FF60F
:103A5000FF7101EA40003B4921F81400601C84B268
:103A6000301FA042A7DC00243CE04FF0000B301FC9
:103A7000204487B20BE0334931F8170017F059FFA3
:103A80005946029017F0FCFC8346781C87B2B74277
:103A9000F1DBC4F1040017F043FF014600905846E3
:103AA00017F078FD2649019017F074FD029000E0B0
:103AB0001AE017F043FF81B2301F2044214A22F858
:103AC0001010301F2044114631F8100000EB800028
:103AD0004FF6FF7101EA4001301F204422F8101018
:103AE000601C84B2042CC0DBB5420DDAB046A94696
:103AF0004D462C4605E00020104921F81400601CBA
:103B000084B24445F7DB27E0A846B1464E4634462A
:103B100020E0000092000020D0450020B3B7EE87DF
:103B20001388C33F6C0000208C0000205800002048
:103B30005C0000209000002054000020AE4A0020CD
:103B400000002041F25000200020FE4921F814001E
:103B5000601C84B24445F7DB0020FB490880FB4928
:103B60000880002419E0FA4830F81400F649098862
:103B7000884204DDF64830F81400F3490880F14823
:103B800030F81400F1490988884204DDED4830F826
:103B90001400EE490880601C84B24445E3DB002039
:103BA000EC490880EC490880002444E0E54830F8FE
:103BB0001400E74931F8141088421DDAE44830F85F
:103BC0001400E04931F81410411A0398814230DDA5
:103BD000DF4830F81400DB4931F81410401A80B285
:103BE0000390DB4830F81400DA490880D54830F8F3
:103BF0001400D94908801CE0D24830F81400D44998
:103C000031F81410411A0398814212DDCD4830F882
:103C10001400CF4931F81410401A80B20390CC48F8
:103C200030F81400CB490880C64830F81400CA495F
:103C30000880601C84B24C45B8DBBDE8FF9F18B516
:103C40001346052404EB8004A4B200949DF80040C0
:103C500001F8014B9DF8014001F8014B442401F8A3
:103C6000014B01F8013B00909DF8004001F8014B29
:103C70009DF8014001F8014B0A2401F8014B002294
:103C800019E0B34C34F8124000949DF8004001F85C
:103C9000014B9DF8014001F8014BAA4C34F8124049
:103CA00000949DF8004001F8014B9DF8014001F897
:103CB000014B541CA2B28242E3DB18BD2DE9F04F48
:103CC00099B000201690159080468146149013906C
:103CD000002500241290119010900F900E908346B2
:103CE0000D900C900B9009900890079006909B48BF
:103CF00000780121B1EBD01F22D19949022009F0AF
:103D0000E6FF142008F05AF89649022009F0DFFF78
:103D10009248407800F00100D8B19348407820F0F4
:103D200080008030904948700846407820F040007C
:103D300040304870002211461046FCF712FB08E0A4
:103D40008648407800F0010018B18649002009F04B
:103D5000BEFF864800888649098808441FFA80FB10
:103D6000BBF5FA7F01DA4FF4FA7B0BEB4B0080B224
:103D70000D904FF6FF7000EA8B000C90584617F03C
:103D8000D8FD019017F007FE4FF06632794BCDE970
:103D9000020117F0E4FCCDE9040117F0E3FD80B265
:103DA0000B90002074490880744908800026002781
:103DB0007348C079401CC0B217906848007820F062
:103DC0001000103065490870A8E315F0ECFF0620DC
:103DD000FCF7AEFF002832D101206A4908606A4929
:103DE000C1F8A001694908606749C1F89C015B48B6
:103DF000407820F00800594948700846407820F083
:103E0000100048700846407820F0200048700846AE
:103E1000407820F0400048700020594948704FF029
:103E20000308012016904FF00309159030205849DF
:103E30000870584908705848058058480480504810
:103E4000C078012838D10920FCF772FF012817D16A
:103E50001698A8B952480088864211DD01201690B4
:103E60004A49091F08603D48407820F008003B4956
:103E700048704FF0030831204549087046480580D6
:103E80000A20FCF755FF012816D11598A0B944481F
:103E90000088874210DD012015903C4908602F48BA
:103EA000407820F010002D4948704FF00309312070
:103EB000384908703948048028480078C0F3001059
:103EC000E0B30020374908802448007820F0100033
:103ED000224908701798002830DD1798401EC0B29C
:103EE00017901798002829DC00202F49087001201E
:103EF0002649091F08602449C1F8A401C1F89C01A2
:103F00001648407820F00800144948700846407868
:103F100020F0100048700846407820F020004870DB
:103F20000846407820F0400048703020184908705A
:103F30001849087018480580184804800748007818
:103F400034E00000F2500020A0000020A200002079
:103F5000AE4A0020A4000020A60000205800002047
:103F600011010020190100205C00002096000020B3
:103F70009800002066661240900000209200002009
:103F8000D0450020A001214200002242A40122428B
:103F9000BC000020BD000020B8000020BA000020B6
:103FA000BE0000207600002054000020C0F3C000B6
:103FB00000287DD0F948007820F00800F749087003
:103FC000072008F043F8059017F0B3FC0790079816
:103FD00017F0E1FCF24AF34BCDE9020117F0BFFB09
:103FE000CDE9040117F01AFD0790EF48008817F09B
:103FF000A0FC0590079917F02DFD28D2EA4800880B
:1040000017F097FC0490079917F08FFA059017F0B6
:1040100095FC80B20A9007200A99FCF7CAF9E34997
:10402000088008460088401D0880084600880A214C
:1040300090FBF1F0DD4908800846008800EB800025
:104040004FF6FF7101EA4000D849088002E00020E5
:10405000D6490880082007F0F9FF059017F069FCA1
:104060000690069817F097FCCD4ACE4BCDE9020199
:1040700017F075FBCDE9040117F0D0FC0690CC4891
:10408000008817F056FC0590069917F0E3FC2AD239
:10409000C748008817F04DFC0490069917F045FAC0
:1040A000059017F04BFC80B20A9008200A9900E0B6
:1040B00048E0FCF77EF9BF49088008460088401DAB
:1040C0000880084600880A2190FBF1F0B949088071
:1040D0000846008800EB80004FF6FF7101EA4000BF
:1040E000B449088002E00020B2490880AB4800785B
:1040F0000121B1EBD01F19D1A848407800F0010090
:1041000000B3AD48407820F080008030AA49487064
:104110000846407820F0400040304870A5480288AA
:10412000A24801880020FCF71CF90BE09B4840786E
:1041300000F0010030B19F4802889C4801880020AF
:10414000FFF75AF995480078C0F3400000287CD06A
:104150009248007820F0020090490870072008F08B
:1041600001F8059017F0E5FB0990099817F013FC8A
:104170008B4A8C4BCDE9020117F0F1FACDE904012D
:1041800017F04CFC09908848008817F0D2FB059086
:10419000099917F05FFC1ED28348008817F0C9FB0D
:1041A0000490099917F0C1F9059017F0C7FB80B288
:1041B0000A9007200A99FCF7FCF80646701D86B2A3
:1041C0000A2096FBF0F086B206EB86004FF6FF71F0
:1041D00001EA400600E00026B5F5487F2CDAB8F188
:1041E0000A0F29DA0B98864205DA2846691C8DB237
:1041F000724921F810600F98B04203DC0F9600203E
:10420000149003E01498401C80B214900C988642DD
:1042100012DDB8F1040F0FDA0120694908605F4828
:10422000407820F008005D4948704FF004083020C5
:104230006449087064480580082007F093FF0590E2
:1042400017F077FB0890089800E067E117F0A3FBF0
:10425000534A544BCDE9020117F081FACDE904012C
:1042600017F0DCFB08905248008817F062FB0590BD
:10427000089917F0EFFB1ED24D48008817F059FB44
:104280000490089917F051F9059017F057FB80B288
:104290000A9008200A99FCF78CF80746781D87B227
:1042A0000A2097FBF0F087B207EB87004FF6FF710B
:1042B00001EA400700E00027B4F5487F2DDAB9F1A4
:1042C0000A0F2ADA0B98874205DA2046611C8CB265
:1042D0003E4921F810700E98B84203DC0E9700207A
:1042E000139003E01398401C80B213900C988742FF
:1042F00013DDB9F1040F10DA01203149091D0860FE
:104300002648407820F01000244948704FF00409F6
:1043100030202F4908702F480480B8F1000F06D1D3
:10432000002014905E4571DD4FF001086EE0B8F199
:10433000010F1BD114981E2810DD012020490860B0
:104340001648407820F00800144948704FF00408DF
:1043500030201C4908701C48058057E00D988642A3
:1043600054DD4FF00208002014904FE0B8F1020F26
:1043700032D114980A2849DD012011490860074804
:10438000407820F00800054948704FF004083020BC
:104390000C4908700C48058038E0000058000020E7
:1043A000B3B7EE871388C33F680000209000002059
:1043B0006A000020920000205C000020AE4A00202D
:1043C000A0012242BC000020B8000020F2500020D2
:1043D000BD000020BA000020B8F1030F05D11498E9
:1043E0000A2813DD4FF0040810E0B8F1040F0DD1D6
:1043F000C82E0BDAB5F5487F06DA00222846691C7C
:104400008DB2FE4921F810204FF00A08B8F10A0FCA
:1044100008D10120FA490860FA48407820F00800E5
:10442000F8494870B9F1000F06D1002013905F459C
:1044300054DD4FF0010951E0B9F1010F1CD113987F
:104440001E2811DD0120EE49091D0860ED48407865
:1044500020F01000EB4948704FF004093020EA4981
:104460000870EA48048039E00D98874236DD4FF045
:1044700002090020139031E0B9F1020F14D1139812
:104480000A282BDD0120DE49091D0860DD4840783F
:1044900020F01000DB4948704FF004093020DA4961
:1044A0000870DA48048019E0B9F1030F05D11398B8
:1044B0000A2813DD4FF0040910E0B9F1040F0DD103
:1044C000C82F0BDAB4F5487F06DA00222046611CBB
:1044D0008CB2CF4921F810204FF00A09B9F10A0F28
:1044E00009D10120C649091D0860C648407820F05E
:1044F0001000C4494870B8F10A0F0FD1B9F10A0F82
:104500000CD10120BE49091F0860BE48407820F048
:104510002000BC4948700020BE490870BD480078A2
:104520000A283FF452ACB748407820F00200B54961
:1045300048700846407820F0040048700020B649D2
:104540004870A5420DDAAA4607E00020AB4921F8E1
:104550001A000AF101001FFA80FAA245F5DB129455
:1045600010E0A54201D112940CE0A24607E0002021
:10457000A74921F81A000AF101001FFA80FAAA459A
:10458000F5DB12954322A5491298FFF758FB214607
:104590002846FFF766F90C209E4908709948007874
:1045A0000121B1EBD01F17D19D49022009F08FFBEB
:1045B0009448807800F0010008B39248807820F099
:1045C0000100904988709749022009F080FB9349C7
:1045D000022009F07CFB12E08A48407800F00100DC
:1045E00068B191480288914801880020FEF704FFD5
:1045F000142007F0E3FB8A49002009F068FB19B09A
:10460000BDE8F08F2DE9F04705460026002700247D
:1046100015E07A4931F8140017F08BF980463146DD
:1046200016F02EFF06467A4931F8140017F081F98A
:104630008046394616F024FF0746601C84B2AC421F
:10464000E7DB284617F075F981464946304616F0F3
:10465000A1FF804617F072F9754908800846008866
:10466000401D0A2190FBF1F071490880084600883E
:1046700000EB80004FF6FF7101EA40006C490880B2
:10468000284617F056F981464946384616F082FF0B
:10469000804617F053F96749088008460088401D96
:1046A0000A2190FBF1F0634908800846008800EB7E
:1046B00080004FF6FF7101EA40005E490880BDE8C6
:1046C000F0872DE9F04F8BB04FF00009CA46002764
:1046D000B846BB46002008900790069005900490CD
:1046E00000BF484800780121B1EBD01F34D15249B6
:1046F000022009F0ECFA4348407800F0010050B382
:10470000404840780121B1EBD01F06D14B4840789A
:1047100020F00200801C494948704848407820F049
:104720000100401C454948700846007820F0800090
:1047300008700846007820F04000403008700846B5
:10474000407820F08000803048700846407820F0A3
:1047500040004030487008E02A48407800F00100EE
:1047600018B13549002009F0B2FAFEF7B9F8294826
:104770000078092802D00BB0BDE8F08F0020304946
:104780000880304908800025002423488079401C97
:10479000C6B21C48007820F010001030194908708B
:1047A0003FE315F000FB0620FCF7C2FA002867D1B2
:1047B0001448407800F0010018B12349002009F0A6
:1047C00086FA104800780121B1EBD01F03D11E49B1
:1047D000022009F07CFA01201C4908601C49C1F83C
:1047E000A0010749091D08601949C1F89C01054845
:1047F000407820F00800034948702BE0AE4A0020C2
:10480000A001224258000020BD000020BA00002074
:10481000F250002054000020D0450020E863002022
:104820001D01002036570020A2000020A00000201B
:10483000B0000020B20000200D0100205C0000202C
:1048400090000020920000202D010020A0012142B4
:10485000000022420846407820F0100048700846C8
:10486000407820F0200048700846407820F0400052
:1048700048700020FE4948704FF001094FF0010ACE
:10488000FB48C07801285AD10920FCF751FA0128C9
:104890001DD1B9F1000F1AD1F6480088854216DD06
:1048A0004FF001090120F4490860F448407820F0F5
:1048B0000800F2494870084600780121B1EBD01F8A
:1048C00004D1EF49022009F002FA00E000BF0A20FB
:1048D000FCF72EFA01281ED1BAF1000F1BD1E548D2
:1048E0000088844217DD4FF0010A0120E249091DCA
:1048F0000860E248407820F01000E049487008461F
:1049000000780121B1EBD01F04D1DE49022009F06B
:10491000DEF900E000BFB9F1010F10D1BAF1010FCB
:104920000DD10120D449091F0860D448407820F0F7
:104930002000D24948700020D34908701BE7CF48B7
:104940000078C0F30010D8B30020D0490880CB48CD
:10495000007820F01000C9490870002E3EDD701E5E
:10496000C6B2002E37DD0320C94908700020487008
:104970004D2088703120C87008460671BF48007805
:104980000121B1EBD01F1CD1C149022009F09FF9D0
:10499000BA48407800F0010090B1BE48407820F05D
:1049A00080008030BB4948700846407820F04000C5
:1049B0004030487032464FF6FF710020FBF7D1FCC3
:1049C0000CE0AE48407800F0010038B1B04900205A
:1049D00009F07DF902E00020AB490870A748007893
:1049E000C0F3C00000287DD0A448007820F0080063
:1049F000A2490870072007F029FB039016F099FFE1
:104A00000590059816F0C7FFA34AA44BCDE9000115
:104A100016F0A5FECDE9020117F000F80590A048B8
:104A2000008816F086FF0390059917F013F828D236
:104A30009B48008816F07DFF0290059916F075FDE1
:104A4000039016F07BFF80B2099007200999FBF7CD
:104A5000B0FC9449088008460088401D088008463C
:104A600000880A2190FBF1F08E49088008460088F2
:104A700000EB80004FF6FF7101EA40008949088091
:104A800002E0002087490880082007F0DFFA039041
:104A900016F04FFF0490049816F07DFF7E4A7F4B7E
:104AA000CDE9000116F05BFECDE9020116F0B6FF7C
:104AB00004907D48008816F03CFF0390049916F09E
:104AC000C9FF2AD27848008816F033FF0290049973
:104AD00016F02BFD039016F031FF80B209900820EC
:104AE000099900E01CE0FBF764FC70490880084667
:104AF0000088401D0880084600880A2190FBF1F0DC
:104B00006A4908800846008800EB80004FF6FF7174
:104B100001EA40006549088002E0002063490880FE
:104B200056480078C0F3400000287DD053480078F4
:104B300020F002005149087008F101001FFA80F8C6
:104B4000072007F00FFB039016F0F3FE834658464C
:104B500016F021FF504A514BCDE9000116F0FFFD40
:104B6000CDE9020116F05AFF83464D48008816F041
:104B7000E0FE5946039016F06DFF1ED248480088AB
:104B800016F0D7FE5946029016F0CFFC039016F0AF
:104B9000D5FE80B2099007200999FBF70AFC05466B
:104BA000681D85B20A2095FBF0F085B205EB850003
:104BB0004FF6FF7101EA400500E00025B7F5487F98
:104BC00002DA3B4820F81750082007F0CBFA039090
:104BD00016F0AFFE0890089816F0DDFE2E4A2F4B17
:104BE000CDE9000116F0BBFDCDE9020116F016FF7C
:104BF00008902D48008816F09CFE0390089916F046
:104C000029FF20D22848008816F093FE02900899C8
:104C100016F08BFC039016F091FE80B209900820EC
:104C20000999FBF7C6FB00E0FBE00446601D84B277
:104C30000A2094FBF0F084B204EB84004FF6FF717D
:104C400001EA400400E00024B7F5487F02DA194881
:104C500020F817400748008885427FDD0798401CF0
:104C6000C0B20790079803287ADB0020064923E0AA
:104C7000D0450020BE000020A001224258000020A4
:104C80003101002035010020540000207600002072
:104C9000F28B00205C000020B3B7EE871388C33F7F
:104CA00068000020900000206A0000209200002090
:104CB000AE4A0020F250002008700120FE49086032
:104CC000FE49C1F8A001FE490860FC49C1F89C01F9
:104CD000FC48407820F00800FA49487008464078BF
:104CE00020F0100048700846407820F020004870FE
:104CF0000846407820F0400048700020F249487093
:104D0000F04800780121B1EBD01F1DD129460220C7
:104D1000FDF770FDEB48407800F00100E8B1EB488A
:104D2000407820F080008030E8494870084640789C
:104D300020F0400040304870002229461046FBF722
:104D400010FB0AE00AE00BE0DE48407800F00100CA
:104D500018B129460020FDF74DFD0CE50020079015
:104D6000DB480088844258DD0698401CC0B206909B
:104D70000698032853DB0020D64908700120CE494D
:104D80000860CE49C1F8A001CD490860CB49C1F8FF
:104D90009C01CC48407820F00800CA494870084679
:104DA000407820F0100048700846407820F020003D
:104DB00048700846407820F0400048700020C24902
:104DC0004870C04800780121B1EBD01F1BD12146AB
:104DD0000220FDF799FCBB48407800F00100D8B1F3
:104DE000BA48407820F080008030B84948700846C2
:104DF000407820F0400040304870224600210846AC
:104E0000FBF7AFFA08E0AF48407800F0010018B1B6
:104E100021460020FDF778FCADE400200690781CC8
:104E200087B2AC48007809283FF4BBACB8F5487F9E
:104E300001DB4FF448785A22A7494046FEF7FFFEAF
:104E40004046FFF7DFFBA048007801285ED19D486F
:104E5000407820F002009B4948700846407820F0D6
:104E6000040048700120944908609449C1F8A001E9
:104E7000934908609149C1F89C019248407820F01C
:104E80000800904948700846407820F010004870AB
:104E90000846407820F0200048700846407820F00E
:104EA00040004870002088494870864800780121F9
:104EB000B1EBD01F13D18949022008F008FF8148C7
:104EC000807800F00100E8B17E48807820F0010091
:104ED0007C4988708049022008F0F9FE12E0794888
:104EE000407800F0010068B17D4802887D48018863
:104EF0000020FEF781FA142006F060FF77490020B9
:104F000008F0E5FE0C207349087007E001206E49A7
:104F100048700A206F490870FEF7D0FE00BF2AE4EF
:104F20002DE9F04F9BB000201990189081468246E1
:104F30001790169000270026159014901390129049
:104F4000119010900F900E900D900B900A90099078
:104F50000890079006905B4800780121B1EBD01FC4
:104F600034D16149022008F0B2FE5648407800F082
:104F7000010050B3534840780121B1EBD01F06D156
:104F80005248407820F00200801C504948704F4839
:104F9000407820F00100401C4C49487008460078D9
:104FA00020F0800008700846007820F04000403073
:104FB00008700846407820F080008030487008462D
:104FC000407820F040004030487008E03D4840788C
:104FD00000F0010018B14449002008F078FEFDF708
:104FE0007FFC3C4800780A2802D01BB0BDE8F08F57
:104FF0000025002434484079401C00F0FF08314867
:10500000007820F0100010302E4908704AE214F0A9
:10501000CAFE0620FBF78CFE002839D129484078CB
:1050200000F0010018B13149002008F050FE254879
:1050300000780121B1EBD01F03D12C49022008F0E8
:1050400046FE00202349087001201B4908601B49C7
:10505000C1F8A0011A4908601849C1F89C01194813
:10506000407820F00800174948700846407820F042
:10507000100048700846407820F02000487008462C
:10508000407820F04000487000200F494870ACE79D
:105090000D48C07801287ED10920FBF749FE012880
:1050A00037D11998A8BB0A480088854231DD012014
:1050B00019900349091F1BE0A00121420000224270
:1050C000A401224258000020D04500205C000020AE
:1050D000BE00002054000020365700201D01002093
:1050E000B2000020B0000020110100202D0100209E
:1050F0000860FE48407820F00800FC4948700846E7
:1051000000780121B1EBD01F03D1F949022008F04A
:10511000DEFD0A20FBF70CFE012819D11898B8B95A
:10512000F4480088844213DD01201890F249086099
:10513000EE48407820F01000EC49487008460078AE
:105140000121B1EBD01F03D1EC49022008F0BFFDD3
:10515000199801281FD1189801281CD1E64908394F
:105160000860E248407820F02000E04948700020C4
:10517000E3494870E3490870DC48407800F00100DA
:1051800038B1DB49002008F0A2FDDC49002008F01E
:105190009EFD2AE7FFE7D5480078C0F3001098B3DA
:1051A0000020D9490880D148007820F01000CF496C
:1051B0000870B8F1000F33DDA8F1010000F0FF081E
:1051C000B8F1000F2BDD0320D04908700020487093
:1051D0004D2088703120C870084680F80480C3488C
:1051E00000780121B1EBD01F0FD1C849022008F08F
:1051F0006EFDBE48407800F0010028B142464FF6EF
:10520000FF710020FBF7ADF80AE0B848407800F0E5
:10521000010028B1BD49002008F059FD00E046E139
:10522000B2480078C0F3400000287CD0AF48007836
:1052300020F00200AD490870072006F093FF0590AA
:1052400016F077FB0B900B9816F0A5FBB04AB14B0C
:10525000CDE9020116F083FACDE9040116F0DEFB78
:105260000B90AD48008816F064FB05900B9916F082
:10527000F1FB1ED2A848008816F05BFB04900B9946
:1052800016F053F9059016F059FB80B20C900720E8
:105290000C99FBF78EF80546681D85B20A2095FB30
:1052A000F0F085B205EB85004FF6FF7101EA40058D
:1052B00000E00025082006F055FF059016F039FBA8
:1052C0000A900A9816F067FB914A924BCDE90201C9
:1052D00016F045FACDE9040116F0A0FB0A908F48BC
:1052E000008816F026FB05900A9916F0B3FB20D231
:1052F0008A48008816F01DFB04900A9916F015F9EB
:10530000059016F01BFB80B20C9008200C99FBF75F
:1053100050F80446601D84B20A2094FBF0F084B279
:1053200004EB840000E0BDE04FF6FF7101EA4004A9
:1053300000E000246F480088854255DD0798401C36
:10534000C0B207900798032850DB0C206D49087005
:105350000120734908607349C1F8A00166490860DB
:105360007049C1F89C016148407820F008005F490D
:1053700048700846407820F0100048700846407891
:1053800020F0200048700846407820F04000487027
:10539000084600780121B1EBD01F1BD1294602201D
:1053A000FDF728FA5148407800F00100D8B15E4876
:1053B000407820F0800080305B4948700846407893
:1053C00020F0400040304870002229461046FAF78D
:1053D000C8FF08E04548407800F0010018B12946B0
:1053E0000020FDF707FA00E60020079041480088FA
:1053F000844255DD0698401CC0B2069006980328EA
:1054000050DB0C203F4908700120454908604549A0
:10541000C1F8A001384908604249C1F89C013348ED
:10542000407820F00800314948700846407820F064
:10543000100048700846407820F020004870084668
:10544000407820F040004870084600780121B1EB18
:10545000D01F1BD121460220FDF756F92348407882
:1054600000F00100D8B13048407820F08000803052
:105470002D4948700846407820F040004030487080
:10548000224600210846FAF76CFF08E017484078EA
:1054900000F0010018B121460020FDF735F9A4E520
:1054A00000200690174800780A283FF4B0AD00BFEE
:1054B0000E4800780121B1EBD01F04D11B49022016
:1054C00008F005FC08E00948407800F0010018B138
:1054D0001649002008F0FBFB00200B900A901448AE
:1054E000008814490988084480B225E0580000204B
:1054F00031010020BE000020A4012242350100201D
:10550000D04500205400002076000020F28B0020BF
:10551000B3B7EE871388C33F680000206A000020FD
:10552000A0012142000022425C000020190100205D
:10553000960000209800002010901098B0F5FA7F97
:1055400002DA4FF4FA701090109800EB400080B22D
:105550000F904FF6FF71109801EA80000E9010989E
:1055600016F0E7F9019016F016FA4FF06632FD4B8F
:10557000CDE9020116F0F3F8CDE9040116F0F2F9D5
:1055800080B20D900020F8490880F8490880F8485A
:10559000C079401C00F0FF08F648007820F01000A9
:1055A0001030F44908706EE314F0FDFB0620FBF7A1
:1055B000BFFB90BB0120F0490860F049C1F8A00191
:1055C000EF490860ED49C1F89C01EA48407820F0B5
:1055D0000800E84948700846407820F010004870FC
:1055E0000846407820F0200048700846407820F0B7
:1055F000400048700020DE4948704FF00309012048
:1056000019904FF0030A18903020DE490870DE49E7
:105610000870DE480780DE480680D548C07801283B
:1056200038D10920FBF784FB012817D11998A8B9B4
:10563000D8480088854211DD01201990D049091F02
:105640000860CC48407820F00800CA4948704FF004
:1056500003093120CB490870CC4807800A20FBF7AA
:1056600067FB012816D11898A0B9CA48008884425F
:1056700010DD01201890C2490860BE48407820F033
:105680001000BC4948704FF0030A3120BE49087031
:10569000BF480680B7480078C0F3001098B30020D8
:1056A000BD490880B348007820F01000B149087067
:1056B000B8F1000F27DDA8F1010000F0FF08B8F1F4
:1056C000000F20DC0020B54908700120AC49091FFB
:1056D0000860AA49C1F8A401C1F89C01A548407816
:1056E00020F00800A34948700846407820F01000D8
:1056F00048700846407820F02000487008464078FE
:1057000020F0400048709B480078C0F3C00000289B
:105710007DD09848007820F008009649087007204E
:1057200006F094FC059016F004F90990099816F01B
:1057300032F99B4A9B4BCDE9020116F010F8CDE9F6
:10574000040116F06BF909909748008816F0F1F8FB
:105750000590099916F07EF928D29348008816F032
:10576000E8F80490099915F0E0FE059016F0E6F8C7
:1057700080B20C9007200C99FAF71BFE7A4908803A
:1057800008460088401D0880084600880A2190FBD2
:10579000F1F0754908800846008800EB80004FF65C
:1057A000FF7101EA40007049088002E000206E4964
:1057B0000880082006F04AFC059016F0BAF8089018
:1057C000089816F0E8F8764A764BCDE9020115F014
:1057D000C6FFCDE9040116F021F90890734800884E
:1057E00016F0A7F80590089916F034F92AD26F48F8
:1057F000008816F09EF80490089915F096FE059022
:1058000016F09CF880B20C9008200C9900E048E05B
:10581000FAF7CFFD5549088008460088401D0880EA
:10582000084600880A2190FBF1F05049088008469C
:10583000008800EB80004FF6FF7101EA40004B4901
:10584000088002E00020494908804A480078012188
:10585000B1EBD01F19D14748407800F0010000B3E8
:105860005348407820F08000803051494870084605
:10587000407820F04000403048703C4802883A4868
:1058800001880020FAF76DFD0BE03A48407800F0FF
:10589000010030B135480288334801880020FDF707
:1058A000ABFD34480078C0F34000002859D031489F
:1058B000007820F002002F490870072006F052FC03
:1058C000059016F036F80B900B9816F064F8344AF1
:1058D000344BCDE9020115F042FFCDE9040116F089
:1058E0009DF80B903048008816F023F805900B992E
:1058F00016F0B0F81ED22C48008816F01AF8049062
:105900000B9915F012FE059016F018F880B20C9065
:1059100007200C99FAF74DFD0546681D85B20A204F
:1059200095FBF0F085B205EB85004FF6FF7101EABB
:10593000400500E00025B7F5487F57DAB9F10A0FB6
:1059400054DA0D98854205DA3846791C8FB2194928
:1059500021F810501298A8422EDC129500201790C2
:105960002EE090E166661240900000209200002038
:10597000D045002058000020A00121420000224212
:10598000A4012242BC000020BD000020B80000207D
:10599000BA000020BE000020760000205400002045
:1059A000B3B7EE871388C33F680000206A00002069
:1059B0005C000020AE4A00201798401C80B217906F
:1059C0000E98854212DDB9F1040F0FDA0120FE496D
:1059D0000860FE48407820F00800FC4948704FF00D
:1059E00004093020FA490870FA480780082006F0B8
:1059F000B9FB059015F09DFF0A900A9815F0CBFFB2
:105A0000F54AF64BCDE9020115F0A9FECDE90401F6
:105A100016F004F80A90F248008815F08AFF059005
:105A20000A9916F017F81ED2ED48008815F081FF8C
:105A300004900A9915F079FD059015F07FFF80B26A
:105A40000C9008200C99FAF7B4FC0446601D84B24F
:105A50000A2094FBF0F084B204EB84004FF6FF714F
:105A600001EA400400E00024B6F5487F2DDABAF1DF
:105A70000A0F2ADA0D98844205DA3046711C8EB27C
:105A8000D84921F810401198A04203DC119400205D
:105A9000169003E01698401C80B216900E9884422F
:105AA00013DDBAF1040F10DA0120C749091D08609F
:105AB000C648407820F01000C44948704FF0040AEE
:105AC0003020C9490870C9480680B9F1000F07D1D4
:105AD000002017901098854252DD4FF001094FE0E9
